{
  "_format": "hh-sol-artifact-1",
  "contractName": "Organization",
  "sourceName": "contracts/Organization.sol",
  "abi": [
    {
      "inputs": [],
      "name": "InvalidInitialization",
      "type": "error"
    },
    {
      "inputs": [],
      "name": "NotInitializing",
      "type": "error"
    },
    {
      "inputs": [
        {
          "internalType": "address",
          "name": "owner",
          "type": "address"
        }
      ],
      "name": "OwnableInvalidOwner",
      "type": "error"
    },
    {
      "inputs": [
        {
          "internalType": "address",
          "name": "account",
          "type": "address"
        }
      ],
      "name": "OwnableUnauthorizedAccount",
      "type": "error"
    },
    {
      "anonymous": false,
      "inputs": [
        {
          "indexed": false,
          "internalType": "uint64",
          "name": "version",
          "type": "uint64"
        }
      ],
      "name": "Initialized",
      "type": "event"
    },
    {
      "anonymous": false,
      "inputs": [
        {
          "indexed": false,
          "internalType": "address[]",
          "name": "founders",
          "type": "address[]"
        }
      ],
      "name": "Initialized",
      "type": "event"
    },
    {
      "anonymous": false,
      "inputs": [
        {
          "indexed": true,
          "internalType": "address",
          "name": "previousOwner",
          "type": "address"
        },
        {
          "indexed": true,
          "internalType": "address",
          "name": "newOwner",
          "type": "address"
        }
      ],
      "name": "OwnershipTransferred",
      "type": "event"
    },
    {
      "inputs": [
        {
          "internalType": "address",
          "name": "user",
          "type": "address"
        }
      ],
      "name": "checkFounder",
      "outputs": [
        {
          "internalType": "bool",
          "name": "",
          "type": "bool"
        }
      ],
      "stateMutability": "view",
      "type": "function"
    },
    {
      "inputs": [
        {
          "internalType": "uint256",
          "name": "",
          "type": "uint256"
        }
      ],
      "name": "founders",
      "outputs": [
        {
          "internalType": "address",
          "name": "",
          "type": "address"
        }
      ],
      "stateMutability": "view",
      "type": "function"
    },
    {
      "inputs": [],
      "name": "getFounders",
      "outputs": [
        {
          "internalType": "address[]",
          "name": "",
          "type": "address[]"
        }
      ],
      "stateMutability": "view",
      "type": "function"
    },
    {
      "inputs": [
        {
          "internalType": "address[]",
          "name": "_founders",
          "type": "address[]"
        }
      ],
      "name": "initialize",
      "outputs": [],
      "stateMutability": "nonpayable",
      "type": "function"
    },
    {
      "inputs": [
        {
          "internalType": "address",
          "name": "",
          "type": "address"
        }
      ],
      "name": "isFounder",
      "outputs": [
        {
          "internalType": "bool",
          "name": "",
          "type": "bool"
        }
      ],
      "stateMutability": "view",
      "type": "function"
    },
    {
      "inputs": [],
      "name": "owner",
      "outputs": [
        {
          "internalType": "address",
          "name": "",
          "type": "address"
        }
      ],
      "stateMutability": "view",
      "type": "function"
    },
    {
      "inputs": [],
      "name": "renounceOwnership",
      "outputs": [],
      "stateMutability": "nonpayable",
      "type": "function"
    },
    {
      "inputs": [
        {
          "internalType": "address",
          "name": "newOwner",
          "type": "address"
        }
      ],
      "name": "transferOwnership",
      "outputs": [],
      "stateMutability": "nonpayable",
      "type": "function"
    }
  ],
  "bytecode": "0x6080604052348015600f57600080fd5b50610ede8061001f6000396000f3fe608060405234801561001057600080fd5b50600436106100885760003560e01c8063b73cdd191161005b578063b73cdd1914610101578063c7b578411461011f578063d8e75f621461014f578063f2fde38b1461017f57610088565b806304e04a101461008d578063715018a6146100bd5780638da5cb5b146100c7578063a224cee7146100e5575b600080fd5b6100a760048036038101906100a29190610a16565b61019b565b6040516100b49190610a5e565b60405180910390f35b6100c56101f1565b005b6100cf610205565b6040516100dc9190610a88565b60405180910390f35b6100ff60048036038101906100fa9190610bfc565b61023d565b005b61010961056a565b6040516101169190610d03565b60405180910390f35b61013960048036038101906101349190610a16565b6105f8565b6040516101469190610a5e565b60405180910390f35b61016960048036038101906101649190610d5b565b610618565b6040516101769190610a88565b60405180910390f35b61019960048036038101906101949190610a16565b610657565b005b6000600160008373ffffffffffffffffffffffffffffffffffffffff1673ffffffffffffffffffffffffffffffffffffffff16815260200190815260200160002060009054906101000a900460ff169050919050565b6101f96106dd565b6102036000610764565b565b60008061021061083b565b90508060000160009054906101000a900473ffffffffffffffffffffffffffffffffffffffff1691505090565b6000610247610863565b905060008160000160089054906101000a900460ff1615905060008260000160009054906101000a900467ffffffffffffffff1690506000808267ffffffffffffffff161480156102955750825b9050600060018367ffffffffffffffff161480156102ca575060003073ffffffffffffffffffffffffffffffffffffffff163b145b9050811580156102d8575080155b1561030f576040517ff92ee8a900000000000000000000000000000000000000000000000000000000815260040160405180910390fd5b60018560000160006101000a81548167ffffffffffffffff021916908367ffffffffffffffff160217905550831561035f5760018560000160086101000a81548160ff0219169083151502179055505b60008651116103a3576040517f08c379a000000000000000000000000000000000000000000000000000000000815260040161039a90610de5565b60405180910390fd5b60005b86518110156104aa5760008782815181106103c4576103c3610e05565b5b60200260200101519080600181540180825580915050600190039060005260206000200160009091909190916101000a81548173ffffffffffffffffffffffffffffffffffffffff021916908373ffffffffffffffffffffffffffffffffffffffff160217905550600180600089848151811061044457610443610e05565b5b602002602001015173ffffffffffffffffffffffffffffffffffffffff1673ffffffffffffffffffffffffffffffffffffffff16815260200190815260200160002060006101000a81548160ff02191690831515021790555080806001019150506103a6565b506104cf866000815181106104c2576104c1610e05565b5b6020026020010151610877565b7fe58d4b3592c74e580b584cc31679cad3eefea91577f47aabd1764352d4b4901b866040516104fe9190610d03565b60405180910390a183156105625760008560000160086101000a81548160ff0219169083151502179055507fc7f505b2f371ae2175ee4913f4499e1f2633a7b5936321eed1cdaeb6115181d260016040516105599190610e8d565b60405180910390a15b505050505050565b606060008054806020026020016040519081016040528092919081815260200182805480156105ee57602002820191906000526020600020905b8160009054906101000a900473ffffffffffffffffffffffffffffffffffffffff1673ffffffffffffffffffffffffffffffffffffffff16815260200190600101908083116105a4575b5050505050905090565b60016020528060005260406000206000915054906101000a900460ff1681565b6000818154811061062857600080fd5b906000526020600020016000915054906101000a900473ffffffffffffffffffffffffffffffffffffffff1681565b61065f6106dd565b600073ffffffffffffffffffffffffffffffffffffffff168173ffffffffffffffffffffffffffffffffffffffff16036106d15760006040517f1e4fbdf70000000000000000000000000000000000000000000000000000000081526004016106c89190610a88565b60405180910390fd5b6106da81610764565b50565b6106e561088b565b73ffffffffffffffffffffffffffffffffffffffff16610703610205565b73ffffffffffffffffffffffffffffffffffffffff16146107625761072661088b565b6040517f118cdaa70000000000000000000000000000000000000000000000000000000081526004016107599190610a88565b60405180910390fd5b565b600061076e61083b565b905060008160000160009054906101000a900473ffffffffffffffffffffffffffffffffffffffff169050828260000160006101000a81548173ffffffffffffffffffffffffffffffffffffffff021916908373ffffffffffffffffffffffffffffffffffffffff1602179055508273ffffffffffffffffffffffffffffffffffffffff168173ffffffffffffffffffffffffffffffffffffffff167f8be0079c531659141344cd1fd0a4f28419497f9722a3daafe3b4186f6b6457e060405160405180910390a3505050565b60007f9016d09d72d40fdae2fd8ceac6b6234c7706214fd39c1cd1e609a0528c199300905090565b60008061086e610893565b90508091505090565b61087f6108be565b610888816108fe565b50565b600033905090565b60007ff0c57e16840df040f15088dc2f81fe391c3923bec73e23a9662efc9c229c6a0060001b905090565b6108c6610984565b6108fc576040517fd7e6bcf800000000000000000000000000000000000000000000000000000000815260040160405180910390fd5b565b6109066108be565b600073ffffffffffffffffffffffffffffffffffffffff168173ffffffffffffffffffffffffffffffffffffffff16036109785760006040517f1e4fbdf700000000000000000000000000000000000000000000000000000000815260040161096f9190610a88565b60405180910390fd5b61098181610764565b50565b600061098e610863565b60000160089054906101000a900460ff16905090565b6000604051905090565b600080fd5b600080fd5b600073ffffffffffffffffffffffffffffffffffffffff82169050919050565b60006109e3826109b8565b9050919050565b6109f3816109d8565b81146109fe57600080fd5b50565b600081359050610a10816109ea565b92915050565b600060208284031215610a2c57610a2b6109ae565b5b6000610a3a84828501610a01565b91505092915050565b60008115159050919050565b610a5881610a43565b82525050565b6000602082019050610a736000830184610a4f565b92915050565b610a82816109d8565b82525050565b6000602082019050610a9d6000830184610a79565b92915050565b600080fd5b6000601f19601f8301169050919050565b7f4e487b7100000000000000000000000000000000000000000000000000000000600052604160045260246000fd5b610af182610aa8565b810181811067ffffffffffffffff82111715610b1057610b0f610ab9565b5b80604052505050565b6000610b236109a4565b9050610b2f8282610ae8565b919050565b600067ffffffffffffffff821115610b4f57610b4e610ab9565b5b602082029050602081019050919050565b600080fd5b6000610b78610b7384610b34565b610b19565b90508083825260208201905060208402830185811115610b9b57610b9a610b60565b5b835b81811015610bc45780610bb08882610a01565b845260208401935050602081019050610b9d565b5050509392505050565b600082601f830112610be357610be2610aa3565b5b8135610bf3848260208601610b65565b91505092915050565b600060208284031215610c1257610c116109ae565b5b600082013567ffffffffffffffff811115610c3057610c2f6109b3565b5b610c3c84828501610bce565b91505092915050565b600081519050919050565b600082825260208201905092915050565b6000819050602082019050919050565b610c7a816109d8565b82525050565b6000610c8c8383610c71565b60208301905092915050565b6000602082019050919050565b6000610cb082610c45565b610cba8185610c50565b9350610cc583610c61565b8060005b83811015610cf6578151610cdd8882610c80565b9750610ce883610c98565b925050600181019050610cc9565b5085935050505092915050565b60006020820190508181036000830152610d1d8184610ca5565b905092915050565b6000819050919050565b610d3881610d25565b8114610d4357600080fd5b50565b600081359050610d5581610d2f565b92915050565b600060208284031215610d7157610d706109ae565b5b6000610d7f84828501610d46565b91505092915050565b600082825260208201905092915050565b7f4e6f20666f756e64657273000000000000000000000000000000000000000000600082015250565b6000610dcf600b83610d88565b9150610dda82610d99565b602082019050919050565b60006020820190508181036000830152610dfe81610dc2565b9050919050565b7f4e487b7100000000000000000000000000000000000000000000000000000000600052603260045260246000fd5b6000819050919050565b600067ffffffffffffffff82169050919050565b6000819050919050565b6000610e77610e72610e6d84610e34565b610e52565b610e3e565b9050919050565b610e8781610e5c565b82525050565b6000602082019050610ea26000830184610e7e565b9291505056fea264697066735822122057f44c5c6293ade054fa0245b1a2436269b41d44daf80b4a1362c31963d4d62164736f6c634300081c0033",
  "linkReferences": {},
  "deployedLinkReferences": {}
}