{
  "_format": "hh-sol-artifact-1",
  "contractName": "HolacracyOrganizationFactoryImplementation",
  "sourceName": "contracts/HolacracyOrganizationFactoryImplementation.sol",
  "abi": [
    {
      "inputs": [],
      "name": "InvalidInitialization",
      "type": "error"
    },
    {
      "inputs": [],
      "name": "NotInitializing",
      "type": "error"
    },
    {
      "inputs": [
        {
          "internalType": "address",
          "name": "owner",
          "type": "address"
        }
      ],
      "name": "OwnableInvalidOwner",
      "type": "error"
    },
    {
      "inputs": [
        {
          "internalType": "address",
          "name": "account",
          "type": "address"
        }
      ],
      "name": "OwnableUnauthorizedAccount",
      "type": "error"
    },
    {
      "anonymous": false,
      "inputs": [
        {
          "indexed": false,
          "internalType": "uint64",
          "name": "version",
          "type": "uint64"
        }
      ],
      "name": "Initialized",
      "type": "event"
    },
    {
      "anonymous": false,
      "inputs": [
        {
          "indexed": true,
          "internalType": "uint256",
          "name": "metadataId",
          "type": "uint256"
        },
        {
          "indexed": false,
          "internalType": "address",
          "name": "org",
          "type": "address"
        }
      ],
      "name": "OrganizationDeployed",
      "type": "event"
    },
    {
      "anonymous": false,
      "inputs": [
        {
          "indexed": true,
          "internalType": "uint256",
          "name": "id",
          "type": "uint256"
        },
        {
          "indexed": false,
          "internalType": "string",
          "name": "name",
          "type": "string"
        },
        {
          "indexed": false,
          "internalType": "string",
          "name": "purpose",
          "type": "string"
        },
        {
          "indexed": false,
          "internalType": "address",
          "name": "creator",
          "type": "address"
        }
      ],
      "name": "OrganizationMetadataCreated",
      "type": "event"
    },
    {
      "anonymous": false,
      "inputs": [
        {
          "indexed": true,
          "internalType": "address",
          "name": "previousOwner",
          "type": "address"
        },
        {
          "indexed": true,
          "internalType": "address",
          "name": "newOwner",
          "type": "address"
        }
      ],
      "name": "OwnershipTransferred",
      "type": "event"
    },
    {
      "inputs": [
        {
          "internalType": "string",
          "name": "name",
          "type": "string"
        },
        {
          "internalType": "string",
          "name": "purpose",
          "type": "string"
        }
      ],
      "name": "createAndLaunchOrganization",
      "outputs": [
        {
          "internalType": "address",
          "name": "org",
          "type": "address"
        }
      ],
      "stateMutability": "nonpayable",
      "type": "function"
    },
    {
      "inputs": [],
      "name": "getOrganizationListCount",
      "outputs": [
        {
          "internalType": "uint256",
          "name": "",
          "type": "uint256"
        }
      ],
      "stateMutability": "view",
      "type": "function"
    },
    {
      "inputs": [
        {
          "internalType": "uint256",
          "name": "i",
          "type": "uint256"
        }
      ],
      "name": "getOrganizationMetadata",
      "outputs": [
        {
          "internalType": "string",
          "name": "name",
          "type": "string"
        },
        {
          "internalType": "string",
          "name": "purpose",
          "type": "string"
        },
        {
          "internalType": "address",
          "name": "creator",
          "type": "address"
        },
        {
          "internalType": "address",
          "name": "orgAddress",
          "type": "address"
        }
      ],
      "stateMutability": "view",
      "type": "function"
    },
    {
      "inputs": [
        {
          "internalType": "address",
          "name": "_organizationBeacon",
          "type": "address"
        },
        {
          "internalType": "address",
          "name": "_owner",
          "type": "address"
        }
      ],
      "name": "initialize",
      "outputs": [],
      "stateMutability": "nonpayable",
      "type": "function"
    },
    {
      "inputs": [],
      "name": "organizationBeacon",
      "outputs": [
        {
          "internalType": "address",
          "name": "",
          "type": "address"
        }
      ],
      "stateMutability": "view",
      "type": "function"
    },
    {
      "inputs": [
        {
          "internalType": "uint256",
          "name": "",
          "type": "uint256"
        }
      ],
      "name": "organizationList",
      "outputs": [
        {
          "internalType": "string",
          "name": "name",
          "type": "string"
        },
        {
          "internalType": "string",
          "name": "purpose",
          "type": "string"
        },
        {
          "internalType": "address",
          "name": "creator",
          "type": "address"
        },
        {
          "internalType": "address",
          "name": "orgAddress",
          "type": "address"
        }
      ],
      "stateMutability": "view",
      "type": "function"
    },
    {
      "inputs": [],
      "name": "owner",
      "outputs": [
        {
          "internalType": "address",
          "name": "",
          "type": "address"
        }
      ],
      "stateMutability": "view",
      "type": "function"
    },
    {
      "inputs": [],
      "name": "renounceOwnership",
      "outputs": [],
      "stateMutability": "nonpayable",
      "type": "function"
    },
    {
      "inputs": [
        {
          "internalType": "address",
          "name": "newBeacon",
          "type": "address"
        }
      ],
      "name": "setOrganizationBeacon",
      "outputs": [],
      "stateMutability": "nonpayable",
      "type": "function"
    },
    {
      "inputs": [
        {
          "internalType": "address",
          "name": "newOwner",
          "type": "address"
        }
      ],
      "name": "transferOwnership",
      "outputs": [],
      "stateMutability": "nonpayable",
      "type": "function"
    }
  ],
  "bytecode": "0x6080604052348015600f57600080fd5b5061214e8061001f6000396000f3fe608060405234801561001057600080fd5b506004361061009e5760003560e01c80638da5cb5b116100665780638da5cb5b1461014857806392ff68bd146101665780639a3bdce014610184578063ac3b3fef146101a2578063f2fde38b146101d55761009e565b80630e595401146100a35780632e498df5146100d3578063318f95a214610106578063485cc95514610122578063715018a61461013e575b600080fd5b6100bd60048036038101906100b89190610f70565b6101f1565b6040516100ca9190611029565b60405180910390f35b6100ed60048036038101906100e8919061107a565b610436565b6040516100fd9493929190611126565b60405180910390f35b610120600480360381019061011b91906111a5565b6105c6565b005b61013c600480360381019061013791906111d2565b610681565b005b610146610852565b005b610150610866565b60405161015d9190611029565b60405180910390f35b61016e61089e565b60405161017b9190611029565b60405180910390f35b61018c6108c4565b6040516101999190611221565b60405180910390f35b6101bc60048036038101906101b7919061107a565b6108d0565b6040516101cc9493929190611126565b60405180910390f35b6101ef60048036038101906101ea91906111a5565b610abc565b005b60008060006001816001815401808255809150500390600052602060002090600402019050838160000190816102279190611448565b50828160010190816102399190611448565b50338160020160006101000a81548173ffffffffffffffffffffffffffffffffffffffff021916908373ffffffffffffffffffffffffffffffffffffffff160217905550600063077f224a60e01b85853360405160240161029c9392919061151a565b604051602081830303815290604052907bffffffffffffffffffffffffffffffffffffffffffffffffffffffff19166020820180517bffffffffffffffffffffffffffffffffffffffffffffffffffffffff83818316178352505050509050600160009054906101000a900473ffffffffffffffffffffffffffffffffffffffff168160405161032b90610e09565b6103369291906115b4565b604051809103906000f080158015610352573d6000803e3d6000fd5b509250828260030160006101000a81548173ffffffffffffffffffffffffffffffffffffffff021916908373ffffffffffffffffffffffffffffffffffffffff16021790555060016000805490506103aa9190611613565b7fb0e14c9e03594dd743f244b66f687b0196aec8dfe3abc26015a69c9efa7846278686336040516103dd9392919061151a565b60405180910390a260016000805490506103f79190611613565b7f6a12a4da47030a4615d8a66911759e5ceb9599e0bc6461f6c90d49d62a09e83a846040516104269190611029565b60405180910390a2505092915050565b6000818154811061044657600080fd5b90600052602060002090600402016000915090508060000180546104699061126b565b80601f01602080910402602001604051908101604052809291908181526020018280546104959061126b565b80156104e25780601f106104b7576101008083540402835291602001916104e2565b820191906000526020600020905b8154815290600101906020018083116104c557829003601f168201915b5050505050908060010180546104f79061126b565b80601f01602080910402602001604051908101604052809291908181526020018280546105239061126b565b80156105705780601f1061054557610100808354040283529160200191610570565b820191906000526020600020905b81548152906001019060200180831161055357829003601f168201915b5050505050908060020160009054906101000a900473ffffffffffffffffffffffffffffffffffffffff16908060030160009054906101000a900473ffffffffffffffffffffffffffffffffffffffff16905084565b6105ce610b42565b600073ffffffffffffffffffffffffffffffffffffffff168173ffffffffffffffffffffffffffffffffffffffff160361063d576040517f08c379a000000000000000000000000000000000000000000000000000000000815260040161063490611693565b60405180910390fd5b80600160006101000a81548173ffffffffffffffffffffffffffffffffffffffff021916908373ffffffffffffffffffffffffffffffffffffffff16021790555050565b600061068b610bc9565b905060008160000160089054906101000a900460ff1615905060008260000160009054906101000a900467ffffffffffffffff1690506000808267ffffffffffffffff161480156106d95750825b9050600060018367ffffffffffffffff1614801561070e575060003073ffffffffffffffffffffffffffffffffffffffff163b145b90508115801561071c575080155b15610753576040517ff92ee8a900000000000000000000000000000000000000000000000000000000815260040160405180910390fd5b60018560000160006101000a81548167ffffffffffffffff021916908367ffffffffffffffff16021790555083156107a35760018560000160086101000a81548160ff0219169083151502179055505b6107ac86610bdd565b86600160006101000a81548173ffffffffffffffffffffffffffffffffffffffff021916908373ffffffffffffffffffffffffffffffffffffffff16021790555083156108495760008560000160086101000a81548160ff0219169083151502179055507fc7f505b2f371ae2175ee4913f4499e1f2633a7b5936321eed1cdaeb6115181d260016040516108409190611702565b60405180910390a15b50505050505050565b61085a610b42565b6108646000610bf1565b565b600080610871610cc8565b90508060000160009054906101000a900473ffffffffffffffffffffffffffffffffffffffff1691505090565b600160009054906101000a900473ffffffffffffffffffffffffffffffffffffffff1681565b60008080549050905090565b606080600080600080549050851061091d576040517f08c379a000000000000000000000000000000000000000000000000000000000815260040161091490611769565b60405180910390fd5b600080868154811061093257610931611789565b5b9060005260206000209060040201905080600001816001018260020160009054906101000a900473ffffffffffffffffffffffffffffffffffffffff168360030160009054906101000a900473ffffffffffffffffffffffffffffffffffffffff168380546109a09061126b565b80601f01602080910402602001604051908101604052809291908181526020018280546109cc9061126b565b8015610a195780601f106109ee57610100808354040283529160200191610a19565b820191906000526020600020905b8154815290600101906020018083116109fc57829003601f168201915b50505050509350828054610a2c9061126b565b80601f0160208091040260200160405190810160405280929190818152602001828054610a589061126b565b8015610aa55780601f10610a7a57610100808354040283529160200191610aa5565b820191906000526020600020905b815481529060010190602001808311610a8857829003601f168201915b505050505092509450945094509450509193509193565b610ac4610b42565b600073ffffffffffffffffffffffffffffffffffffffff168173ffffffffffffffffffffffffffffffffffffffff1603610b365760006040517f1e4fbdf7000000000000000000000000000000000000000000000000000000008152600401610b2d9190611029565b60405180910390fd5b610b3f81610bf1565b50565b610b4a610cf0565b73ffffffffffffffffffffffffffffffffffffffff16610b68610866565b73ffffffffffffffffffffffffffffffffffffffff1614610bc757610b8b610cf0565b6040517f118cdaa7000000000000000000000000000000000000000000000000000000008152600401610bbe9190611029565b60405180910390fd5b565b600080610bd4610cf8565b90508091505090565b610be5610d23565b610bee81610d63565b50565b6000610bfb610cc8565b905060008160000160009054906101000a900473ffffffffffffffffffffffffffffffffffffffff169050828260000160006101000a81548173ffffffffffffffffffffffffffffffffffffffff021916908373ffffffffffffffffffffffffffffffffffffffff1602179055508273ffffffffffffffffffffffffffffffffffffffff168173ffffffffffffffffffffffffffffffffffffffff167f8be0079c531659141344cd1fd0a4f28419497f9722a3daafe3b4186f6b6457e060405160405180910390a3505050565b60007f9016d09d72d40fdae2fd8ceac6b6234c7706214fd39c1cd1e609a0528c199300905090565b600033905090565b60007ff0c57e16840df040f15088dc2f81fe391c3923bec73e23a9662efc9c229c6a0060001b905090565b610d2b610de9565b610d61576040517fd7e6bcf800000000000000000000000000000000000000000000000000000000815260040160405180910390fd5b565b610d6b610d23565b600073ffffffffffffffffffffffffffffffffffffffff168173ffffffffffffffffffffffffffffffffffffffff1603610ddd5760006040517f1e4fbdf7000000000000000000000000000000000000000000000000000000008152600401610dd49190611029565b60405180910390fd5b610de681610bf1565b50565b6000610df3610bc9565b60000160089054906101000a900460ff16905090565b610960806117b983390190565b6000604051905090565b600080fd5b600080fd5b600080fd5b600080fd5b6000601f19601f8301169050919050565b7f4e487b7100000000000000000000000000000000000000000000000000000000600052604160045260246000fd5b610e7d82610e34565b810181811067ffffffffffffffff82111715610e9c57610e9b610e45565b5b80604052505050565b6000610eaf610e16565b9050610ebb8282610e74565b919050565b600067ffffffffffffffff821115610edb57610eda610e45565b5b610ee482610e34565b9050602081019050919050565b82818337600083830152505050565b6000610f13610f0e84610ec0565b610ea5565b905082815260208101848484011115610f2f57610f2e610e2f565b5b610f3a848285610ef1565b509392505050565b600082601f830112610f5757610f56610e2a565b5b8135610f67848260208601610f00565b91505092915050565b60008060408385031215610f8757610f86610e20565b5b600083013567ffffffffffffffff811115610fa557610fa4610e25565b5b610fb185828601610f42565b925050602083013567ffffffffffffffff811115610fd257610fd1610e25565b5b610fde85828601610f42565b9150509250929050565b600073ffffffffffffffffffffffffffffffffffffffff82169050919050565b600061101382610fe8565b9050919050565b61102381611008565b82525050565b600060208201905061103e600083018461101a565b92915050565b6000819050919050565b61105781611044565b811461106257600080fd5b50565b6000813590506110748161104e565b92915050565b6000602082840312156110905761108f610e20565b5b600061109e84828501611065565b91505092915050565b600081519050919050565b600082825260208201905092915050565b60005b838110156110e15780820151818401526020810190506110c6565b60008484015250505050565b60006110f8826110a7565b61110281856110b2565b93506111128185602086016110c3565b61111b81610e34565b840191505092915050565b6000608082019050818103600083015261114081876110ed565b9050818103602083015261115481866110ed565b9050611163604083018561101a565b611170606083018461101a565b95945050505050565b61118281611008565b811461118d57600080fd5b50565b60008135905061119f81611179565b92915050565b6000602082840312156111bb576111ba610e20565b5b60006111c984828501611190565b91505092915050565b600080604083850312156111e9576111e8610e20565b5b60006111f785828601611190565b925050602061120885828601611190565b9150509250929050565b61121b81611044565b82525050565b60006020820190506112366000830184611212565b92915050565b7f4e487b7100000000000000000000000000000000000000000000000000000000600052602260045260246000fd5b6000600282049050600182168061128357607f821691505b6020821081036112965761129561123c565b5b50919050565b60008190508160005260206000209050919050565b60006020601f8301049050919050565b600082821b905092915050565b6000600883026112fe7fffffffffffffffffffffffffffffffffffffffffffffffffffffffffffffffff826112c1565b61130886836112c1565b95508019841693508086168417925050509392505050565b6000819050919050565b600061134561134061133b84611044565b611320565b611044565b9050919050565b6000819050919050565b61135f8361132a565b61137361136b8261134c565b8484546112ce565b825550505050565b600090565b61138861137b565b611393818484611356565b505050565b5b818110156113b7576113ac600082611380565b600181019050611399565b5050565b601f8211156113fc576113cd8161129c565b6113d6846112b1565b810160208510156113e5578190505b6113f96113f1856112b1565b830182611398565b50505b505050565b600082821c905092915050565b600061141f60001984600802611401565b1980831691505092915050565b6000611438838361140e565b9150826002028217905092915050565b611451826110a7565b67ffffffffffffffff81111561146a57611469610e45565b5b611474825461126b565b61147f8282856113bb565b600060209050601f8311600181146114b257600084156114a0578287015190505b6114aa858261142c565b865550611512565b601f1984166114c08661129c565b60005b828110156114e8578489015182556001820191506020850194506020810190506114c3565b868310156115055784890151611501601f89168261140e565b8355505b6001600288020188555050505b505050505050565b6000606082019050818103600083015261153481866110ed565b9050818103602083015261154881856110ed565b9050611557604083018461101a565b949350505050565b600081519050919050565b600082825260208201905092915050565b60006115868261155f565b611590818561156a565b93506115a08185602086016110c3565b6115a981610e34565b840191505092915050565b60006040820190506115c9600083018561101a565b81810360208301526115db818461157b565b90509392505050565b7f4e487b7100000000000000000000000000000000000000000000000000000000600052601160045260246000fd5b600061161e82611044565b915061162983611044565b9250828203905081811115611641576116406115e4565b5b92915050565b7f496e76616c696420616464726573730000000000000000000000000000000000600082015250565b600061167d600f836110b2565b915061168882611647565b602082019050919050565b600060208201905081810360008301526116ac81611670565b9050919050565b6000819050919050565b600067ffffffffffffffff82169050919050565b60006116ec6116e76116e2846116b3565b611320565b6116bd565b9050919050565b6116fc816116d1565b82525050565b600060208201905061171760008301846116f3565b92915050565b7f4f7267616e697a6174696f6e20646f6573206e6f742065786973740000000000600082015250565b6000611753601b836110b2565b915061175e8261171d565b602082019050919050565b6000602082019050818103600083015261178281611746565b9050919050565b7f4e487b7100000000000000000000000000000000000000000000000000000000600052603260045260246000fdfe60a060405260405161096038038061096083398181016040528101906100259190610684565b610035828261007060201b60201c565b8173ffffffffffffffffffffffffffffffffffffffff1660808173ffffffffffffffffffffffffffffffffffffffff16815250505050610795565b61007f8261016360201b60201c565b8173ffffffffffffffffffffffffffffffffffffffff167f1cf3b03a6cf19fa2baba4df148e9dcabedea7f8a5c07840e207e5c089be95d3e60405160405180910390a26000815111156101505761014a8273ffffffffffffffffffffffffffffffffffffffff16635c60da1b6040518163ffffffff1660e01b8152600401602060405180830381865afa15801561011a573d6000803e3d6000fd5b505050506040513d601f19601f8201168201806040525081019061013e91906106e0565b8261030660201b60201c565b5061015f565b61015e61039060201b60201c565b5b5050565b60008173ffffffffffffffffffffffffffffffffffffffff163b036101bf57806040517f64ced0ec0000000000000000000000000000000000000000000000000000000081526004016101b6919061071c565b60405180910390fd5b806101f27fa3f0ad74e5423aebfd80d3ef4346578335a9a72aeaee59ff6cb3582b35133d5060001b6103cd60201b60201c565b60000160006101000a81548173ffffffffffffffffffffffffffffffffffffffff021916908373ffffffffffffffffffffffffffffffffffffffff16021790555060008173ffffffffffffffffffffffffffffffffffffffff16635c60da1b6040518163ffffffff1660e01b8152600401602060405180830381865afa158015610280573d6000803e3d6000fd5b505050506040513d601f19601f820116820180604052508101906102a491906106e0565b905060008173ffffffffffffffffffffffffffffffffffffffff163b0361030257806040517f4c9c8ce30000000000000000000000000000000000000000000000000000000081526004016102f9919061071c565b60405180910390fd5b5050565b60606000808473ffffffffffffffffffffffffffffffffffffffff1684604051610330919061077e565b600060405180830381855af49150503d806000811461036b576040519150601f19603f3d011682016040523d82523d6000602084013e610370565b606091505b50915091506103868583836103d760201b60201c565b9250505092915050565b60003411156103cb576040517fb398979f00000000000000000000000000000000000000000000000000000000815260040160405180910390fd5b565b6000819050919050565b6060826103f2576103ed8261046c60201b60201c565b610464565b6000825114801561041a575060008473ffffffffffffffffffffffffffffffffffffffff163b145b1561045c57836040517f9996b315000000000000000000000000000000000000000000000000000000008152600401610453919061071c565b60405180910390fd5b819050610465565b5b9392505050565b60008151111561047f5780518082602001fd5b6040517fd6bda27500000000000000000000000000000000000000000000000000000000815260040160405180910390fd5b6000604051905090565b600080fd5b600080fd5b600073ffffffffffffffffffffffffffffffffffffffff82169050919050565b60006104f0826104c5565b9050919050565b610500816104e5565b811461050b57600080fd5b50565b60008151905061051d816104f7565b92915050565b600080fd5b600080fd5b6000601f19601f8301169050919050565b7f4e487b7100000000000000000000000000000000000000000000000000000000600052604160045260246000fd5b6105768261052d565b810181811067ffffffffffffffff821117156105955761059461053e565b5b80604052505050565b60006105a86104b1565b90506105b4828261056d565b919050565b600067ffffffffffffffff8211156105d4576105d361053e565b5b6105dd8261052d565b9050602081019050919050565b60005b838110156106085780820151818401526020810190506105ed565b60008484015250505050565b6000610627610622846105b9565b61059e565b90508281526020810184848401111561064357610642610528565b5b61064e8482856105ea565b509392505050565b600082601f83011261066b5761066a610523565b5b815161067b848260208601610614565b91505092915050565b6000806040838503121561069b5761069a6104bb565b5b60006106a98582860161050e565b925050602083015167ffffffffffffffff8111156106ca576106c96104c0565b5b6106d685828601610656565b9150509250929050565b6000602082840312156106f6576106f56104bb565b5b60006107048482850161050e565b91505092915050565b610716816104e5565b82525050565b6000602082019050610731600083018461070d565b92915050565b600081519050919050565b600081905092915050565b600061075882610737565b6107628185610742565b93506107728185602086016105ea565b80840191505092915050565b600061078a828461074d565b915081905092915050565b6080516101b16107af600039600060c701526101b16000f3fe608060405261000c61000e565b005b61001e610019610020565b61009d565b565b600061002a6100c3565b73ffffffffffffffffffffffffffffffffffffffff16635c60da1b6040518163ffffffff1660e01b8152600401602060405180830381865afa158015610074573d6000803e3d6000fd5b505050506040513d601f19601f82011682018060405250810190610098919061014e565b905090565b3660008037600080366000845af43d6000803e80600081146100be573d6000f35b3d6000fd5b60007f0000000000000000000000000000000000000000000000000000000000000000905090565b600080fd5b600073ffffffffffffffffffffffffffffffffffffffff82169050919050565b600061011b826100f0565b9050919050565b61012b81610110565b811461013657600080fd5b50565b60008151905061014881610122565b92915050565b600060208284031215610164576101636100eb565b5b600061017284828501610139565b9150509291505056fea2646970667358221220237b08b82bfdd9e58ac7659658075725b1f659b7cbd1785c094cb67c3b15ac5f64736f6c634300081d0033a2646970667358221220db628da8ae797a555f98decd45bcd1c55b9f6b043e62ba400a11a5fbc3cfd76764736f6c634300081d0033",
  "linkReferences": {},
  "deployedLinkReferences": {}
}