{
  "_format": "hh-sol-artifact-1",
  "contractName": "HolacracyOrganizationImplementation",
  "sourceName": "contracts/HolacracyOrganizationImplementation.sol",
  "abi": [
    {
      "inputs": [],
      "stateMutability": "nonpayable",
      "type": "constructor"
    },
    {
      "inputs": [],
      "name": "InvalidInitialization",
      "type": "error"
    },
    {
      "inputs": [],
      "name": "NotInitializing",
      "type": "error"
    },
    {
      "anonymous": false,
      "inputs": [
        {
          "indexed": true,
          "internalType": "address",
          "name": "signer",
          "type": "address"
        },
        {
          "indexed": false,
          "internalType": "string",
          "name": "documentHash",
          "type": "string"
        },
        {
          "indexed": false,
          "internalType": "string",
          "name": "signatureHash",
          "type": "string"
        },
        {
          "indexed": false,
          "internalType": "uint256",
          "name": "timestamp",
          "type": "uint256"
        }
      ],
      "name": "ConstitutionSigned",
      "type": "event"
    },
    {
      "anonymous": false,
      "inputs": [
        {
          "indexed": false,
          "internalType": "uint64",
          "name": "version",
          "type": "uint64"
        }
      ],
      "name": "Initialized",
      "type": "event"
    },
    {
      "anonymous": false,
      "inputs": [
        {
          "indexed": false,
          "internalType": "string",
          "name": "newName",
          "type": "string"
        },
        {
          "indexed": false,
          "internalType": "string",
          "name": "newPurpose",
          "type": "string"
        }
      ],
      "name": "NameAndPurposeUpdated",
      "type": "event"
    },
    {
      "anonymous": false,
      "inputs": [
        {
          "indexed": false,
          "internalType": "string",
          "name": "newName",
          "type": "string"
        }
      ],
      "name": "NameUpdated",
      "type": "event"
    },
    {
      "anonymous": false,
      "inputs": [
        {
          "indexed": true,
          "internalType": "address",
          "name": "archivedBy",
          "type": "address"
        }
      ],
      "name": "OrganizationArchived",
      "type": "event"
    },
    {
      "anonymous": false,
      "inputs": [
        {
          "indexed": true,
          "internalType": "address",
          "name": "unarchivedBy",
          "type": "address"
        }
      ],
      "name": "OrganizationUnarchived",
      "type": "event"
    },
    {
      "anonymous": false,
      "inputs": [
        {
          "indexed": true,
          "internalType": "address",
          "name": "partner",
          "type": "address"
        }
      ],
      "name": "PartnerAdded",
      "type": "event"
    },
    {
      "anonymous": false,
      "inputs": [
        {
          "indexed": true,
          "internalType": "address",
          "name": "partner",
          "type": "address"
        }
      ],
      "name": "PartnerRemoved",
      "type": "event"
    },
    {
      "anonymous": false,
      "inputs": [
        {
          "indexed": false,
          "internalType": "string",
          "name": "newPurpose",
          "type": "string"
        }
      ],
      "name": "PurposeUpdated",
      "type": "event"
    },
    {
      "inputs": [],
      "name": "archiveOrganization",
      "outputs": [],
      "stateMutability": "nonpayable",
      "type": "function"
    },
    {
      "inputs": [],
      "name": "archived",
      "outputs": [
        {
          "internalType": "bool",
          "name": "",
          "type": "bool"
        }
      ],
      "stateMutability": "view",
      "type": "function"
    },
    {
      "inputs": [
        {
          "internalType": "address",
          "name": "",
          "type": "address"
        }
      ],
      "name": "constitutionSignatures",
      "outputs": [
        {
          "internalType": "string",
          "name": "documentHash",
          "type": "string"
        },
        {
          "internalType": "string",
          "name": "signatureHash",
          "type": "string"
        },
        {
          "internalType": "uint256",
          "name": "timestamp",
          "type": "uint256"
        },
        {
          "internalType": "string",
          "name": "constitutionVersion",
          "type": "string"
        },
        {
          "internalType": "string",
          "name": "consentStatement",
          "type": "string"
        },
        {
          "internalType": "address",
          "name": "signer",
          "type": "address"
        }
      ],
      "stateMutability": "view",
      "type": "function"
    },
    {
      "inputs": [
        {
          "internalType": "uint256",
          "name": "",
          "type": "uint256"
        }
      ],
      "name": "constitutionSigners",
      "outputs": [
        {
          "internalType": "address",
          "name": "",
          "type": "address"
        }
      ],
      "stateMutability": "view",
      "type": "function"
    },
    {
      "inputs": [],
      "name": "creator",
      "outputs": [
        {
          "internalType": "address",
          "name": "",
          "type": "address"
        }
      ],
      "stateMutability": "view",
      "type": "function"
    },
    {
      "inputs": [],
      "name": "getConstitutionSigners",
      "outputs": [
        {
          "internalType": "address[]",
          "name": "",
          "type": "address[]"
        }
      ],
      "stateMutability": "view",
      "type": "function"
    },
    {
      "inputs": [],
      "name": "getPartners",
      "outputs": [
        {
          "internalType": "address[]",
          "name": "",
          "type": "address[]"
        }
      ],
      "stateMutability": "view",
      "type": "function"
    },
    {
      "inputs": [
        {
          "internalType": "address",
          "name": "",
          "type": "address"
        }
      ],
      "name": "hasSignedConstitution",
      "outputs": [
        {
          "internalType": "bool",
          "name": "",
          "type": "bool"
        }
      ],
      "stateMutability": "view",
      "type": "function"
    },
    {
      "inputs": [
        {
          "internalType": "string",
          "name": "_name",
          "type": "string"
        },
        {
          "internalType": "string",
          "name": "_purpose",
          "type": "string"
        },
        {
          "internalType": "address",
          "name": "_creator",
          "type": "address"
        }
      ],
      "name": "initialize",
      "outputs": [],
      "stateMutability": "nonpayable",
      "type": "function"
    },
    {
      "inputs": [],
      "name": "name",
      "outputs": [
        {
          "internalType": "string",
          "name": "",
          "type": "string"
        }
      ],
      "stateMutability": "view",
      "type": "function"
    },
    {
      "inputs": [],
      "name": "purpose",
      "outputs": [
        {
          "internalType": "string",
          "name": "",
          "type": "string"
        }
      ],
      "stateMutability": "view",
      "type": "function"
    },
    {
      "inputs": [
        {
          "internalType": "string",
          "name": "documentHash",
          "type": "string"
        },
        {
          "internalType": "string",
          "name": "signatureHash",
          "type": "string"
        },
        {
          "internalType": "string",
          "name": "constitutionVersion",
          "type": "string"
        },
        {
          "internalType": "string",
          "name": "consentStatement",
          "type": "string"
        }
      ],
      "name": "signConstitutionWithDocument",
      "outputs": [],
      "stateMutability": "nonpayable",
      "type": "function"
    },
    {
      "inputs": [],
      "name": "unarchiveOrganization",
      "outputs": [],
      "stateMutability": "nonpayable",
      "type": "function"
    },
    {
      "inputs": [
        {
          "internalType": "string",
          "name": "newName",
          "type": "string"
        }
      ],
      "name": "updateName",
      "outputs": [],
      "stateMutability": "nonpayable",
      "type": "function"
    },
    {
      "inputs": [
        {
          "internalType": "string",
          "name": "newName",
          "type": "string"
        },
        {
          "internalType": "string",
          "name": "newPurpose",
          "type": "string"
        }
      ],
      "name": "updateNameAndPurpose",
      "outputs": [],
      "stateMutability": "nonpayable",
      "type": "function"
    },
    {
      "inputs": [
        {
          "internalType": "string",
          "name": "newPurpose",
          "type": "string"
        }
      ],
      "name": "updatePurpose",
      "outputs": [],
      "stateMutability": "nonpayable",
      "type": "function"
    }
  ],
  "bytecode": "0x608060405234801561001057600080fd5b5061001f61002460201b60201c565b6101ab565b600061003461012860201b60201c565b90508060000160089054906101000a900460ff161561007f576040517ff92ee8a900000000000000000000000000000000000000000000000000000000815260040160405180910390fd5b67ffffffffffffffff80168160000160009054906101000a900467ffffffffffffffff1667ffffffffffffffff16146101255767ffffffffffffffff8160000160006101000a81548167ffffffffffffffff021916908367ffffffffffffffff1602179055507fc7f505b2f371ae2175ee4913f4499e1f2633a7b5936321eed1cdaeb6115181d267ffffffffffffffff60405161011c9190610190565b60405180910390a15b50565b60008061013961014260201b60201c565b90508091505090565b60007ff0c57e16840df040f15088dc2f81fe391c3923bec73e23a9662efc9c229c6a0060001b905090565b600067ffffffffffffffff82169050919050565b61018a8161016d565b82525050565b60006020820190506101a56000830184610181565b92915050565b612a27806101ba6000396000f3fe608060405234801561001057600080fd5b50600436106101005760003560e01c806373e29b0d11610097578063a088d5e011610066578063a088d5e01461024d578063b996457d1461027d578063c57e2218146102b2578063fbdcd7c8146102d057610100565b806373e29b0d146101c757806374d9e1f5146101e557806384da92a71461021557806396b1cf281461023157610100565b80631df948c5116100d35780631df948c51461016757806327d34d0d1461018357806354488a4e1461018d57806370740aab146101a957610100565b806302d05d3f14610105578063058cc4e81461012357806306fdde031461012d578063077f224a1461014b575b600080fd5b61010d6102ee565b60405161011a919061173a565b60405180910390f35b61012b610314565b005b610135610453565b60405161014291906117e5565b60405180910390f35b6101656004803603810190610160919061197c565b6104e1565b005b610181600480360381019061017c9190611a07565b6107dc565b005b61018b610c4d565b005b6101a760048036038101906101a29190611ade565b610d8d565b005b6101b1610f4e565b6040516101be91906117e5565b60405180910390f35b6101cf610fdc565b6040516101dc9190611c14565b60405180910390f35b6101ff60048036038101906101fa9190611c6c565b61106a565b60405161020c919061173a565b60405180910390f35b61022f600480360381019061022a9190611c99565b6110a9565b005b61024b60048036038101906102469190611c99565b611213565b005b61026760048036038101906102629190611ce2565b61137d565b6040516102749190611d2a565b60405180910390f35b61029760048036038101906102929190611ce2565b61139d565b6040516102a996959493929190611d54565b60405180910390f35b6102ba611619565b6040516102c79190611c14565b60405180910390f35b6102d86116a7565b6040516102e59190611d2a565b60405180910390f35b600260009054906101000a900473ffffffffffffffffffffffffffffffffffffffff1681565b600260009054906101000a900473ffffffffffffffffffffffffffffffffffffffff1673ffffffffffffffffffffffffffffffffffffffff163373ffffffffffffffffffffffffffffffffffffffff16146103a4576040517f08c379a000000000000000000000000000000000000000000000000000000000815260040161039b90611e43565b60405180910390fd5b600260149054906101000a900460ff166103f3576040517f08c379a00000000000000000000000000000000000000000000000000000000081526004016103ea90611eaf565b60405180910390fd5b6000600260146101000a81548160ff0219169083151502179055503373ffffffffffffffffffffffffffffffffffffffff167fda8e58bb20a1f8d8dc969cd17126e9fadc5406cd1c8b3263f4206ad37b82fe7660405160405180910390a2565b6000805461046090611efe565b80601f016020809104026020016040519081016040528092919081815260200182805461048c90611efe565b80156104d95780601f106104ae576101008083540402835291602001916104d9565b820191906000526020600020905b8154815290600101906020018083116104bc57829003601f168201915b505050505081565b60006104eb6116ba565b905060008160000160089054906101000a900460ff1615905060008260000160009054906101000a900467ffffffffffffffff1690506000808267ffffffffffffffff161480156105395750825b9050600060018367ffffffffffffffff1614801561056e575060003073ffffffffffffffffffffffffffffffffffffffff163b145b90508115801561057c575080155b156105b3576040517ff92ee8a900000000000000000000000000000000000000000000000000000000815260040160405180910390fd5b60018560000160006101000a81548167ffffffffffffffff021916908367ffffffffffffffff16021790555083156106035760018560000160086101000a81548160ff0219169083151502179055505b6000885111610647576040517f08c379a000000000000000000000000000000000000000000000000000000000815260040161063e90611f7b565b60405180910390fd5b600087511161068b576040517f08c379a000000000000000000000000000000000000000000000000000000000815260040161068290611fe7565b60405180910390fd5b600073ffffffffffffffffffffffffffffffffffffffff168673ffffffffffffffffffffffffffffffffffffffff16036106fa576040517f08c379a00000000000000000000000000000000000000000000000000000000081526004016106f190612053565b60405180910390fd5b8760009081610709919061221f565b508660019081610719919061221f565b5085600260006101000a81548173ffffffffffffffffffffffffffffffffffffffff021916908373ffffffffffffffffffffffffffffffffffffffff1602179055506000600260146101000a81548160ff02191690831515021790555083156107d25760008560000160086101000a81548160ff0219169083151502179055507fc7f505b2f371ae2175ee4913f4499e1f2633a7b5936321eed1cdaeb6115181d260016040516107c99190612340565b60405180910390a15b5050505050505050565b600260149054906101000a900460ff161561082c576040517f08c379a0000000000000000000000000000000000000000000000000000000008152600401610823906123cd565b60405180910390fd5b600360003373ffffffffffffffffffffffffffffffffffffffff1673ffffffffffffffffffffffffffffffffffffffff16815260200190815260200160002060009054906101000a900460ff16156108b9576040517f08c379a00000000000000000000000000000000000000000000000000000000081526004016108b090612439565b60405180910390fd5b60008451116108fd576040517f08c379a00000000000000000000000000000000000000000000000000000000081526004016108f4906124a5565b60405180910390fd5b6000835111610941576040517f08c379a000000000000000000000000000000000000000000000000000000000815260040161093890612511565b60405180910390fd5b6000825111610985576040517f08c379a000000000000000000000000000000000000000000000000000000000815260040161097c906125a3565b60405180910390fd5b60008151116109c9576040517f08c379a00000000000000000000000000000000000000000000000000000000081526004016109c090612635565b60405180910390fd5b6040518060c001604052808581526020018481526020014281526020018381526020018281526020013373ffffffffffffffffffffffffffffffffffffffff16815250600460003373ffffffffffffffffffffffffffffffffffffffff1673ffffffffffffffffffffffffffffffffffffffff1681526020019081526020016000206000820151816000019081610a60919061221f565b506020820151816001019081610a76919061221f565b50604082015181600201556060820151816003019081610a96919061221f565b506080820151816004019081610aac919061221f565b5060a08201518160050160006101000a81548173ffffffffffffffffffffffffffffffffffffffff021916908373ffffffffffffffffffffffffffffffffffffffff1602179055509050506005339080600181540180825580915050600190039060005260206000200160009091909190916101000a81548173ffffffffffffffffffffffffffffffffffffffff021916908373ffffffffffffffffffffffffffffffffffffffff1602179055506001600360003373ffffffffffffffffffffffffffffffffffffffff1673ffffffffffffffffffffffffffffffffffffffff16815260200190815260200160002060006101000a81548160ff0219169083151502179055503373ffffffffffffffffffffffffffffffffffffffff167ff5c689e820056bd7214a707793f7e57265194027aa7b37fe7484a548ff33c239858542604051610bfc93929190612655565b60405180910390a23373ffffffffffffffffffffffffffffffffffffffff167fe763ed71afbf8f598659a4d8ac8178df2e3d08a2f869fd42f47dd53fc552052760405160405180910390a250505050565b600260009054906101000a900473ffffffffffffffffffffffffffffffffffffffff1673ffffffffffffffffffffffffffffffffffffffff163373ffffffffffffffffffffffffffffffffffffffff1614610cdd576040517f08c379a0000000000000000000000000000000000000000000000000000000008152600401610cd49061270c565b60405180910390fd5b600260149054906101000a900460ff1615610d2d576040517f08c379a0000000000000000000000000000000000000000000000000000000008152600401610d2490612778565b60405180910390fd5b6001600260146101000a81548160ff0219169083151502179055503373ffffffffffffffffffffffffffffffffffffffff167fc0a11306de19a7a1e57d5813c2a3c68bc74167191d86cb475cc366b5538e455a60405160405180910390a2565b600260149054906101000a900460ff1615610ddd576040517f08c379a0000000000000000000000000000000000000000000000000000000008152600401610dd49061280a565b60405180910390fd5b600360003373ffffffffffffffffffffffffffffffffffffffff1673ffffffffffffffffffffffffffffffffffffffff16815260200190815260200160002060009054906101000a900460ff16610e69576040517f08c379a0000000000000000000000000000000000000000000000000000000008152600401610e609061289c565b60405180910390fd5b6000825111610ead576040517f08c379a0000000000000000000000000000000000000000000000000000000008152600401610ea490611f7b565b60405180910390fd5b6000815111610ef1576040517f08c379a0000000000000000000000000000000000000000000000000000000008152600401610ee890611fe7565b60405180910390fd5b8160009081610f00919061221f565b508060019081610f10919061221f565b507facfc945dc582ec022a487f0adf3c4903158bc6506aa37ba92f10bc8c56340cab8282604051610f429291906128bc565b60405180910390a15050565b60018054610f5b90611efe565b80601f0160208091040260200160405190810160405280929190818152602001828054610f8790611efe565b8015610fd45780601f10610fa957610100808354040283529160200191610fd4565b820191906000526020600020905b815481529060010190602001808311610fb757829003601f168201915b505050505081565b6060600580548060200260200160405190810160405280929190818152602001828054801561106057602002820191906000526020600020905b8160009054906101000a900473ffffffffffffffffffffffffffffffffffffffff1673ffffffffffffffffffffffffffffffffffffffff1681526020019060010190808311611016575b5050505050905090565b6005818154811061107a57600080fd5b906000526020600020016000915054906101000a900473ffffffffffffffffffffffffffffffffffffffff1681565b600260149054906101000a900460ff16156110f9576040517f08c379a00000000000000000000000000000000000000000000000000000000081526004016110f09061280a565b60405180910390fd5b600360003373ffffffffffffffffffffffffffffffffffffffff1673ffffffffffffffffffffffffffffffffffffffff16815260200190815260200160002060009054906101000a900460ff16611185576040517f08c379a000000000000000000000000000000000000000000000000000000000815260040161117c9061293f565b60405180910390fd5b60008151116111c9576040517f08c379a00000000000000000000000000000000000000000000000000000000081526004016111c090611f7b565b60405180910390fd5b80600090816111d8919061221f565b507f9f7688a97f1ac51fe03bac18af18d6810f9f11f0db08c59b1938a9ac825ef7448160405161120891906117e5565b60405180910390a150565b600260149054906101000a900460ff1615611263576040517f08c379a000000000000000000000000000000000000000000000000000000000815260040161125a9061280a565b60405180910390fd5b600360003373ffffffffffffffffffffffffffffffffffffffff1673ffffffffffffffffffffffffffffffffffffffff16815260200190815260200160002060009054906101000a900460ff166112ef576040517f08c379a00000000000000000000000000000000000000000000000000000000081526004016112e6906129d1565b60405180910390fd5b6000815111611333576040517f08c379a000000000000000000000000000000000000000000000000000000000815260040161132a90611fe7565b60405180910390fd5b8060019081611342919061221f565b507f780a50935e552bbb4121484821a2d661ad401d0428934b0b3b388acf07d580348160405161137291906117e5565b60405180910390a150565b60036020528060005260406000206000915054906101000a900460ff1681565b60046020528060005260406000206000915090508060000180546113c090611efe565b80601f01602080910402602001604051908101604052809291908181526020018280546113ec90611efe565b80156114395780601f1061140e57610100808354040283529160200191611439565b820191906000526020600020905b81548152906001019060200180831161141c57829003601f168201915b50505050509080600101805461144e90611efe565b80601f016020809104026020016040519081016040528092919081815260200182805461147a90611efe565b80156114c75780601f1061149c576101008083540402835291602001916114c7565b820191906000526020600020905b8154815290600101906020018083116114aa57829003601f168201915b5050505050908060020154908060030180546114e290611efe565b80601f016020809104026020016040519081016040528092919081815260200182805461150e90611efe565b801561155b5780601f106115305761010080835404028352916020019161155b565b820191906000526020600020905b81548152906001019060200180831161153e57829003601f168201915b50505050509080600401805461157090611efe565b80601f016020809104026020016040519081016040528092919081815260200182805461159c90611efe565b80156115e95780601f106115be576101008083540402835291602001916115e9565b820191906000526020600020905b8154815290600101906020018083116115cc57829003601f168201915b5050505050908060050160009054906101000a900473ffffffffffffffffffffffffffffffffffffffff16905086565b6060600580548060200260200160405190810160405280929190818152602001828054801561169d57602002820191906000526020600020905b8160009054906101000a900473ffffffffffffffffffffffffffffffffffffffff1673ffffffffffffffffffffffffffffffffffffffff1681526020019060010190808311611653575b5050505050905090565b600260149054906101000a900460ff1681565b6000806116c56116ce565b90508091505090565b60007ff0c57e16840df040f15088dc2f81fe391c3923bec73e23a9662efc9c229c6a0060001b905090565b600073ffffffffffffffffffffffffffffffffffffffff82169050919050565b6000611724826116f9565b9050919050565b61173481611719565b82525050565b600060208201905061174f600083018461172b565b92915050565b600081519050919050565b600082825260208201905092915050565b60005b8381101561178f578082015181840152602081019050611774565b60008484015250505050565b6000601f19601f8301169050919050565b60006117b782611755565b6117c18185611760565b93506117d1818560208601611771565b6117da8161179b565b840191505092915050565b600060208201905081810360008301526117ff81846117ac565b905092915050565b6000604051905090565b600080fd5b600080fd5b600080fd5b600080fd5b7f4e487b7100000000000000000000000000000000000000000000000000000000600052604160045260246000fd5b61185d8261179b565b810181811067ffffffffffffffff8211171561187c5761187b611825565b5b80604052505050565b600061188f611807565b905061189b8282611854565b919050565b600067ffffffffffffffff8211156118bb576118ba611825565b5b6118c48261179b565b9050602081019050919050565b82818337600083830152505050565b60006118f36118ee846118a0565b611885565b90508281526020810184848401111561190f5761190e611820565b5b61191a8482856118d1565b509392505050565b600082601f8301126119375761193661181b565b5b81356119478482602086016118e0565b91505092915050565b61195981611719565b811461196457600080fd5b50565b60008135905061197681611950565b92915050565b60008060006060848603121561199557611994611811565b5b600084013567ffffffffffffffff8111156119b3576119b2611816565b5b6119bf86828701611922565b935050602084013567ffffffffffffffff8111156119e0576119df611816565b5b6119ec86828701611922565b92505060406119fd86828701611967565b9150509250925092565b60008060008060808587031215611a2157611a20611811565b5b600085013567ffffffffffffffff811115611a3f57611a3e611816565b5b611a4b87828801611922565b945050602085013567ffffffffffffffff811115611a6c57611a6b611816565b5b611a7887828801611922565b935050604085013567ffffffffffffffff811115611a9957611a98611816565b5b611aa587828801611922565b925050606085013567ffffffffffffffff811115611ac657611ac5611816565b5b611ad287828801611922565b91505092959194509250565b60008060408385031215611af557611af4611811565b5b600083013567ffffffffffffffff811115611b1357611b12611816565b5b611b1f85828601611922565b925050602083013567ffffffffffffffff811115611b4057611b3f611816565b5b611b4c85828601611922565b9150509250929050565b600081519050919050565b600082825260208201905092915050565b6000819050602082019050919050565b611b8b81611719565b82525050565b6000611b9d8383611b82565b60208301905092915050565b6000602082019050919050565b6000611bc182611b56565b611bcb8185611b61565b9350611bd683611b72565b8060005b83811015611c07578151611bee8882611b91565b9750611bf983611ba9565b925050600181019050611bda565b5085935050505092915050565b60006020820190508181036000830152611c2e8184611bb6565b905092915050565b6000819050919050565b611c4981611c36565b8114611c5457600080fd5b50565b600081359050611c6681611c40565b92915050565b600060208284031215611c8257611c81611811565b5b6000611c9084828501611c57565b91505092915050565b600060208284031215611caf57611cae611811565b5b600082013567ffffffffffffffff811115611ccd57611ccc611816565b5b611cd984828501611922565b91505092915050565b600060208284031215611cf857611cf7611811565b5b6000611d0684828501611967565b91505092915050565b60008115159050919050565b611d2481611d0f565b82525050565b6000602082019050611d3f6000830184611d1b565b92915050565b611d4e81611c36565b82525050565b600060c0820190508181036000830152611d6e81896117ac565b90508181036020830152611d8281886117ac565b9050611d916040830187611d45565b8181036060830152611da381866117ac565b90508181036080830152611db781856117ac565b9050611dc660a083018461172b565b979650505050505050565b7f4f6e6c792063726561746f722063616e20756e61726368697665206f7267616e60008201527f697a6174696f6e00000000000000000000000000000000000000000000000000602082015250565b6000611e2d602783611760565b9150611e3882611dd1565b604082019050919050565b60006020820190508181036000830152611e5c81611e20565b9050919050565b7f4f7267616e697a6174696f6e206973206e6f7420617263686976656400000000600082015250565b6000611e99601c83611760565b9150611ea482611e63565b602082019050919050565b60006020820190508181036000830152611ec881611e8c565b9050919050565b7f4e487b7100000000000000000000000000000000000000000000000000000000600052602260045260246000fd5b60006002820490506001821680611f1657607f821691505b602082108103611f2957611f28611ecf565b5b50919050565b7f4e616d652063616e6e6f7420626520656d707479000000000000000000000000600082015250565b6000611f65601483611760565b9150611f7082611f2f565b602082019050919050565b60006020820190508181036000830152611f9481611f58565b9050919050565b7f507572706f73652063616e6e6f7420626520656d707479000000000000000000600082015250565b6000611fd1601783611760565b9150611fdc82611f9b565b602082019050919050565b6000602082019050818103600083015261200081611fc4565b9050919050565b7f43726561746f722063616e6e6f74206265207a65726f20616464726573730000600082015250565b600061203d601e83611760565b915061204882612007565b602082019050919050565b6000602082019050818103600083015261206c81612030565b9050919050565b60008190508160005260206000209050919050565b60006020601f8301049050919050565b600082821b905092915050565b6000600883026120d57fffffffffffffffffffffffffffffffffffffffffffffffffffffffffffffffff82612098565b6120df8683612098565b95508019841693508086168417925050509392505050565b6000819050919050565b600061211c61211761211284611c36565b6120f7565b611c36565b9050919050565b6000819050919050565b61213683612101565b61214a61214282612123565b8484546120a5565b825550505050565b600090565b61215f612152565b61216a81848461212d565b505050565b5b8181101561218e57612183600082612157565b600181019050612170565b5050565b601f8211156121d3576121a481612073565b6121ad84612088565b810160208510156121bc578190505b6121d06121c885612088565b83018261216f565b50505b505050565b600082821c905092915050565b60006121f6600019846008026121d8565b1980831691505092915050565b600061220f83836121e5565b9150826002028217905092915050565b61222882611755565b67ffffffffffffffff81111561224157612240611825565b5b61224b8254611efe565b612256828285612192565b600060209050601f8311600181146122895760008415612277578287015190505b6122818582612203565b8655506122e9565b601f19841661229786612073565b60005b828110156122bf5784890151825560018201915060208501945060208101905061229a565b868310156122dc57848901516122d8601f8916826121e5565b8355505b6001600288020188555050505b505050505050565b6000819050919050565b600067ffffffffffffffff82169050919050565b600061232a612325612320846122f1565b6120f7565b6122fb565b9050919050565b61233a8161230f565b82525050565b60006020820190506123556000830184612331565b92915050565b7f43616e6e6f74207369676e20636f6e737469747574696f6e206f66206172636860008201527f69766564206f7267616e697a6174696f6e000000000000000000000000000000602082015250565b60006123b7603183611760565b91506123c28261235b565b604082019050919050565b600060208201905081810360008301526123e6816123aa565b9050919050565b7f416c7265616479207369676e656420636f6e737469747574696f6e0000000000600082015250565b6000612423601b83611760565b915061242e826123ed565b602082019050919050565b6000602082019050818103600083015261245281612416565b9050919050565b7f446f63756d656e7420686173682063616e6e6f7420626520656d707479000000600082015250565b600061248f601d83611760565b915061249a82612459565b602082019050919050565b600060208201905081810360008301526124be81612482565b9050919050565b7f5369676e617475726520686173682063616e6e6f7420626520656d7074790000600082015250565b60006124fb601e83611760565b9150612506826124c5565b602082019050919050565b6000602082019050818103600083015261252a816124ee565b9050919050565b7f436f6e737469747574696f6e2076657273696f6e2063616e6e6f74206265206560008201527f6d70747900000000000000000000000000000000000000000000000000000000602082015250565b600061258d602483611760565b915061259882612531565b604082019050919050565b600060208201905081810360008301526125bc81612580565b9050919050565b7f436f6e73656e742073746174656d656e742063616e6e6f7420626520656d707460008201527f7900000000000000000000000000000000000000000000000000000000000000602082015250565b600061261f602183611760565b915061262a826125c3565b604082019050919050565b6000602082019050818103600083015261264e81612612565b9050919050565b6000606082019050818103600083015261266f81866117ac565b9050818103602083015261268381856117ac565b90506126926040830184611d45565b949350505050565b7f4f6e6c792063726561746f722063616e2061726368697665206f7267616e697a60008201527f6174696f6e000000000000000000000000000000000000000000000000000000602082015250565b60006126f6602583611760565b91506127018261269a565b604082019050919050565b60006020820190508181036000830152612725816126e9565b9050919050565b7f4f7267616e697a6174696f6e20616c7265616479206172636869766564000000600082015250565b6000612762601d83611760565b915061276d8261272c565b602082019050919050565b6000602082019050818103600083015261279181612755565b9050919050565b7f43616e6e6f7420757064617465206172636869766564206f7267616e697a617460008201527f696f6e0000000000000000000000000000000000000000000000000000000000602082015250565b60006127f4602383611760565b91506127ff82612798565b604082019050919050565b60006020820190508181036000830152612823816127e7565b9050919050565b7f4d757374206265206120706172746e657220746f20757064617465206465746160008201527f696c730000000000000000000000000000000000000000000000000000000000602082015250565b6000612886602383611760565b91506128918261282a565b604082019050919050565b600060208201905081810360008301526128b581612879565b9050919050565b600060408201905081810360008301526128d681856117ac565b905081810360208301526128ea81846117ac565b90509392505050565b7f4d757374206265206120706172746e657220746f20757064617465206e616d65600082015250565b6000612929602083611760565b9150612934826128f3565b602082019050919050565b600060208201905081810360008301526129588161291c565b9050919050565b7f4d757374206265206120706172746e657220746f20757064617465207075727060008201527f6f73650000000000000000000000000000000000000000000000000000000000602082015250565b60006129bb602383611760565b91506129c68261295f565b604082019050919050565b600060208201905081810360008301526129ea816129ae565b905091905056fea26469706673582212200e3c7cb1a2c3412101ac7e048a436dd4d3c7714112775d325f711594b82b0b8164736f6c634300081d0033",
  "linkReferences": {},
  "deployedLinkReferences": {}
}