{
  "contracts/HolacracyFactory.sol": {
    "HolacracyFactory": {
      "abi": [
        {
          "inputs": [],
          "name": "FailedDeployment",
          "type": "error"
        },
        {
          "inputs": [
            {
              "internalType": "uint256",
              "name": "balance",
              "type": "uint256"
            },
            {
              "internalType": "uint256",
              "name": "needed",
              "type": "uint256"
            }
          ],
          "name": "InsufficientBalance",
          "type": "error"
        },
        {
          "inputs": [],
          "name": "InvalidInitialization",
          "type": "error"
        },
        {
          "inputs": [],
          "name": "NotInitializing",
          "type": "error"
        },
        {
          "inputs": [
            {
              "internalType": "address",
              "name": "owner",
              "type": "address"
            }
          ],
          "name": "OwnableInvalidOwner",
          "type": "error"
        },
        {
          "inputs": [
            {
              "internalType": "address",
              "name": "account",
              "type": "address"
            }
          ],
          "name": "OwnableUnauthorizedAccount",
          "type": "error"
        },
        {
          "anonymous": false,
          "inputs": [
            {
              "indexed": false,
              "internalType": "uint64",
              "name": "version",
              "type": "uint64"
            }
          ],
          "name": "Initialized",
          "type": "event"
        },
        {
          "anonymous": false,
          "inputs": [
            {
              "indexed": true,
              "internalType": "uint256",
              "name": "id",
              "type": "uint256"
            },
            {
              "indexed": false,
              "internalType": "string",
              "name": "name",
              "type": "string"
            },
            {
              "indexed": false,
              "internalType": "string",
              "name": "purpose",
              "type": "string"
            },
            {
              "indexed": false,
              "internalType": "address",
              "name": "creator",
              "type": "address"
            }
          ],
          "name": "InitiativeCreated",
          "type": "event"
        },
        {
          "anonymous": false,
          "inputs": [
            {
              "indexed": true,
              "internalType": "uint256",
              "name": "initiativeId",
              "type": "uint256"
            },
            {
              "indexed": false,
              "internalType": "address",
              "name": "org",
              "type": "address"
            },
            {
              "indexed": false,
              "internalType": "address[]",
              "name": "founders",
              "type": "address[]"
            }
          ],
          "name": "OrganizationDeployed",
          "type": "event"
        },
        {
          "anonymous": false,
          "inputs": [
            {
              "indexed": true,
              "internalType": "address",
              "name": "previousOwner",
              "type": "address"
            },
            {
              "indexed": true,
              "internalType": "address",
              "name": "newOwner",
              "type": "address"
            }
          ],
          "name": "OwnershipTransferred",
          "type": "event"
        },
        {
          "anonymous": false,
          "inputs": [
            {
              "indexed": true,
              "internalType": "uint256",
              "name": "initiativeId",
              "type": "uint256"
            },
            {
              "indexed": false,
              "internalType": "address",
              "name": "partner",
              "type": "address"
            }
          ],
          "name": "PartnerJoined",
          "type": "event"
        },
        {
          "inputs": [
            {
              "internalType": "string",
              "name": "name",
              "type": "string"
            },
            {
              "internalType": "string",
              "name": "purpose",
              "type": "string"
            }
          ],
          "name": "createInitiative",
          "outputs": [],
          "stateMutability": "nonpayable",
          "type": "function"
        },
        {
          "inputs": [],
          "name": "getInitiativesCount",
          "outputs": [
            {
              "internalType": "uint256",
              "name": "",
              "type": "uint256"
            }
          ],
          "stateMutability": "view",
          "type": "function"
        },
        {
          "inputs": [
            {
              "internalType": "uint256",
              "name": "initiativeId",
              "type": "uint256"
            }
          ],
          "name": "getPartners",
          "outputs": [
            {
              "internalType": "address[]",
              "name": "",
              "type": "address[]"
            }
          ],
          "stateMutability": "view",
          "type": "function"
        },
        {
          "inputs": [
            {
              "internalType": "address",
              "name": "_organizationImplementation",
              "type": "address"
            },
            {
              "internalType": "address",
              "name": "_owner",
              "type": "address"
            }
          ],
          "name": "initialize",
          "outputs": [],
          "stateMutability": "nonpayable",
          "type": "function"
        },
        {
          "inputs": [
            {
              "internalType": "uint256",
              "name": "",
              "type": "uint256"
            }
          ],
          "name": "initiatives",
          "outputs": [
            {
              "internalType": "string",
              "name": "name",
              "type": "string"
            },
            {
              "internalType": "string",
              "name": "purpose",
              "type": "string"
            },
            {
              "internalType": "address",
              "name": "creator",
              "type": "address"
            },
            {
              "internalType": "bool",
              "name": "launched",
              "type": "bool"
            }
          ],
          "stateMutability": "view",
          "type": "function"
        },
        {
          "inputs": [
            {
              "internalType": "uint256",
              "name": "",
              "type": "uint256"
            },
            {
              "internalType": "address",
              "name": "",
              "type": "address"
            }
          ],
          "name": "isPartner",
          "outputs": [
            {
              "internalType": "bool",
              "name": "",
              "type": "bool"
            }
          ],
          "stateMutability": "view",
          "type": "function"
        },
        {
          "inputs": [
            {
              "internalType": "uint256",
              "name": "initiativeId",
              "type": "uint256"
            }
          ],
          "name": "joinInitiative",
          "outputs": [],
          "stateMutability": "nonpayable",
          "type": "function"
        },
        {
          "inputs": [
            {
              "internalType": "uint256",
              "name": "initiativeId",
              "type": "uint256"
            },
            {
              "internalType": "bytes",
              "name": "initData",
              "type": "bytes"
            }
          ],
          "name": "launchOrganization",
          "outputs": [
            {
              "internalType": "address",
              "name": "org",
              "type": "address"
            }
          ],
          "stateMutability": "nonpayable",
          "type": "function"
        },
        {
          "inputs": [],
          "name": "organizationImplementation",
          "outputs": [
            {
              "internalType": "address",
              "name": "",
              "type": "address"
            }
          ],
          "stateMutability": "view",
          "type": "function"
        },
        {
          "inputs": [],
          "name": "owner",
          "outputs": [
            {
              "internalType": "address",
              "name": "",
              "type": "address"
            }
          ],
          "stateMutability": "view",
          "type": "function"
        },
        {
          "inputs": [],
          "name": "renounceOwnership",
          "outputs": [],
          "stateMutability": "nonpayable",
          "type": "function"
        },
        {
          "inputs": [
            {
              "internalType": "address",
              "name": "newOwner",
              "type": "address"
            }
          ],
          "name": "transferOwnership",
          "outputs": [],
          "stateMutability": "nonpayable",
          "type": "function"
        }
      ],
      "evm": {
        "bytecode": {
          "linkReferences": {},
          "object": "6080604052348015600f57600080fd5b506120a18061001f6000396000f3fe608060405234801561001057600080fd5b50600436106100b45760003560e01c80638da5cb5b116100715780638da5cb5b1461017c5780638f2d90981461019a57806391261b1d146101b6578063a8cbf238146101d4578063bdd1603a14610204578063f2fde38b14610234576100b4565b806315eb78e3146100b9578063485cc955146100d75780636503a867146100f35780636e430ce614610123578063715018a61461013f5780637dad062314610149575b600080fd5b6100c1610250565b6040516100ce9190611255565b60405180910390f35b6100f160048036038101906100ec91906112b0565b610276565b005b61010d6004803603810190610108919061146c565b610447565b60405161011a9190611255565b60405180910390f35b61013d60048036038101906101389190611569565b6106f5565b005b6101476108af565b005b610163600480360381019061015e91906115e1565b6108c3565b60405161017394939291906116a8565b60405180910390f35b610184610a40565b6040516101919190611255565b60405180910390f35b6101b460048036038101906101af91906115e1565b610a78565b005b6101be610c86565b6040516101cb919061170a565b60405180910390f35b6101ee60048036038101906101e991906115e1565b610c92565b6040516101fb91906117e3565b60405180910390f35b61021e60048036038101906102199190611805565b610d8c565b60405161022b9190611845565b60405180910390f35b61024e60048036038101906102499190611860565b610dbb565b005b600260009054906101000a900473ffffffffffffffffffffffffffffffffffffffff1681565b6000610280610e41565b905060008160000160089054906101000a900460ff1615905060008260000160009054906101000a900467ffffffffffffffff1690506000808267ffffffffffffffff161480156102ce5750825b9050600060018367ffffffffffffffff16148015610303575060003073ffffffffffffffffffffffffffffffffffffffff163b145b905081158015610311575080155b15610348576040517ff92ee8a900000000000000000000000000000000000000000000000000000000815260040160405180910390fd5b60018560000160006101000a81548167ffffffffffffffff021916908367ffffffffffffffff16021790555083156103985760018560000160086101000a81548160ff0219169083151502179055505b6103a186610e55565b86600260006101000a81548173ffffffffffffffffffffffffffffffffffffffff021916908373ffffffffffffffffffffffffffffffffffffffff160217905550831561043e5760008560000160086101000a81548160ff0219169083151502179055507fc7f505b2f371ae2175ee4913f4499e1f2633a7b5936321eed1cdaeb6115181d2600160405161043591906118e6565b60405180910390a15b50505050505050565b60008080549050831061048f576040517f08c379a00000000000000000000000000000000000000000000000000000000081526004016104869061194d565b60405180910390fd5b60008084815481106104a4576104a361196d565b5b906000526020600020906005020190508060040160009054906101000a900460ff1615610506576040517f08c379a00000000000000000000000000000000000000000000000000000000081526004016104fd906119e8565b60405180910390fd5b6001600085815260200190815260200160002060003373ffffffffffffffffffffffffffffffffffffffff1673ffffffffffffffffffffffffffffffffffffffff16815260200190815260200160002060009054906101000a900460ff166105a3576040517f08c379a000000000000000000000000000000000000000000000000000000000815260040161059a90611a54565b60405180910390fd5b6105e4600260009054906101000a900473ffffffffffffffffffffffffffffffffffffffff1673ffffffffffffffffffffffffffffffffffffffff16610e69565b915060008273ffffffffffffffffffffffffffffffffffffffff168460405161060d9190611abb565b6000604051808303816000865af19150503d806000811461064a576040519150601f19603f3d011682016040523d82523d6000602084013e61064f565b606091505b5050905080610693576040517f08c379a000000000000000000000000000000000000000000000000000000000815260040161068a90611b1e565b60405180910390fd5b60018260040160006101000a81548160ff021916908315150217905550847f1dd5dd4e2064699c3e52f3399bbdb0264c02025f65230384cbe87a82e5cac8b684846003016040516106e5929190611c2a565b60405180910390a2505092915050565b6000806001816001815401808255809150500390600052602060002090600502019050828160000190816107299190611e5c565b508181600101908161073b9190611e5c565b50338160020160006101000a81548173ffffffffffffffffffffffffffffffffffffffff021916908373ffffffffffffffffffffffffffffffffffffffff16021790555080600301339080600181540180825580915050600190039060005260206000200160009091909190916101000a81548173ffffffffffffffffffffffffffffffffffffffff021916908373ffffffffffffffffffffffffffffffffffffffff160217905550600180600060016000805490506107fb9190611f5d565b815260200190815260200160002060003373ffffffffffffffffffffffffffffffffffffffff1673ffffffffffffffffffffffffffffffffffffffff16815260200190815260200160002060006101000a81548160ff021916908315150217905550600160008054905061086f9190611f5d565b7f49a872c741f3c4f9c193b8354aa8ece3949cfa2f32805280806bcb85fd3fc7d28484336040516108a293929190611f91565b60405180910390a2505050565b6108b7610e7d565b6108c16000610f04565b565b600081815481106108d357600080fd5b90600052602060002090600502016000915090508060000180546108f690611c89565b80601f016020809104026020016040519081016040528092919081815260200182805461092290611c89565b801561096f5780601f106109445761010080835404028352916020019161096f565b820191906000526020600020905b81548152906001019060200180831161095257829003601f168201915b50505050509080600101805461098490611c89565b80601f01602080910402602001604051908101604052809291908181526020018280546109b090611c89565b80156109fd5780601f106109d2576101008083540402835291602001916109fd565b820191906000526020600020905b8154815290600101906020018083116109e057829003601f168201915b5050505050908060020160009054906101000a900473ffffffffffffffffffffffffffffffffffffffff16908060040160009054906101000a900460ff16905084565b600080610a4b610fdb565b90508060000160009054906101000a900473ffffffffffffffffffffffffffffffffffffffff1691505090565b6000805490508110610abf576040517f08c379a0000000000000000000000000000000000000000000000000000000008152600401610ab69061194d565b60405180910390fd5b6001600082815260200190815260200160002060003373ffffffffffffffffffffffffffffffffffffffff1673ffffffffffffffffffffffffffffffffffffffff16815260200190815260200160002060009054906101000a900460ff1615610b5d576040517f08c379a0000000000000000000000000000000000000000000000000000000008152600401610b5490612022565b60405180910390fd5b60008181548110610b7157610b7061196d565b5b9060005260206000209060050201600301339080600181540180825580915050600190039060005260206000200160009091909190916101000a81548173ffffffffffffffffffffffffffffffffffffffff021916908373ffffffffffffffffffffffffffffffffffffffff160217905550600180600083815260200190815260200160002060003373ffffffffffffffffffffffffffffffffffffffff1673ffffffffffffffffffffffffffffffffffffffff16815260200190815260200160002060006101000a81548160ff021916908315150217905550807fb522d64cad4307223f0adf127090547b5ac523091d73f7832fd4349e6ecc633a33604051610c7b9190611255565b60405180910390a250565b60008080549050905090565b60606000805490508210610cdb576040517f08c379a0000000000000000000000000000000000000000000000000000000008152600401610cd29061194d565b60405180910390fd5b60008281548110610cef57610cee61196d565b5b9060005260206000209060050201600301805480602002602001604051908101604052809291908181526020018280548015610d8057602002820191906000526020600020905b8160009054906101000a900473ffffffffffffffffffffffffffffffffffffffff1673ffffffffffffffffffffffffffffffffffffffff1681526020019060010190808311610d36575b50505050509050919050565b60016020528160005260406000206020528060005260406000206000915091509054906101000a900460ff1681565b610dc3610e7d565b600073ffffffffffffffffffffffffffffffffffffffff168173ffffffffffffffffffffffffffffffffffffffff1603610e355760006040517f1e4fbdf7000000000000000000000000000000000000000000000000000000008152600401610e2c9190611255565b60405180910390fd5b610e3e81610f04565b50565b600080610e4c611003565b90508091505090565b610e5d61102e565b610e668161106e565b50565b6000610e768260006110f4565b9050919050565b610e856111ec565b73ffffffffffffffffffffffffffffffffffffffff16610ea3610a40565b73ffffffffffffffffffffffffffffffffffffffff1614610f0257610ec66111ec565b6040517f118cdaa7000000000000000000000000000000000000000000000000000000008152600401610ef99190611255565b60405180910390fd5b565b6000610f0e610fdb565b905060008160000160009054906101000a900473ffffffffffffffffffffffffffffffffffffffff169050828260000160006101000a81548173ffffffffffffffffffffffffffffffffffffffff021916908373ffffffffffffffffffffffffffffffffffffffff1602179055508273ffffffffffffffffffffffffffffffffffffffff168173ffffffffffffffffffffffffffffffffffffffff167f8be0079c531659141344cd1fd0a4f28419497f9722a3daafe3b4186f6b6457e060405160405180910390a3505050565b60007f9016d09d72d40fdae2fd8ceac6b6234c7706214fd39c1cd1e609a0528c199300905090565b60007ff0c57e16840df040f15088dc2f81fe391c3923bec73e23a9662efc9c229c6a0060001b905090565b6110366111f4565b61106c576040517fd7e6bcf800000000000000000000000000000000000000000000000000000000815260040160405180910390fd5b565b61107661102e565b600073ffffffffffffffffffffffffffffffffffffffff168173ffffffffffffffffffffffffffffffffffffffff16036110e85760006040517f1e4fbdf70000000000000000000000000000000000000000000000000000000081526004016110df9190611255565b60405180910390fd5b6110f181610f04565b50565b60008147101561113d5747826040517fcf479181000000000000000000000000000000000000000000000000000000008152600401611134929190612042565b60405180910390fd5b763d602d80600a3d3981f3363d3d373d3d3d363d730000008360601b60e81c176000526e5af43d82803e903d91602b57fd5bf38360781b176020526037600983f09050600073ffffffffffffffffffffffffffffffffffffffff168173ffffffffffffffffffffffffffffffffffffffff16036111e6576040517fb06ebf3d00000000000000000000000000000000000000000000000000000000815260040160405180910390fd5b92915050565b600033905090565b60006111fe610e41565b60000160089054906101000a900460ff16905090565b600073ffffffffffffffffffffffffffffffffffffffff82169050919050565b600061123f82611214565b9050919050565b61124f81611234565b82525050565b600060208201905061126a6000830184611246565b92915050565b6000604051905090565b600080fd5b600080fd5b61128d81611234565b811461129857600080fd5b50565b6000813590506112aa81611284565b92915050565b600080604083850312156112c7576112c661127a565b5b60006112d58582860161129b565b92505060206112e68582860161129b565b9150509250929050565b6000819050919050565b611303816112f0565b811461130e57600080fd5b50565b600081359050611320816112fa565b92915050565b600080fd5b600080fd5b6000601f19601f8301169050919050565b7f4e487b7100000000000000000000000000000000000000000000000000000000600052604160045260246000fd5b61137982611330565b810181811067ffffffffffffffff8211171561139857611397611341565b5b80604052505050565b60006113ab611270565b90506113b78282611370565b919050565b600067ffffffffffffffff8211156113d7576113d6611341565b5b6113e082611330565b9050602081019050919050565b82818337600083830152505050565b600061140f61140a846113bc565b6113a1565b90508281526020810184848401111561142b5761142a61132b565b5b6114368482856113ed565b509392505050565b600082601f83011261145357611452611326565b5b81356114638482602086016113fc565b91505092915050565b600080604083850312156114835761148261127a565b5b600061149185828601611311565b925050602083013567ffffffffffffffff8111156114b2576114b161127f565b5b6114be8582860161143e565b9150509250929050565b600067ffffffffffffffff8211156114e3576114e2611341565b5b6114ec82611330565b9050602081019050919050565b600061150c611507846114c8565b6113a1565b9050828152602081018484840111156115285761152761132b565b5b6115338482856113ed565b509392505050565b600082601f8301126115505761154f611326565b5b81356115608482602086016114f9565b91505092915050565b600080604083850312156115805761157f61127a565b5b600083013567ffffffffffffffff81111561159e5761159d61127f565b5b6115aa8582860161153b565b925050602083013567ffffffffffffffff8111156115cb576115ca61127f565b5b6115d78582860161153b565b9150509250929050565b6000602082840312156115f7576115f661127a565b5b600061160584828501611311565b91505092915050565b600081519050919050565b600082825260208201905092915050565b60005b8381101561164857808201518184015260208101905061162d565b60008484015250505050565b600061165f8261160e565b6116698185611619565b935061167981856020860161162a565b61168281611330565b840191505092915050565b60008115159050919050565b6116a28161168d565b82525050565b600060808201905081810360008301526116c28187611654565b905081810360208301526116d68186611654565b90506116e56040830185611246565b6116f26060830184611699565b95945050505050565b611704816112f0565b82525050565b600060208201905061171f60008301846116fb565b92915050565b600081519050919050565b600082825260208201905092915050565b6000819050602082019050919050565b61175a81611234565b82525050565b600061176c8383611751565b60208301905092915050565b6000602082019050919050565b600061179082611725565b61179a8185611730565b93506117a583611741565b8060005b838110156117d65781516117bd8882611760565b97506117c883611778565b9250506001810190506117a9565b5085935050505092915050565b600060208201905081810360008301526117fd8184611785565b905092915050565b6000806040838503121561181c5761181b61127a565b5b600061182a85828601611311565b925050602061183b8582860161129b565b9150509250929050565b600060208201905061185a6000830184611699565b92915050565b6000602082840312156118765761187561127a565b5b60006118848482850161129b565b91505092915050565b6000819050919050565b600067ffffffffffffffff82169050919050565b6000819050919050565b60006118d06118cb6118c68461188d565b6118ab565b611897565b9050919050565b6118e0816118b5565b82525050565b60006020820190506118fb60008301846118d7565b92915050565b7f496e76616c696420696e69746961746976650000000000000000000000000000600082015250565b6000611937601283611619565b915061194282611901565b602082019050919050565b600060208201905081810360008301526119668161192a565b9050919050565b7f4e487b7100000000000000000000000000000000000000000000000000000000600052603260045260246000fd5b7f416c7265616479206c61756e6368656400000000000000000000000000000000600082015250565b60006119d2601083611619565b91506119dd8261199c565b602082019050919050565b60006020820190508181036000830152611a01816119c5565b9050919050565b7f4e6f74206120706172746e657200000000000000000000000000000000000000600082015250565b6000611a3e600d83611619565b9150611a4982611a08565b602082019050919050565b60006020820190508181036000830152611a6d81611a31565b9050919050565b600081519050919050565b600081905092915050565b6000611a9582611a74565b611a9f8185611a7f565b9350611aaf81856020860161162a565b80840191505092915050565b6000611ac78284611a8a565b915081905092915050565b7f496e697469616c697a6174696f6e206661696c65640000000000000000000000600082015250565b6000611b08601583611619565b9150611b1382611ad2565b602082019050919050565b60006020820190508181036000830152611b3781611afb565b9050919050565b600081549050919050565b60008190508160005260206000209050919050565b60008160001c9050919050565b600073ffffffffffffffffffffffffffffffffffffffff82169050919050565b6000611b9e611b9983611b5e565b611b6b565b9050919050565b6000611bb18254611b8b565b9050919050565b6000600182019050919050565b6000611bd082611b3e565b611bda8185611730565b9350611be583611b49565b8060005b83811015611c1d57611bfa82611ba5565b611c048882611760565b9750611c0f83611bb8565b925050600181019050611be9565b5085935050505092915050565b6000604082019050611c3f6000830185611246565b8181036020830152611c518184611bc5565b90509392505050565b7f4e487b7100000000000000000000000000000000000000000000000000000000600052602260045260246000fd5b60006002820490506001821680611ca157607f821691505b602082108103611cb457611cb3611c5a565b5b50919050565b60008190508160005260206000209050919050565b60006020601f8301049050919050565b600082821b905092915050565b600060088302611d1c7fffffffffffffffffffffffffffffffffffffffffffffffffffffffffffffffff82611cdf565b611d268683611cdf565b95508019841693508086168417925050509392505050565b6000611d59611d54611d4f846112f0565b6118ab565b6112f0565b9050919050565b6000819050919050565b611d7383611d3e565b611d87611d7f82611d60565b848454611cec565b825550505050565b600090565b611d9c611d8f565b611da7818484611d6a565b505050565b5b81811015611dcb57611dc0600082611d94565b600181019050611dad565b5050565b601f821115611e1057611de181611cba565b611dea84611ccf565b81016020851015611df9578190505b611e0d611e0585611ccf565b830182611dac565b50505b505050565b600082821c905092915050565b6000611e3360001984600802611e15565b1980831691505092915050565b6000611e4c8383611e22565b9150826002028217905092915050565b611e658261160e565b67ffffffffffffffff811115611e7e57611e7d611341565b5b611e888254611c89565b611e93828285611dcf565b600060209050601f831160018114611ec65760008415611eb4578287015190505b611ebe8582611e40565b865550611f26565b601f198416611ed486611cba565b60005b82811015611efc57848901518255600182019150602085019450602081019050611ed7565b86831015611f195784890151611f15601f891682611e22565b8355505b6001600288020188555050505b505050505050565b7f4e487b7100000000000000000000000000000000000000000000000000000000600052601160045260246000fd5b6000611f68826112f0565b9150611f73836112f0565b9250828203905081811115611f8b57611f8a611f2e565b5b92915050565b60006060820190508181036000830152611fab8186611654565b90508181036020830152611fbf8185611654565b9050611fce6040830184611246565b949350505050565b7f416c7265616479206120706172746e6572000000000000000000000000000000600082015250565b600061200c601183611619565b915061201782611fd6565b602082019050919050565b6000602082019050818103600083015261203b81611fff565b9050919050565b600060408201905061205760008301856116fb565b61206460208301846116fb565b939250505056fea2646970667358221220b3afdd4cd00ff3e5a959cb9cb92969af9a3826ad6a8f71f3189154c1816cd7d764736f6c634300081c0033",
          "opcodes": "PUSH1 0x80 PUSH1 0x40 MSTORE CALLVALUE DUP1 ISZERO PUSH1 0xF JUMPI PUSH1 0x0 DUP1 REVERT JUMPDEST POP PUSH2 0x20A1 DUP1 PUSH2 0x1F PUSH1 0x0 CODECOPY PUSH1 0x0 RETURN INVALID PUSH1 0x80 PUSH1 0x40 MSTORE CALLVALUE DUP1 ISZERO PUSH2 0x10 JUMPI PUSH1 0x0 DUP1 REVERT JUMPDEST POP PUSH1 0x4 CALLDATASIZE LT PUSH2 0xB4 JUMPI PUSH1 0x0 CALLDATALOAD PUSH1 0xE0 SHR DUP1 PUSH4 0x8DA5CB5B GT PUSH2 0x71 JUMPI DUP1 PUSH4 0x8DA5CB5B EQ PUSH2 0x17C JUMPI DUP1 PUSH4 0x8F2D9098 EQ PUSH2 0x19A JUMPI DUP1 PUSH4 0x91261B1D EQ PUSH2 0x1B6 JUMPI DUP1 PUSH4 0xA8CBF238 EQ PUSH2 0x1D4 JUMPI DUP1 PUSH4 0xBDD1603A EQ PUSH2 0x204 JUMPI DUP1 PUSH4 0xF2FDE38B EQ PUSH2 0x234 JUMPI PUSH2 0xB4 JUMP JUMPDEST DUP1 PUSH4 0x15EB78E3 EQ PUSH2 0xB9 JUMPI DUP1 PUSH4 0x485CC955 EQ PUSH2 0xD7 JUMPI DUP1 PUSH4 0x6503A867 EQ PUSH2 0xF3 JUMPI DUP1 PUSH4 0x6E430CE6 EQ PUSH2 0x123 JUMPI DUP1 PUSH4 0x715018A6 EQ PUSH2 0x13F JUMPI DUP1 PUSH4 0x7DAD0623 EQ PUSH2 0x149 JUMPI JUMPDEST PUSH1 0x0 DUP1 REVERT JUMPDEST PUSH2 0xC1 PUSH2 0x250 JUMP JUMPDEST PUSH1 0x40 MLOAD PUSH2 0xCE SWAP2 SWAP1 PUSH2 0x1255 JUMP JUMPDEST PUSH1 0x40 MLOAD DUP1 SWAP2 SUB SWAP1 RETURN JUMPDEST PUSH2 0xF1 PUSH1 0x4 DUP1 CALLDATASIZE SUB DUP2 ADD SWAP1 PUSH2 0xEC SWAP2 SWAP1 PUSH2 0x12B0 JUMP JUMPDEST PUSH2 0x276 JUMP JUMPDEST STOP JUMPDEST PUSH2 0x10D PUSH1 0x4 DUP1 CALLDATASIZE SUB DUP2 ADD SWAP1 PUSH2 0x108 SWAP2 SWAP1 PUSH2 0x146C JUMP JUMPDEST PUSH2 0x447 JUMP JUMPDEST PUSH1 0x40 MLOAD PUSH2 0x11A SWAP2 SWAP1 PUSH2 0x1255 JUMP JUMPDEST PUSH1 0x40 MLOAD DUP1 SWAP2 SUB SWAP1 RETURN JUMPDEST PUSH2 0x13D PUSH1 0x4 DUP1 CALLDATASIZE SUB DUP2 ADD SWAP1 PUSH2 0x138 SWAP2 SWAP1 PUSH2 0x1569 JUMP JUMPDEST PUSH2 0x6F5 JUMP JUMPDEST STOP JUMPDEST PUSH2 0x147 PUSH2 0x8AF JUMP JUMPDEST STOP JUMPDEST PUSH2 0x163 PUSH1 0x4 DUP1 CALLDATASIZE SUB DUP2 ADD SWAP1 PUSH2 0x15E SWAP2 SWAP1 PUSH2 0x15E1 JUMP JUMPDEST PUSH2 0x8C3 JUMP JUMPDEST PUSH1 0x40 MLOAD PUSH2 0x173 SWAP5 SWAP4 SWAP3 SWAP2 SWAP1 PUSH2 0x16A8 JUMP JUMPDEST PUSH1 0x40 MLOAD DUP1 SWAP2 SUB SWAP1 RETURN JUMPDEST PUSH2 0x184 PUSH2 0xA40 JUMP JUMPDEST PUSH1 0x40 MLOAD PUSH2 0x191 SWAP2 SWAP1 PUSH2 0x1255 JUMP JUMPDEST PUSH1 0x40 MLOAD DUP1 SWAP2 SUB SWAP1 RETURN JUMPDEST PUSH2 0x1B4 PUSH1 0x4 DUP1 CALLDATASIZE SUB DUP2 ADD SWAP1 PUSH2 0x1AF SWAP2 SWAP1 PUSH2 0x15E1 JUMP JUMPDEST PUSH2 0xA78 JUMP JUMPDEST STOP JUMPDEST PUSH2 0x1BE PUSH2 0xC86 JUMP JUMPDEST PUSH1 0x40 MLOAD PUSH2 0x1CB SWAP2 SWAP1 PUSH2 0x170A JUMP JUMPDEST PUSH1 0x40 MLOAD DUP1 SWAP2 SUB SWAP1 RETURN JUMPDEST PUSH2 0x1EE PUSH1 0x4 DUP1 CALLDATASIZE SUB DUP2 ADD SWAP1 PUSH2 0x1E9 SWAP2 SWAP1 PUSH2 0x15E1 JUMP JUMPDEST PUSH2 0xC92 JUMP JUMPDEST PUSH1 0x40 MLOAD PUSH2 0x1FB SWAP2 SWAP1 PUSH2 0x17E3 JUMP JUMPDEST PUSH1 0x40 MLOAD DUP1 SWAP2 SUB SWAP1 RETURN JUMPDEST PUSH2 0x21E PUSH1 0x4 DUP1 CALLDATASIZE SUB DUP2 ADD SWAP1 PUSH2 0x219 SWAP2 SWAP1 PUSH2 0x1805 JUMP JUMPDEST PUSH2 0xD8C JUMP JUMPDEST PUSH1 0x40 MLOAD PUSH2 0x22B SWAP2 SWAP1 PUSH2 0x1845 JUMP JUMPDEST PUSH1 0x40 MLOAD DUP1 SWAP2 SUB SWAP1 RETURN JUMPDEST PUSH2 0x24E PUSH1 0x4 DUP1 CALLDATASIZE SUB DUP2 ADD SWAP1 PUSH2 0x249 SWAP2 SWAP1 PUSH2 0x1860 JUMP JUMPDEST PUSH2 0xDBB JUMP JUMPDEST STOP JUMPDEST PUSH1 0x2 PUSH1 0x0 SWAP1 SLOAD SWAP1 PUSH2 0x100 EXP SWAP1 DIV PUSH20 0xFFFFFFFFFFFFFFFFFFFFFFFFFFFFFFFFFFFFFFFF AND DUP2 JUMP JUMPDEST PUSH1 0x0 PUSH2 0x280 PUSH2 0xE41 JUMP JUMPDEST SWAP1 POP PUSH1 0x0 DUP2 PUSH1 0x0 ADD PUSH1 0x8 SWAP1 SLOAD SWAP1 PUSH2 0x100 EXP SWAP1 DIV PUSH1 0xFF AND ISZERO SWAP1 POP PUSH1 0x0 DUP3 PUSH1 0x0 ADD PUSH1 0x0 SWAP1 SLOAD SWAP1 PUSH2 0x100 EXP SWAP1 DIV PUSH8 0xFFFFFFFFFFFFFFFF AND SWAP1 POP PUSH1 0x0 DUP1 DUP3 PUSH8 0xFFFFFFFFFFFFFFFF AND EQ DUP1 ISZERO PUSH2 0x2CE JUMPI POP DUP3 JUMPDEST SWAP1 POP PUSH1 0x0 PUSH1 0x1 DUP4 PUSH8 0xFFFFFFFFFFFFFFFF AND EQ DUP1 ISZERO PUSH2 0x303 JUMPI POP PUSH1 0x0 ADDRESS PUSH20 0xFFFFFFFFFFFFFFFFFFFFFFFFFFFFFFFFFFFFFFFF AND EXTCODESIZE EQ JUMPDEST SWAP1 POP DUP2 ISZERO DUP1 ISZERO PUSH2 0x311 JUMPI POP DUP1 ISZERO JUMPDEST ISZERO PUSH2 0x348 JUMPI PUSH1 0x40 MLOAD PUSH32 0xF92EE8A900000000000000000000000000000000000000000000000000000000 DUP2 MSTORE PUSH1 0x4 ADD PUSH1 0x40 MLOAD DUP1 SWAP2 SUB SWAP1 REVERT JUMPDEST PUSH1 0x1 DUP6 PUSH1 0x0 ADD PUSH1 0x0 PUSH2 0x100 EXP DUP2 SLOAD DUP2 PUSH8 0xFFFFFFFFFFFFFFFF MUL NOT AND SWAP1 DUP4 PUSH8 0xFFFFFFFFFFFFFFFF AND MUL OR SWAP1 SSTORE POP DUP4 ISZERO PUSH2 0x398 JUMPI PUSH1 0x1 DUP6 PUSH1 0x0 ADD PUSH1 0x8 PUSH2 0x100 EXP DUP2 SLOAD DUP2 PUSH1 0xFF MUL NOT AND SWAP1 DUP4 ISZERO ISZERO MUL OR SWAP1 SSTORE POP JUMPDEST PUSH2 0x3A1 DUP7 PUSH2 0xE55 JUMP JUMPDEST DUP7 PUSH1 0x2 PUSH1 0x0 PUSH2 0x100 EXP DUP2 SLOAD DUP2 PUSH20 0xFFFFFFFFFFFFFFFFFFFFFFFFFFFFFFFFFFFFFFFF MUL NOT AND SWAP1 DUP4 PUSH20 0xFFFFFFFFFFFFFFFFFFFFFFFFFFFFFFFFFFFFFFFF AND MUL OR SWAP1 SSTORE POP DUP4 ISZERO PUSH2 0x43E JUMPI PUSH1 0x0 DUP6 PUSH1 0x0 ADD PUSH1 0x8 PUSH2 0x100 EXP DUP2 SLOAD DUP2 PUSH1 0xFF MUL NOT AND SWAP1 DUP4 ISZERO ISZERO MUL OR SWAP1 SSTORE POP PUSH32 0xC7F505B2F371AE2175EE4913F4499E1F2633A7B5936321EED1CDAEB6115181D2 PUSH1 0x1 PUSH1 0x40 MLOAD PUSH2 0x435 SWAP2 SWAP1 PUSH2 0x18E6 JUMP JUMPDEST PUSH1 0x40 MLOAD DUP1 SWAP2 SUB SWAP1 LOG1 JUMPDEST POP POP POP POP POP POP POP JUMP JUMPDEST PUSH1 0x0 DUP1 DUP1 SLOAD SWAP1 POP DUP4 LT PUSH2 0x48F JUMPI PUSH1 0x40 MLOAD PUSH32 0x8C379A000000000000000000000000000000000000000000000000000000000 DUP2 MSTORE PUSH1 0x4 ADD PUSH2 0x486 SWAP1 PUSH2 0x194D JUMP JUMPDEST PUSH1 0x40 MLOAD DUP1 SWAP2 SUB SWAP1 REVERT JUMPDEST PUSH1 0x0 DUP1 DUP5 DUP2 SLOAD DUP2 LT PUSH2 0x4A4 JUMPI PUSH2 0x4A3 PUSH2 0x196D JUMP JUMPDEST JUMPDEST SWAP1 PUSH1 0x0 MSTORE PUSH1 0x20 PUSH1 0x0 KECCAK256 SWAP1 PUSH1 0x5 MUL ADD SWAP1 POP DUP1 PUSH1 0x4 ADD PUSH1 0x0 SWAP1 SLOAD SWAP1 PUSH2 0x100 EXP SWAP1 DIV PUSH1 0xFF AND ISZERO PUSH2 0x506 JUMPI PUSH1 0x40 MLOAD PUSH32 0x8C379A000000000000000000000000000000000000000000000000000000000 DUP2 MSTORE PUSH1 0x4 ADD PUSH2 0x4FD SWAP1 PUSH2 0x19E8 JUMP JUMPDEST PUSH1 0x40 MLOAD DUP1 SWAP2 SUB SWAP1 REVERT JUMPDEST PUSH1 0x1 PUSH1 0x0 DUP6 DUP2 MSTORE PUSH1 0x20 ADD SWAP1 DUP2 MSTORE PUSH1 0x20 ADD PUSH1 0x0 KECCAK256 PUSH1 0x0 CALLER PUSH20 0xFFFFFFFFFFFFFFFFFFFFFFFFFFFFFFFFFFFFFFFF AND PUSH20 0xFFFFFFFFFFFFFFFFFFFFFFFFFFFFFFFFFFFFFFFF AND DUP2 MSTORE PUSH1 0x20 ADD SWAP1 DUP2 MSTORE PUSH1 0x20 ADD PUSH1 0x0 KECCAK256 PUSH1 0x0 SWAP1 SLOAD SWAP1 PUSH2 0x100 EXP SWAP1 DIV PUSH1 0xFF AND PUSH2 0x5A3 JUMPI PUSH1 0x40 MLOAD PUSH32 0x8C379A000000000000000000000000000000000000000000000000000000000 DUP2 MSTORE PUSH1 0x4 ADD PUSH2 0x59A SWAP1 PUSH2 0x1A54 JUMP JUMPDEST PUSH1 0x40 MLOAD DUP1 SWAP2 SUB SWAP1 REVERT JUMPDEST PUSH2 0x5E4 PUSH1 0x2 PUSH1 0x0 SWAP1 SLOAD SWAP1 PUSH2 0x100 EXP SWAP1 DIV PUSH20 0xFFFFFFFFFFFFFFFFFFFFFFFFFFFFFFFFFFFFFFFF AND PUSH20 0xFFFFFFFFFFFFFFFFFFFFFFFFFFFFFFFFFFFFFFFF AND PUSH2 0xE69 JUMP JUMPDEST SWAP2 POP PUSH1 0x0 DUP3 PUSH20 0xFFFFFFFFFFFFFFFFFFFFFFFFFFFFFFFFFFFFFFFF AND DUP5 PUSH1 0x40 MLOAD PUSH2 0x60D SWAP2 SWAP1 PUSH2 0x1ABB JUMP JUMPDEST PUSH1 0x0 PUSH1 0x40 MLOAD DUP1 DUP4 SUB DUP2 PUSH1 0x0 DUP7 GAS CALL SWAP2 POP POP RETURNDATASIZE DUP1 PUSH1 0x0 DUP2 EQ PUSH2 0x64A JUMPI PUSH1 0x40 MLOAD SWAP2 POP PUSH1 0x1F NOT PUSH1 0x3F RETURNDATASIZE ADD AND DUP3 ADD PUSH1 0x40 MSTORE RETURNDATASIZE DUP3 MSTORE RETURNDATASIZE PUSH1 0x0 PUSH1 0x20 DUP5 ADD RETURNDATACOPY PUSH2 0x64F JUMP JUMPDEST PUSH1 0x60 SWAP2 POP JUMPDEST POP POP SWAP1 POP DUP1 PUSH2 0x693 JUMPI PUSH1 0x40 MLOAD PUSH32 0x8C379A000000000000000000000000000000000000000000000000000000000 DUP2 MSTORE PUSH1 0x4 ADD PUSH2 0x68A SWAP1 PUSH2 0x1B1E JUMP JUMPDEST PUSH1 0x40 MLOAD DUP1 SWAP2 SUB SWAP1 REVERT JUMPDEST PUSH1 0x1 DUP3 PUSH1 0x4 ADD PUSH1 0x0 PUSH2 0x100 EXP DUP2 SLOAD DUP2 PUSH1 0xFF MUL NOT AND SWAP1 DUP4 ISZERO ISZERO MUL OR SWAP1 SSTORE POP DUP5 PUSH32 0x1DD5DD4E2064699C3E52F3399BBDB0264C02025F65230384CBE87A82E5CAC8B6 DUP5 DUP5 PUSH1 0x3 ADD PUSH1 0x40 MLOAD PUSH2 0x6E5 SWAP3 SWAP2 SWAP1 PUSH2 0x1C2A JUMP JUMPDEST PUSH1 0x40 MLOAD DUP1 SWAP2 SUB SWAP1 LOG2 POP POP SWAP3 SWAP2 POP POP JUMP JUMPDEST PUSH1 0x0 DUP1 PUSH1 0x1 DUP2 PUSH1 0x1 DUP2 SLOAD ADD DUP1 DUP3 SSTORE DUP1 SWAP2 POP POP SUB SWAP1 PUSH1 0x0 MSTORE PUSH1 0x20 PUSH1 0x0 KECCAK256 SWAP1 PUSH1 0x5 MUL ADD SWAP1 POP DUP3 DUP2 PUSH1 0x0 ADD SWAP1 DUP2 PUSH2 0x729 SWAP2 SWAP1 PUSH2 0x1E5C JUMP JUMPDEST POP DUP2 DUP2 PUSH1 0x1 ADD SWAP1 DUP2 PUSH2 0x73B SWAP2 SWAP1 PUSH2 0x1E5C JUMP JUMPDEST POP CALLER DUP2 PUSH1 0x2 ADD PUSH1 0x0 PUSH2 0x100 EXP DUP2 SLOAD DUP2 PUSH20 0xFFFFFFFFFFFFFFFFFFFFFFFFFFFFFFFFFFFFFFFF MUL NOT AND SWAP1 DUP4 PUSH20 0xFFFFFFFFFFFFFFFFFFFFFFFFFFFFFFFFFFFFFFFF AND MUL OR SWAP1 SSTORE POP DUP1 PUSH1 0x3 ADD CALLER SWAP1 DUP1 PUSH1 0x1 DUP2 SLOAD ADD DUP1 DUP3 SSTORE DUP1 SWAP2 POP POP PUSH1 0x1 SWAP1 SUB SWAP1 PUSH1 0x0 MSTORE PUSH1 0x20 PUSH1 0x0 KECCAK256 ADD PUSH1 0x0 SWAP1 SWAP2 SWAP1 SWAP2 SWAP1 SWAP2 PUSH2 0x100 EXP DUP2 SLOAD DUP2 PUSH20 0xFFFFFFFFFFFFFFFFFFFFFFFFFFFFFFFFFFFFFFFF MUL NOT AND SWAP1 DUP4 PUSH20 0xFFFFFFFFFFFFFFFFFFFFFFFFFFFFFFFFFFFFFFFF AND MUL OR SWAP1 SSTORE POP PUSH1 0x1 DUP1 PUSH1 0x0 PUSH1 0x1 PUSH1 0x0 DUP1 SLOAD SWAP1 POP PUSH2 0x7FB SWAP2 SWAP1 PUSH2 0x1F5D JUMP JUMPDEST DUP2 MSTORE PUSH1 0x20 ADD SWAP1 DUP2 MSTORE PUSH1 0x20 ADD PUSH1 0x0 KECCAK256 PUSH1 0x0 CALLER PUSH20 0xFFFFFFFFFFFFFFFFFFFFFFFFFFFFFFFFFFFFFFFF AND PUSH20 0xFFFFFFFFFFFFFFFFFFFFFFFFFFFFFFFFFFFFFFFF AND DUP2 MSTORE PUSH1 0x20 ADD SWAP1 DUP2 MSTORE PUSH1 0x20 ADD PUSH1 0x0 KECCAK256 PUSH1 0x0 PUSH2 0x100 EXP DUP2 SLOAD DUP2 PUSH1 0xFF MUL NOT AND SWAP1 DUP4 ISZERO ISZERO MUL OR SWAP1 SSTORE POP PUSH1 0x1 PUSH1 0x0 DUP1 SLOAD SWAP1 POP PUSH2 0x86F SWAP2 SWAP1 PUSH2 0x1F5D JUMP JUMPDEST PUSH32 0x49A872C741F3C4F9C193B8354AA8ECE3949CFA2F32805280806BCB85FD3FC7D2 DUP5 DUP5 CALLER PUSH1 0x40 MLOAD PUSH2 0x8A2 SWAP4 SWAP3 SWAP2 SWAP1 PUSH2 0x1F91 JUMP JUMPDEST PUSH1 0x40 MLOAD DUP1 SWAP2 SUB SWAP1 LOG2 POP POP POP JUMP JUMPDEST PUSH2 0x8B7 PUSH2 0xE7D JUMP JUMPDEST PUSH2 0x8C1 PUSH1 0x0 PUSH2 0xF04 JUMP JUMPDEST JUMP JUMPDEST PUSH1 0x0 DUP2 DUP2 SLOAD DUP2 LT PUSH2 0x8D3 JUMPI PUSH1 0x0 DUP1 REVERT JUMPDEST SWAP1 PUSH1 0x0 MSTORE PUSH1 0x20 PUSH1 0x0 KECCAK256 SWAP1 PUSH1 0x5 MUL ADD PUSH1 0x0 SWAP2 POP SWAP1 POP DUP1 PUSH1 0x0 ADD DUP1 SLOAD PUSH2 0x8F6 SWAP1 PUSH2 0x1C89 JUMP JUMPDEST DUP1 PUSH1 0x1F ADD PUSH1 0x20 DUP1 SWAP2 DIV MUL PUSH1 0x20 ADD PUSH1 0x40 MLOAD SWAP1 DUP2 ADD PUSH1 0x40 MSTORE DUP1 SWAP3 SWAP2 SWAP1 DUP2 DUP2 MSTORE PUSH1 0x20 ADD DUP3 DUP1 SLOAD PUSH2 0x922 SWAP1 PUSH2 0x1C89 JUMP JUMPDEST DUP1 ISZERO PUSH2 0x96F JUMPI DUP1 PUSH1 0x1F LT PUSH2 0x944 JUMPI PUSH2 0x100 DUP1 DUP4 SLOAD DIV MUL DUP4 MSTORE SWAP2 PUSH1 0x20 ADD SWAP2 PUSH2 0x96F JUMP JUMPDEST DUP3 ADD SWAP2 SWAP1 PUSH1 0x0 MSTORE PUSH1 0x20 PUSH1 0x0 KECCAK256 SWAP1 JUMPDEST DUP2 SLOAD DUP2 MSTORE SWAP1 PUSH1 0x1 ADD SWAP1 PUSH1 0x20 ADD DUP1 DUP4 GT PUSH2 0x952 JUMPI DUP3 SWAP1 SUB PUSH1 0x1F AND DUP3 ADD SWAP2 JUMPDEST POP POP POP POP POP SWAP1 DUP1 PUSH1 0x1 ADD DUP1 SLOAD PUSH2 0x984 SWAP1 PUSH2 0x1C89 JUMP JUMPDEST DUP1 PUSH1 0x1F ADD PUSH1 0x20 DUP1 SWAP2 DIV MUL PUSH1 0x20 ADD PUSH1 0x40 MLOAD SWAP1 DUP2 ADD PUSH1 0x40 MSTORE DUP1 SWAP3 SWAP2 SWAP1 DUP2 DUP2 MSTORE PUSH1 0x20 ADD DUP3 DUP1 SLOAD PUSH2 0x9B0 SWAP1 PUSH2 0x1C89 JUMP JUMPDEST DUP1 ISZERO PUSH2 0x9FD JUMPI DUP1 PUSH1 0x1F LT PUSH2 0x9D2 JUMPI PUSH2 0x100 DUP1 DUP4 SLOAD DIV MUL DUP4 MSTORE SWAP2 PUSH1 0x20 ADD SWAP2 PUSH2 0x9FD JUMP JUMPDEST DUP3 ADD SWAP2 SWAP1 PUSH1 0x0 MSTORE PUSH1 0x20 PUSH1 0x0 KECCAK256 SWAP1 JUMPDEST DUP2 SLOAD DUP2 MSTORE SWAP1 PUSH1 0x1 ADD SWAP1 PUSH1 0x20 ADD DUP1 DUP4 GT PUSH2 0x9E0 JUMPI DUP3 SWAP1 SUB PUSH1 0x1F AND DUP3 ADD SWAP2 JUMPDEST POP POP POP POP POP SWAP1 DUP1 PUSH1 0x2 ADD PUSH1 0x0 SWAP1 SLOAD SWAP1 PUSH2 0x100 EXP SWAP1 DIV PUSH20 0xFFFFFFFFFFFFFFFFFFFFFFFFFFFFFFFFFFFFFFFF AND SWAP1 DUP1 PUSH1 0x4 ADD PUSH1 0x0 SWAP1 SLOAD SWAP1 PUSH2 0x100 EXP SWAP1 DIV PUSH1 0xFF AND SWAP1 POP DUP5 JUMP JUMPDEST PUSH1 0x0 DUP1 PUSH2 0xA4B PUSH2 0xFDB JUMP JUMPDEST SWAP1 POP DUP1 PUSH1 0x0 ADD PUSH1 0x0 SWAP1 SLOAD SWAP1 PUSH2 0x100 EXP SWAP1 DIV PUSH20 0xFFFFFFFFFFFFFFFFFFFFFFFFFFFFFFFFFFFFFFFF AND SWAP2 POP POP SWAP1 JUMP JUMPDEST PUSH1 0x0 DUP1 SLOAD SWAP1 POP DUP2 LT PUSH2 0xABF JUMPI PUSH1 0x40 MLOAD PUSH32 0x8C379A000000000000000000000000000000000000000000000000000000000 DUP2 MSTORE PUSH1 0x4 ADD PUSH2 0xAB6 SWAP1 PUSH2 0x194D JUMP JUMPDEST PUSH1 0x40 MLOAD DUP1 SWAP2 SUB SWAP1 REVERT JUMPDEST PUSH1 0x1 PUSH1 0x0 DUP3 DUP2 MSTORE PUSH1 0x20 ADD SWAP1 DUP2 MSTORE PUSH1 0x20 ADD PUSH1 0x0 KECCAK256 PUSH1 0x0 CALLER PUSH20 0xFFFFFFFFFFFFFFFFFFFFFFFFFFFFFFFFFFFFFFFF AND PUSH20 0xFFFFFFFFFFFFFFFFFFFFFFFFFFFFFFFFFFFFFFFF AND DUP2 MSTORE PUSH1 0x20 ADD SWAP1 DUP2 MSTORE PUSH1 0x20 ADD PUSH1 0x0 KECCAK256 PUSH1 0x0 SWAP1 SLOAD SWAP1 PUSH2 0x100 EXP SWAP1 DIV PUSH1 0xFF AND ISZERO PUSH2 0xB5D JUMPI PUSH1 0x40 MLOAD PUSH32 0x8C379A000000000000000000000000000000000000000000000000000000000 DUP2 MSTORE PUSH1 0x4 ADD PUSH2 0xB54 SWAP1 PUSH2 0x2022 JUMP JUMPDEST PUSH1 0x40 MLOAD DUP1 SWAP2 SUB SWAP1 REVERT JUMPDEST PUSH1 0x0 DUP2 DUP2 SLOAD DUP2 LT PUSH2 0xB71 JUMPI PUSH2 0xB70 PUSH2 0x196D JUMP JUMPDEST JUMPDEST SWAP1 PUSH1 0x0 MSTORE PUSH1 0x20 PUSH1 0x0 KECCAK256 SWAP1 PUSH1 0x5 MUL ADD PUSH1 0x3 ADD CALLER SWAP1 DUP1 PUSH1 0x1 DUP2 SLOAD ADD DUP1 DUP3 SSTORE DUP1 SWAP2 POP POP PUSH1 0x1 SWAP1 SUB SWAP1 PUSH1 0x0 MSTORE PUSH1 0x20 PUSH1 0x0 KECCAK256 ADD PUSH1 0x0 SWAP1 SWAP2 SWAP1 SWAP2 SWAP1 SWAP2 PUSH2 0x100 EXP DUP2 SLOAD DUP2 PUSH20 0xFFFFFFFFFFFFFFFFFFFFFFFFFFFFFFFFFFFFFFFF MUL NOT AND SWAP1 DUP4 PUSH20 0xFFFFFFFFFFFFFFFFFFFFFFFFFFFFFFFFFFFFFFFF AND MUL OR SWAP1 SSTORE POP PUSH1 0x1 DUP1 PUSH1 0x0 DUP4 DUP2 MSTORE PUSH1 0x20 ADD SWAP1 DUP2 MSTORE PUSH1 0x20 ADD PUSH1 0x0 KECCAK256 PUSH1 0x0 CALLER PUSH20 0xFFFFFFFFFFFFFFFFFFFFFFFFFFFFFFFFFFFFFFFF AND PUSH20 0xFFFFFFFFFFFFFFFFFFFFFFFFFFFFFFFFFFFFFFFF AND DUP2 MSTORE PUSH1 0x20 ADD SWAP1 DUP2 MSTORE PUSH1 0x20 ADD PUSH1 0x0 KECCAK256 PUSH1 0x0 PUSH2 0x100 EXP DUP2 SLOAD DUP2 PUSH1 0xFF MUL NOT AND SWAP1 DUP4 ISZERO ISZERO MUL OR SWAP1 SSTORE POP DUP1 PUSH32 0xB522D64CAD4307223F0ADF127090547B5AC523091D73F7832FD4349E6ECC633A CALLER PUSH1 0x40 MLOAD PUSH2 0xC7B SWAP2 SWAP1 PUSH2 0x1255 JUMP JUMPDEST PUSH1 0x40 MLOAD DUP1 SWAP2 SUB SWAP1 LOG2 POP JUMP JUMPDEST PUSH1 0x0 DUP1 DUP1 SLOAD SWAP1 POP SWAP1 POP SWAP1 JUMP JUMPDEST PUSH1 0x60 PUSH1 0x0 DUP1 SLOAD SWAP1 POP DUP3 LT PUSH2 0xCDB JUMPI PUSH1 0x40 MLOAD PUSH32 0x8C379A000000000000000000000000000000000000000000000000000000000 DUP2 MSTORE PUSH1 0x4 ADD PUSH2 0xCD2 SWAP1 PUSH2 0x194D JUMP JUMPDEST PUSH1 0x40 MLOAD DUP1 SWAP2 SUB SWAP1 REVERT JUMPDEST PUSH1 0x0 DUP3 DUP2 SLOAD DUP2 LT PUSH2 0xCEF JUMPI PUSH2 0xCEE PUSH2 0x196D JUMP JUMPDEST JUMPDEST SWAP1 PUSH1 0x0 MSTORE PUSH1 0x20 PUSH1 0x0 KECCAK256 SWAP1 PUSH1 0x5 MUL ADD PUSH1 0x3 ADD DUP1 SLOAD DUP1 PUSH1 0x20 MUL PUSH1 0x20 ADD PUSH1 0x40 MLOAD SWAP1 DUP2 ADD PUSH1 0x40 MSTORE DUP1 SWAP3 SWAP2 SWAP1 DUP2 DUP2 MSTORE PUSH1 0x20 ADD DUP3 DUP1 SLOAD DUP1 ISZERO PUSH2 0xD80 JUMPI PUSH1 0x20 MUL DUP3 ADD SWAP2 SWAP1 PUSH1 0x0 MSTORE PUSH1 0x20 PUSH1 0x0 KECCAK256 SWAP1 JUMPDEST DUP2 PUSH1 0x0 SWAP1 SLOAD SWAP1 PUSH2 0x100 EXP SWAP1 DIV PUSH20 0xFFFFFFFFFFFFFFFFFFFFFFFFFFFFFFFFFFFFFFFF AND PUSH20 0xFFFFFFFFFFFFFFFFFFFFFFFFFFFFFFFFFFFFFFFF AND DUP2 MSTORE PUSH1 0x20 ADD SWAP1 PUSH1 0x1 ADD SWAP1 DUP1 DUP4 GT PUSH2 0xD36 JUMPI JUMPDEST POP POP POP POP POP SWAP1 POP SWAP2 SWAP1 POP JUMP JUMPDEST PUSH1 0x1 PUSH1 0x20 MSTORE DUP2 PUSH1 0x0 MSTORE PUSH1 0x40 PUSH1 0x0 KECCAK256 PUSH1 0x20 MSTORE DUP1 PUSH1 0x0 MSTORE PUSH1 0x40 PUSH1 0x0 KECCAK256 PUSH1 0x0 SWAP2 POP SWAP2 POP SWAP1 SLOAD SWAP1 PUSH2 0x100 EXP SWAP1 DIV PUSH1 0xFF AND DUP2 JUMP JUMPDEST PUSH2 0xDC3 PUSH2 0xE7D JUMP JUMPDEST PUSH1 0x0 PUSH20 0xFFFFFFFFFFFFFFFFFFFFFFFFFFFFFFFFFFFFFFFF AND DUP2 PUSH20 0xFFFFFFFFFFFFFFFFFFFFFFFFFFFFFFFFFFFFFFFF AND SUB PUSH2 0xE35 JUMPI PUSH1 0x0 PUSH1 0x40 MLOAD PUSH32 0x1E4FBDF700000000000000000000000000000000000000000000000000000000 DUP2 MSTORE PUSH1 0x4 ADD PUSH2 0xE2C SWAP2 SWAP1 PUSH2 0x1255 JUMP JUMPDEST PUSH1 0x40 MLOAD DUP1 SWAP2 SUB SWAP1 REVERT JUMPDEST PUSH2 0xE3E DUP2 PUSH2 0xF04 JUMP JUMPDEST POP JUMP JUMPDEST PUSH1 0x0 DUP1 PUSH2 0xE4C PUSH2 0x1003 JUMP JUMPDEST SWAP1 POP DUP1 SWAP2 POP POP SWAP1 JUMP JUMPDEST PUSH2 0xE5D PUSH2 0x102E JUMP JUMPDEST PUSH2 0xE66 DUP2 PUSH2 0x106E JUMP JUMPDEST POP JUMP JUMPDEST PUSH1 0x0 PUSH2 0xE76 DUP3 PUSH1 0x0 PUSH2 0x10F4 JUMP JUMPDEST SWAP1 POP SWAP2 SWAP1 POP JUMP JUMPDEST PUSH2 0xE85 PUSH2 0x11EC JUMP JUMPDEST PUSH20 0xFFFFFFFFFFFFFFFFFFFFFFFFFFFFFFFFFFFFFFFF AND PUSH2 0xEA3 PUSH2 0xA40 JUMP JUMPDEST PUSH20 0xFFFFFFFFFFFFFFFFFFFFFFFFFFFFFFFFFFFFFFFF AND EQ PUSH2 0xF02 JUMPI PUSH2 0xEC6 PUSH2 0x11EC JUMP JUMPDEST PUSH1 0x40 MLOAD PUSH32 0x118CDAA700000000000000000000000000000000000000000000000000000000 DUP2 MSTORE PUSH1 0x4 ADD PUSH2 0xEF9 SWAP2 SWAP1 PUSH2 0x1255 JUMP JUMPDEST PUSH1 0x40 MLOAD DUP1 SWAP2 SUB SWAP1 REVERT JUMPDEST JUMP JUMPDEST PUSH1 0x0 PUSH2 0xF0E PUSH2 0xFDB JUMP JUMPDEST SWAP1 POP PUSH1 0x0 DUP2 PUSH1 0x0 ADD PUSH1 0x0 SWAP1 SLOAD SWAP1 PUSH2 0x100 EXP SWAP1 DIV PUSH20 0xFFFFFFFFFFFFFFFFFFFFFFFFFFFFFFFFFFFFFFFF AND SWAP1 POP DUP3 DUP3 PUSH1 0x0 ADD PUSH1 0x0 PUSH2 0x100 EXP DUP2 SLOAD DUP2 PUSH20 0xFFFFFFFFFFFFFFFFFFFFFFFFFFFFFFFFFFFFFFFF MUL NOT AND SWAP1 DUP4 PUSH20 0xFFFFFFFFFFFFFFFFFFFFFFFFFFFFFFFFFFFFFFFF AND MUL OR SWAP1 SSTORE POP DUP3 PUSH20 0xFFFFFFFFFFFFFFFFFFFFFFFFFFFFFFFFFFFFFFFF AND DUP2 PUSH20 0xFFFFFFFFFFFFFFFFFFFFFFFFFFFFFFFFFFFFFFFF AND PUSH32 0x8BE0079C531659141344CD1FD0A4F28419497F9722A3DAAFE3B4186F6B6457E0 PUSH1 0x40 MLOAD PUSH1 0x40 MLOAD DUP1 SWAP2 SUB SWAP1 LOG3 POP POP POP JUMP JUMPDEST PUSH1 0x0 PUSH32 0x9016D09D72D40FDAE2FD8CEAC6B6234C7706214FD39C1CD1E609A0528C199300 SWAP1 POP SWAP1 JUMP JUMPDEST PUSH1 0x0 PUSH32 0xF0C57E16840DF040F15088DC2F81FE391C3923BEC73E23A9662EFC9C229C6A00 PUSH1 0x0 SHL SWAP1 POP SWAP1 JUMP JUMPDEST PUSH2 0x1036 PUSH2 0x11F4 JUMP JUMPDEST PUSH2 0x106C JUMPI PUSH1 0x40 MLOAD PUSH32 0xD7E6BCF800000000000000000000000000000000000000000000000000000000 DUP2 MSTORE PUSH1 0x4 ADD PUSH1 0x40 MLOAD DUP1 SWAP2 SUB SWAP1 REVERT JUMPDEST JUMP JUMPDEST PUSH2 0x1076 PUSH2 0x102E JUMP JUMPDEST PUSH1 0x0 PUSH20 0xFFFFFFFFFFFFFFFFFFFFFFFFFFFFFFFFFFFFFFFF AND DUP2 PUSH20 0xFFFFFFFFFFFFFFFFFFFFFFFFFFFFFFFFFFFFFFFF AND SUB PUSH2 0x10E8 JUMPI PUSH1 0x0 PUSH1 0x40 MLOAD PUSH32 0x1E4FBDF700000000000000000000000000000000000000000000000000000000 DUP2 MSTORE PUSH1 0x4 ADD PUSH2 0x10DF SWAP2 SWAP1 PUSH2 0x1255 JUMP JUMPDEST PUSH1 0x40 MLOAD DUP1 SWAP2 SUB SWAP1 REVERT JUMPDEST PUSH2 0x10F1 DUP2 PUSH2 0xF04 JUMP JUMPDEST POP JUMP JUMPDEST PUSH1 0x0 DUP2 SELFBALANCE LT ISZERO PUSH2 0x113D JUMPI SELFBALANCE DUP3 PUSH1 0x40 MLOAD PUSH32 0xCF47918100000000000000000000000000000000000000000000000000000000 DUP2 MSTORE PUSH1 0x4 ADD PUSH2 0x1134 SWAP3 SWAP2 SWAP1 PUSH2 0x2042 JUMP JUMPDEST PUSH1 0x40 MLOAD DUP1 SWAP2 SUB SWAP1 REVERT JUMPDEST PUSH23 0x3D602D80600A3D3981F3363D3D373D3D3D363D73000000 DUP4 PUSH1 0x60 SHL PUSH1 0xE8 SHR OR PUSH1 0x0 MSTORE PUSH15 0x5AF43D82803E903D91602B57FD5BF3 DUP4 PUSH1 0x78 SHL OR PUSH1 0x20 MSTORE PUSH1 0x37 PUSH1 0x9 DUP4 CREATE SWAP1 POP PUSH1 0x0 PUSH20 0xFFFFFFFFFFFFFFFFFFFFFFFFFFFFFFFFFFFFFFFF AND DUP2 PUSH20 0xFFFFFFFFFFFFFFFFFFFFFFFFFFFFFFFFFFFFFFFF AND SUB PUSH2 0x11E6 JUMPI PUSH1 0x40 MLOAD PUSH32 0xB06EBF3D00000000000000000000000000000000000000000000000000000000 DUP2 MSTORE PUSH1 0x4 ADD PUSH1 0x40 MLOAD DUP1 SWAP2 SUB SWAP1 REVERT JUMPDEST SWAP3 SWAP2 POP POP JUMP JUMPDEST PUSH1 0x0 CALLER SWAP1 POP SWAP1 JUMP JUMPDEST PUSH1 0x0 PUSH2 0x11FE PUSH2 0xE41 JUMP JUMPDEST PUSH1 0x0 ADD PUSH1 0x8 SWAP1 SLOAD SWAP1 PUSH2 0x100 EXP SWAP1 DIV PUSH1 0xFF AND SWAP1 POP SWAP1 JUMP JUMPDEST PUSH1 0x0 PUSH20 0xFFFFFFFFFFFFFFFFFFFFFFFFFFFFFFFFFFFFFFFF DUP3 AND SWAP1 POP SWAP2 SWAP1 POP JUMP JUMPDEST PUSH1 0x0 PUSH2 0x123F DUP3 PUSH2 0x1214 JUMP JUMPDEST SWAP1 POP SWAP2 SWAP1 POP JUMP JUMPDEST PUSH2 0x124F DUP2 PUSH2 0x1234 JUMP JUMPDEST DUP3 MSTORE POP POP JUMP JUMPDEST PUSH1 0x0 PUSH1 0x20 DUP3 ADD SWAP1 POP PUSH2 0x126A PUSH1 0x0 DUP4 ADD DUP5 PUSH2 0x1246 JUMP JUMPDEST SWAP3 SWAP2 POP POP JUMP JUMPDEST PUSH1 0x0 PUSH1 0x40 MLOAD SWAP1 POP SWAP1 JUMP JUMPDEST PUSH1 0x0 DUP1 REVERT JUMPDEST PUSH1 0x0 DUP1 REVERT JUMPDEST PUSH2 0x128D DUP2 PUSH2 0x1234 JUMP JUMPDEST DUP2 EQ PUSH2 0x1298 JUMPI PUSH1 0x0 DUP1 REVERT JUMPDEST POP JUMP JUMPDEST PUSH1 0x0 DUP2 CALLDATALOAD SWAP1 POP PUSH2 0x12AA DUP2 PUSH2 0x1284 JUMP JUMPDEST SWAP3 SWAP2 POP POP JUMP JUMPDEST PUSH1 0x0 DUP1 PUSH1 0x40 DUP4 DUP6 SUB SLT ISZERO PUSH2 0x12C7 JUMPI PUSH2 0x12C6 PUSH2 0x127A JUMP JUMPDEST JUMPDEST PUSH1 0x0 PUSH2 0x12D5 DUP6 DUP3 DUP7 ADD PUSH2 0x129B JUMP JUMPDEST SWAP3 POP POP PUSH1 0x20 PUSH2 0x12E6 DUP6 DUP3 DUP7 ADD PUSH2 0x129B JUMP JUMPDEST SWAP2 POP POP SWAP3 POP SWAP3 SWAP1 POP JUMP JUMPDEST PUSH1 0x0 DUP2 SWAP1 POP SWAP2 SWAP1 POP JUMP JUMPDEST PUSH2 0x1303 DUP2 PUSH2 0x12F0 JUMP JUMPDEST DUP2 EQ PUSH2 0x130E JUMPI PUSH1 0x0 DUP1 REVERT JUMPDEST POP JUMP JUMPDEST PUSH1 0x0 DUP2 CALLDATALOAD SWAP1 POP PUSH2 0x1320 DUP2 PUSH2 0x12FA JUMP JUMPDEST SWAP3 SWAP2 POP POP JUMP JUMPDEST PUSH1 0x0 DUP1 REVERT JUMPDEST PUSH1 0x0 DUP1 REVERT JUMPDEST PUSH1 0x0 PUSH1 0x1F NOT PUSH1 0x1F DUP4 ADD AND SWAP1 POP SWAP2 SWAP1 POP JUMP JUMPDEST PUSH32 0x4E487B7100000000000000000000000000000000000000000000000000000000 PUSH1 0x0 MSTORE PUSH1 0x41 PUSH1 0x4 MSTORE PUSH1 0x24 PUSH1 0x0 REVERT JUMPDEST PUSH2 0x1379 DUP3 PUSH2 0x1330 JUMP JUMPDEST DUP2 ADD DUP2 DUP2 LT PUSH8 0xFFFFFFFFFFFFFFFF DUP3 GT OR ISZERO PUSH2 0x1398 JUMPI PUSH2 0x1397 PUSH2 0x1341 JUMP JUMPDEST JUMPDEST DUP1 PUSH1 0x40 MSTORE POP POP POP JUMP JUMPDEST PUSH1 0x0 PUSH2 0x13AB PUSH2 0x1270 JUMP JUMPDEST SWAP1 POP PUSH2 0x13B7 DUP3 DUP3 PUSH2 0x1370 JUMP JUMPDEST SWAP2 SWAP1 POP JUMP JUMPDEST PUSH1 0x0 PUSH8 0xFFFFFFFFFFFFFFFF DUP3 GT ISZERO PUSH2 0x13D7 JUMPI PUSH2 0x13D6 PUSH2 0x1341 JUMP JUMPDEST JUMPDEST PUSH2 0x13E0 DUP3 PUSH2 0x1330 JUMP JUMPDEST SWAP1 POP PUSH1 0x20 DUP2 ADD SWAP1 POP SWAP2 SWAP1 POP JUMP JUMPDEST DUP3 DUP2 DUP4 CALLDATACOPY PUSH1 0x0 DUP4 DUP4 ADD MSTORE POP POP POP JUMP JUMPDEST PUSH1 0x0 PUSH2 0x140F PUSH2 0x140A DUP5 PUSH2 0x13BC JUMP JUMPDEST PUSH2 0x13A1 JUMP JUMPDEST SWAP1 POP DUP3 DUP2 MSTORE PUSH1 0x20 DUP2 ADD DUP5 DUP5 DUP5 ADD GT ISZERO PUSH2 0x142B JUMPI PUSH2 0x142A PUSH2 0x132B JUMP JUMPDEST JUMPDEST PUSH2 0x1436 DUP5 DUP3 DUP6 PUSH2 0x13ED JUMP JUMPDEST POP SWAP4 SWAP3 POP POP POP JUMP JUMPDEST PUSH1 0x0 DUP3 PUSH1 0x1F DUP4 ADD SLT PUSH2 0x1453 JUMPI PUSH2 0x1452 PUSH2 0x1326 JUMP JUMPDEST JUMPDEST DUP2 CALLDATALOAD PUSH2 0x1463 DUP5 DUP3 PUSH1 0x20 DUP7 ADD PUSH2 0x13FC JUMP JUMPDEST SWAP2 POP POP SWAP3 SWAP2 POP POP JUMP JUMPDEST PUSH1 0x0 DUP1 PUSH1 0x40 DUP4 DUP6 SUB SLT ISZERO PUSH2 0x1483 JUMPI PUSH2 0x1482 PUSH2 0x127A JUMP JUMPDEST JUMPDEST PUSH1 0x0 PUSH2 0x1491 DUP6 DUP3 DUP7 ADD PUSH2 0x1311 JUMP JUMPDEST SWAP3 POP POP PUSH1 0x20 DUP4 ADD CALLDATALOAD PUSH8 0xFFFFFFFFFFFFFFFF DUP2 GT ISZERO PUSH2 0x14B2 JUMPI PUSH2 0x14B1 PUSH2 0x127F JUMP JUMPDEST JUMPDEST PUSH2 0x14BE DUP6 DUP3 DUP7 ADD PUSH2 0x143E JUMP JUMPDEST SWAP2 POP POP SWAP3 POP SWAP3 SWAP1 POP JUMP JUMPDEST PUSH1 0x0 PUSH8 0xFFFFFFFFFFFFFFFF DUP3 GT ISZERO PUSH2 0x14E3 JUMPI PUSH2 0x14E2 PUSH2 0x1341 JUMP JUMPDEST JUMPDEST PUSH2 0x14EC DUP3 PUSH2 0x1330 JUMP JUMPDEST SWAP1 POP PUSH1 0x20 DUP2 ADD SWAP1 POP SWAP2 SWAP1 POP JUMP JUMPDEST PUSH1 0x0 PUSH2 0x150C PUSH2 0x1507 DUP5 PUSH2 0x14C8 JUMP JUMPDEST PUSH2 0x13A1 JUMP JUMPDEST SWAP1 POP DUP3 DUP2 MSTORE PUSH1 0x20 DUP2 ADD DUP5 DUP5 DUP5 ADD GT ISZERO PUSH2 0x1528 JUMPI PUSH2 0x1527 PUSH2 0x132B JUMP JUMPDEST JUMPDEST PUSH2 0x1533 DUP5 DUP3 DUP6 PUSH2 0x13ED JUMP JUMPDEST POP SWAP4 SWAP3 POP POP POP JUMP JUMPDEST PUSH1 0x0 DUP3 PUSH1 0x1F DUP4 ADD SLT PUSH2 0x1550 JUMPI PUSH2 0x154F PUSH2 0x1326 JUMP JUMPDEST JUMPDEST DUP2 CALLDATALOAD PUSH2 0x1560 DUP5 DUP3 PUSH1 0x20 DUP7 ADD PUSH2 0x14F9 JUMP JUMPDEST SWAP2 POP POP SWAP3 SWAP2 POP POP JUMP JUMPDEST PUSH1 0x0 DUP1 PUSH1 0x40 DUP4 DUP6 SUB SLT ISZERO PUSH2 0x1580 JUMPI PUSH2 0x157F PUSH2 0x127A JUMP JUMPDEST JUMPDEST PUSH1 0x0 DUP4 ADD CALLDATALOAD PUSH8 0xFFFFFFFFFFFFFFFF DUP2 GT ISZERO PUSH2 0x159E JUMPI PUSH2 0x159D PUSH2 0x127F JUMP JUMPDEST JUMPDEST PUSH2 0x15AA DUP6 DUP3 DUP7 ADD PUSH2 0x153B JUMP JUMPDEST SWAP3 POP POP PUSH1 0x20 DUP4 ADD CALLDATALOAD PUSH8 0xFFFFFFFFFFFFFFFF DUP2 GT ISZERO PUSH2 0x15CB JUMPI PUSH2 0x15CA PUSH2 0x127F JUMP JUMPDEST JUMPDEST PUSH2 0x15D7 DUP6 DUP3 DUP7 ADD PUSH2 0x153B JUMP JUMPDEST SWAP2 POP POP SWAP3 POP SWAP3 SWAP1 POP JUMP JUMPDEST PUSH1 0x0 PUSH1 0x20 DUP3 DUP5 SUB SLT ISZERO PUSH2 0x15F7 JUMPI PUSH2 0x15F6 PUSH2 0x127A JUMP JUMPDEST JUMPDEST PUSH1 0x0 PUSH2 0x1605 DUP5 DUP3 DUP6 ADD PUSH2 0x1311 JUMP JUMPDEST SWAP2 POP POP SWAP3 SWAP2 POP POP JUMP JUMPDEST PUSH1 0x0 DUP2 MLOAD SWAP1 POP SWAP2 SWAP1 POP JUMP JUMPDEST PUSH1 0x0 DUP3 DUP3 MSTORE PUSH1 0x20 DUP3 ADD SWAP1 POP SWAP3 SWAP2 POP POP JUMP JUMPDEST PUSH1 0x0 JUMPDEST DUP4 DUP2 LT ISZERO PUSH2 0x1648 JUMPI DUP1 DUP3 ADD MLOAD DUP2 DUP5 ADD MSTORE PUSH1 0x20 DUP2 ADD SWAP1 POP PUSH2 0x162D JUMP JUMPDEST PUSH1 0x0 DUP5 DUP5 ADD MSTORE POP POP POP POP JUMP JUMPDEST PUSH1 0x0 PUSH2 0x165F DUP3 PUSH2 0x160E JUMP JUMPDEST PUSH2 0x1669 DUP2 DUP6 PUSH2 0x1619 JUMP JUMPDEST SWAP4 POP PUSH2 0x1679 DUP2 DUP6 PUSH1 0x20 DUP7 ADD PUSH2 0x162A JUMP JUMPDEST PUSH2 0x1682 DUP2 PUSH2 0x1330 JUMP JUMPDEST DUP5 ADD SWAP2 POP POP SWAP3 SWAP2 POP POP JUMP JUMPDEST PUSH1 0x0 DUP2 ISZERO ISZERO SWAP1 POP SWAP2 SWAP1 POP JUMP JUMPDEST PUSH2 0x16A2 DUP2 PUSH2 0x168D JUMP JUMPDEST DUP3 MSTORE POP POP JUMP JUMPDEST PUSH1 0x0 PUSH1 0x80 DUP3 ADD SWAP1 POP DUP2 DUP2 SUB PUSH1 0x0 DUP4 ADD MSTORE PUSH2 0x16C2 DUP2 DUP8 PUSH2 0x1654 JUMP JUMPDEST SWAP1 POP DUP2 DUP2 SUB PUSH1 0x20 DUP4 ADD MSTORE PUSH2 0x16D6 DUP2 DUP7 PUSH2 0x1654 JUMP JUMPDEST SWAP1 POP PUSH2 0x16E5 PUSH1 0x40 DUP4 ADD DUP6 PUSH2 0x1246 JUMP JUMPDEST PUSH2 0x16F2 PUSH1 0x60 DUP4 ADD DUP5 PUSH2 0x1699 JUMP JUMPDEST SWAP6 SWAP5 POP POP POP POP POP JUMP JUMPDEST PUSH2 0x1704 DUP2 PUSH2 0x12F0 JUMP JUMPDEST DUP3 MSTORE POP POP JUMP JUMPDEST PUSH1 0x0 PUSH1 0x20 DUP3 ADD SWAP1 POP PUSH2 0x171F PUSH1 0x0 DUP4 ADD DUP5 PUSH2 0x16FB JUMP JUMPDEST SWAP3 SWAP2 POP POP JUMP JUMPDEST PUSH1 0x0 DUP2 MLOAD SWAP1 POP SWAP2 SWAP1 POP JUMP JUMPDEST PUSH1 0x0 DUP3 DUP3 MSTORE PUSH1 0x20 DUP3 ADD SWAP1 POP SWAP3 SWAP2 POP POP JUMP JUMPDEST PUSH1 0x0 DUP2 SWAP1 POP PUSH1 0x20 DUP3 ADD SWAP1 POP SWAP2 SWAP1 POP JUMP JUMPDEST PUSH2 0x175A DUP2 PUSH2 0x1234 JUMP JUMPDEST DUP3 MSTORE POP POP JUMP JUMPDEST PUSH1 0x0 PUSH2 0x176C DUP4 DUP4 PUSH2 0x1751 JUMP JUMPDEST PUSH1 0x20 DUP4 ADD SWAP1 POP SWAP3 SWAP2 POP POP JUMP JUMPDEST PUSH1 0x0 PUSH1 0x20 DUP3 ADD SWAP1 POP SWAP2 SWAP1 POP JUMP JUMPDEST PUSH1 0x0 PUSH2 0x1790 DUP3 PUSH2 0x1725 JUMP JUMPDEST PUSH2 0x179A DUP2 DUP6 PUSH2 0x1730 JUMP JUMPDEST SWAP4 POP PUSH2 0x17A5 DUP4 PUSH2 0x1741 JUMP JUMPDEST DUP1 PUSH1 0x0 JUMPDEST DUP4 DUP2 LT ISZERO PUSH2 0x17D6 JUMPI DUP2 MLOAD PUSH2 0x17BD DUP9 DUP3 PUSH2 0x1760 JUMP JUMPDEST SWAP8 POP PUSH2 0x17C8 DUP4 PUSH2 0x1778 JUMP JUMPDEST SWAP3 POP POP PUSH1 0x1 DUP2 ADD SWAP1 POP PUSH2 0x17A9 JUMP JUMPDEST POP DUP6 SWAP4 POP POP POP POP SWAP3 SWAP2 POP POP JUMP JUMPDEST PUSH1 0x0 PUSH1 0x20 DUP3 ADD SWAP1 POP DUP2 DUP2 SUB PUSH1 0x0 DUP4 ADD MSTORE PUSH2 0x17FD DUP2 DUP5 PUSH2 0x1785 JUMP JUMPDEST SWAP1 POP SWAP3 SWAP2 POP POP JUMP JUMPDEST PUSH1 0x0 DUP1 PUSH1 0x40 DUP4 DUP6 SUB SLT ISZERO PUSH2 0x181C JUMPI PUSH2 0x181B PUSH2 0x127A JUMP JUMPDEST JUMPDEST PUSH1 0x0 PUSH2 0x182A DUP6 DUP3 DUP7 ADD PUSH2 0x1311 JUMP JUMPDEST SWAP3 POP POP PUSH1 0x20 PUSH2 0x183B DUP6 DUP3 DUP7 ADD PUSH2 0x129B JUMP JUMPDEST SWAP2 POP POP SWAP3 POP SWAP3 SWAP1 POP JUMP JUMPDEST PUSH1 0x0 PUSH1 0x20 DUP3 ADD SWAP1 POP PUSH2 0x185A PUSH1 0x0 DUP4 ADD DUP5 PUSH2 0x1699 JUMP JUMPDEST SWAP3 SWAP2 POP POP JUMP JUMPDEST PUSH1 0x0 PUSH1 0x20 DUP3 DUP5 SUB SLT ISZERO PUSH2 0x1876 JUMPI PUSH2 0x1875 PUSH2 0x127A JUMP JUMPDEST JUMPDEST PUSH1 0x0 PUSH2 0x1884 DUP5 DUP3 DUP6 ADD PUSH2 0x129B JUMP JUMPDEST SWAP2 POP POP SWAP3 SWAP2 POP POP JUMP JUMPDEST PUSH1 0x0 DUP2 SWAP1 POP SWAP2 SWAP1 POP JUMP JUMPDEST PUSH1 0x0 PUSH8 0xFFFFFFFFFFFFFFFF DUP3 AND SWAP1 POP SWAP2 SWAP1 POP JUMP JUMPDEST PUSH1 0x0 DUP2 SWAP1 POP SWAP2 SWAP1 POP JUMP JUMPDEST PUSH1 0x0 PUSH2 0x18D0 PUSH2 0x18CB PUSH2 0x18C6 DUP5 PUSH2 0x188D JUMP JUMPDEST PUSH2 0x18AB JUMP JUMPDEST PUSH2 0x1897 JUMP JUMPDEST SWAP1 POP SWAP2 SWAP1 POP JUMP JUMPDEST PUSH2 0x18E0 DUP2 PUSH2 0x18B5 JUMP JUMPDEST DUP3 MSTORE POP POP JUMP JUMPDEST PUSH1 0x0 PUSH1 0x20 DUP3 ADD SWAP1 POP PUSH2 0x18FB PUSH1 0x0 DUP4 ADD DUP5 PUSH2 0x18D7 JUMP JUMPDEST SWAP3 SWAP2 POP POP JUMP JUMPDEST PUSH32 0x496E76616C696420696E69746961746976650000000000000000000000000000 PUSH1 0x0 DUP3 ADD MSTORE POP JUMP JUMPDEST PUSH1 0x0 PUSH2 0x1937 PUSH1 0x12 DUP4 PUSH2 0x1619 JUMP JUMPDEST SWAP2 POP PUSH2 0x1942 DUP3 PUSH2 0x1901 JUMP JUMPDEST PUSH1 0x20 DUP3 ADD SWAP1 POP SWAP2 SWAP1 POP JUMP JUMPDEST PUSH1 0x0 PUSH1 0x20 DUP3 ADD SWAP1 POP DUP2 DUP2 SUB PUSH1 0x0 DUP4 ADD MSTORE PUSH2 0x1966 DUP2 PUSH2 0x192A JUMP JUMPDEST SWAP1 POP SWAP2 SWAP1 POP JUMP JUMPDEST PUSH32 0x4E487B7100000000000000000000000000000000000000000000000000000000 PUSH1 0x0 MSTORE PUSH1 0x32 PUSH1 0x4 MSTORE PUSH1 0x24 PUSH1 0x0 REVERT JUMPDEST PUSH32 0x416C7265616479206C61756E6368656400000000000000000000000000000000 PUSH1 0x0 DUP3 ADD MSTORE POP JUMP JUMPDEST PUSH1 0x0 PUSH2 0x19D2 PUSH1 0x10 DUP4 PUSH2 0x1619 JUMP JUMPDEST SWAP2 POP PUSH2 0x19DD DUP3 PUSH2 0x199C JUMP JUMPDEST PUSH1 0x20 DUP3 ADD SWAP1 POP SWAP2 SWAP1 POP JUMP JUMPDEST PUSH1 0x0 PUSH1 0x20 DUP3 ADD SWAP1 POP DUP2 DUP2 SUB PUSH1 0x0 DUP4 ADD MSTORE PUSH2 0x1A01 DUP2 PUSH2 0x19C5 JUMP JUMPDEST SWAP1 POP SWAP2 SWAP1 POP JUMP JUMPDEST PUSH32 0x4E6F74206120706172746E657200000000000000000000000000000000000000 PUSH1 0x0 DUP3 ADD MSTORE POP JUMP JUMPDEST PUSH1 0x0 PUSH2 0x1A3E PUSH1 0xD DUP4 PUSH2 0x1619 JUMP JUMPDEST SWAP2 POP PUSH2 0x1A49 DUP3 PUSH2 0x1A08 JUMP JUMPDEST PUSH1 0x20 DUP3 ADD SWAP1 POP SWAP2 SWAP1 POP JUMP JUMPDEST PUSH1 0x0 PUSH1 0x20 DUP3 ADD SWAP1 POP DUP2 DUP2 SUB PUSH1 0x0 DUP4 ADD MSTORE PUSH2 0x1A6D DUP2 PUSH2 0x1A31 JUMP JUMPDEST SWAP1 POP SWAP2 SWAP1 POP JUMP JUMPDEST PUSH1 0x0 DUP2 MLOAD SWAP1 POP SWAP2 SWAP1 POP JUMP JUMPDEST PUSH1 0x0 DUP2 SWAP1 POP SWAP3 SWAP2 POP POP JUMP JUMPDEST PUSH1 0x0 PUSH2 0x1A95 DUP3 PUSH2 0x1A74 JUMP JUMPDEST PUSH2 0x1A9F DUP2 DUP6 PUSH2 0x1A7F JUMP JUMPDEST SWAP4 POP PUSH2 0x1AAF DUP2 DUP6 PUSH1 0x20 DUP7 ADD PUSH2 0x162A JUMP JUMPDEST DUP1 DUP5 ADD SWAP2 POP POP SWAP3 SWAP2 POP POP JUMP JUMPDEST PUSH1 0x0 PUSH2 0x1AC7 DUP3 DUP5 PUSH2 0x1A8A JUMP JUMPDEST SWAP2 POP DUP2 SWAP1 POP SWAP3 SWAP2 POP POP JUMP JUMPDEST PUSH32 0x496E697469616C697A6174696F6E206661696C65640000000000000000000000 PUSH1 0x0 DUP3 ADD MSTORE POP JUMP JUMPDEST PUSH1 0x0 PUSH2 0x1B08 PUSH1 0x15 DUP4 PUSH2 0x1619 JUMP JUMPDEST SWAP2 POP PUSH2 0x1B13 DUP3 PUSH2 0x1AD2 JUMP JUMPDEST PUSH1 0x20 DUP3 ADD SWAP1 POP SWAP2 SWAP1 POP JUMP JUMPDEST PUSH1 0x0 PUSH1 0x20 DUP3 ADD SWAP1 POP DUP2 DUP2 SUB PUSH1 0x0 DUP4 ADD MSTORE PUSH2 0x1B37 DUP2 PUSH2 0x1AFB JUMP JUMPDEST SWAP1 POP SWAP2 SWAP1 POP JUMP JUMPDEST PUSH1 0x0 DUP2 SLOAD SWAP1 POP SWAP2 SWAP1 POP JUMP JUMPDEST PUSH1 0x0 DUP2 SWAP1 POP DUP2 PUSH1 0x0 MSTORE PUSH1 0x20 PUSH1 0x0 KECCAK256 SWAP1 POP SWAP2 SWAP1 POP JUMP JUMPDEST PUSH1 0x0 DUP2 PUSH1 0x0 SHR SWAP1 POP SWAP2 SWAP1 POP JUMP JUMPDEST PUSH1 0x0 PUSH20 0xFFFFFFFFFFFFFFFFFFFFFFFFFFFFFFFFFFFFFFFF DUP3 AND SWAP1 POP SWAP2 SWAP1 POP JUMP JUMPDEST PUSH1 0x0 PUSH2 0x1B9E PUSH2 0x1B99 DUP4 PUSH2 0x1B5E JUMP JUMPDEST PUSH2 0x1B6B JUMP JUMPDEST SWAP1 POP SWAP2 SWAP1 POP JUMP JUMPDEST PUSH1 0x0 PUSH2 0x1BB1 DUP3 SLOAD PUSH2 0x1B8B JUMP JUMPDEST SWAP1 POP SWAP2 SWAP1 POP JUMP JUMPDEST PUSH1 0x0 PUSH1 0x1 DUP3 ADD SWAP1 POP SWAP2 SWAP1 POP JUMP JUMPDEST PUSH1 0x0 PUSH2 0x1BD0 DUP3 PUSH2 0x1B3E JUMP JUMPDEST PUSH2 0x1BDA DUP2 DUP6 PUSH2 0x1730 JUMP JUMPDEST SWAP4 POP PUSH2 0x1BE5 DUP4 PUSH2 0x1B49 JUMP JUMPDEST DUP1 PUSH1 0x0 JUMPDEST DUP4 DUP2 LT ISZERO PUSH2 0x1C1D JUMPI PUSH2 0x1BFA DUP3 PUSH2 0x1BA5 JUMP JUMPDEST PUSH2 0x1C04 DUP9 DUP3 PUSH2 0x1760 JUMP JUMPDEST SWAP8 POP PUSH2 0x1C0F DUP4 PUSH2 0x1BB8 JUMP JUMPDEST SWAP3 POP POP PUSH1 0x1 DUP2 ADD SWAP1 POP PUSH2 0x1BE9 JUMP JUMPDEST POP DUP6 SWAP4 POP POP POP POP SWAP3 SWAP2 POP POP JUMP JUMPDEST PUSH1 0x0 PUSH1 0x40 DUP3 ADD SWAP1 POP PUSH2 0x1C3F PUSH1 0x0 DUP4 ADD DUP6 PUSH2 0x1246 JUMP JUMPDEST DUP2 DUP2 SUB PUSH1 0x20 DUP4 ADD MSTORE PUSH2 0x1C51 DUP2 DUP5 PUSH2 0x1BC5 JUMP JUMPDEST SWAP1 POP SWAP4 SWAP3 POP POP POP JUMP JUMPDEST PUSH32 0x4E487B7100000000000000000000000000000000000000000000000000000000 PUSH1 0x0 MSTORE PUSH1 0x22 PUSH1 0x4 MSTORE PUSH1 0x24 PUSH1 0x0 REVERT JUMPDEST PUSH1 0x0 PUSH1 0x2 DUP3 DIV SWAP1 POP PUSH1 0x1 DUP3 AND DUP1 PUSH2 0x1CA1 JUMPI PUSH1 0x7F DUP3 AND SWAP2 POP JUMPDEST PUSH1 0x20 DUP3 LT DUP2 SUB PUSH2 0x1CB4 JUMPI PUSH2 0x1CB3 PUSH2 0x1C5A JUMP JUMPDEST JUMPDEST POP SWAP2 SWAP1 POP JUMP JUMPDEST PUSH1 0x0 DUP2 SWAP1 POP DUP2 PUSH1 0x0 MSTORE PUSH1 0x20 PUSH1 0x0 KECCAK256 SWAP1 POP SWAP2 SWAP1 POP JUMP JUMPDEST PUSH1 0x0 PUSH1 0x20 PUSH1 0x1F DUP4 ADD DIV SWAP1 POP SWAP2 SWAP1 POP JUMP JUMPDEST PUSH1 0x0 DUP3 DUP3 SHL SWAP1 POP SWAP3 SWAP2 POP POP JUMP JUMPDEST PUSH1 0x0 PUSH1 0x8 DUP4 MUL PUSH2 0x1D1C PUSH32 0xFFFFFFFFFFFFFFFFFFFFFFFFFFFFFFFFFFFFFFFFFFFFFFFFFFFFFFFFFFFFFFFF DUP3 PUSH2 0x1CDF JUMP JUMPDEST PUSH2 0x1D26 DUP7 DUP4 PUSH2 0x1CDF JUMP JUMPDEST SWAP6 POP DUP1 NOT DUP5 AND SWAP4 POP DUP1 DUP7 AND DUP5 OR SWAP3 POP POP POP SWAP4 SWAP3 POP POP POP JUMP JUMPDEST PUSH1 0x0 PUSH2 0x1D59 PUSH2 0x1D54 PUSH2 0x1D4F DUP5 PUSH2 0x12F0 JUMP JUMPDEST PUSH2 0x18AB JUMP JUMPDEST PUSH2 0x12F0 JUMP JUMPDEST SWAP1 POP SWAP2 SWAP1 POP JUMP JUMPDEST PUSH1 0x0 DUP2 SWAP1 POP SWAP2 SWAP1 POP JUMP JUMPDEST PUSH2 0x1D73 DUP4 PUSH2 0x1D3E JUMP JUMPDEST PUSH2 0x1D87 PUSH2 0x1D7F DUP3 PUSH2 0x1D60 JUMP JUMPDEST DUP5 DUP5 SLOAD PUSH2 0x1CEC JUMP JUMPDEST DUP3 SSTORE POP POP POP POP JUMP JUMPDEST PUSH1 0x0 SWAP1 JUMP JUMPDEST PUSH2 0x1D9C PUSH2 0x1D8F JUMP JUMPDEST PUSH2 0x1DA7 DUP2 DUP5 DUP5 PUSH2 0x1D6A JUMP JUMPDEST POP POP POP JUMP JUMPDEST JUMPDEST DUP2 DUP2 LT ISZERO PUSH2 0x1DCB JUMPI PUSH2 0x1DC0 PUSH1 0x0 DUP3 PUSH2 0x1D94 JUMP JUMPDEST PUSH1 0x1 DUP2 ADD SWAP1 POP PUSH2 0x1DAD JUMP JUMPDEST POP POP JUMP JUMPDEST PUSH1 0x1F DUP3 GT ISZERO PUSH2 0x1E10 JUMPI PUSH2 0x1DE1 DUP2 PUSH2 0x1CBA JUMP JUMPDEST PUSH2 0x1DEA DUP5 PUSH2 0x1CCF JUMP JUMPDEST DUP2 ADD PUSH1 0x20 DUP6 LT ISZERO PUSH2 0x1DF9 JUMPI DUP2 SWAP1 POP JUMPDEST PUSH2 0x1E0D PUSH2 0x1E05 DUP6 PUSH2 0x1CCF JUMP JUMPDEST DUP4 ADD DUP3 PUSH2 0x1DAC JUMP JUMPDEST POP POP JUMPDEST POP POP POP JUMP JUMPDEST PUSH1 0x0 DUP3 DUP3 SHR SWAP1 POP SWAP3 SWAP2 POP POP JUMP JUMPDEST PUSH1 0x0 PUSH2 0x1E33 PUSH1 0x0 NOT DUP5 PUSH1 0x8 MUL PUSH2 0x1E15 JUMP JUMPDEST NOT DUP1 DUP4 AND SWAP2 POP POP SWAP3 SWAP2 POP POP JUMP JUMPDEST PUSH1 0x0 PUSH2 0x1E4C DUP4 DUP4 PUSH2 0x1E22 JUMP JUMPDEST SWAP2 POP DUP3 PUSH1 0x2 MUL DUP3 OR SWAP1 POP SWAP3 SWAP2 POP POP JUMP JUMPDEST PUSH2 0x1E65 DUP3 PUSH2 0x160E JUMP JUMPDEST PUSH8 0xFFFFFFFFFFFFFFFF DUP2 GT ISZERO PUSH2 0x1E7E JUMPI PUSH2 0x1E7D PUSH2 0x1341 JUMP JUMPDEST JUMPDEST PUSH2 0x1E88 DUP3 SLOAD PUSH2 0x1C89 JUMP JUMPDEST PUSH2 0x1E93 DUP3 DUP3 DUP6 PUSH2 0x1DCF JUMP JUMPDEST PUSH1 0x0 PUSH1 0x20 SWAP1 POP PUSH1 0x1F DUP4 GT PUSH1 0x1 DUP2 EQ PUSH2 0x1EC6 JUMPI PUSH1 0x0 DUP5 ISZERO PUSH2 0x1EB4 JUMPI DUP3 DUP8 ADD MLOAD SWAP1 POP JUMPDEST PUSH2 0x1EBE DUP6 DUP3 PUSH2 0x1E40 JUMP JUMPDEST DUP7 SSTORE POP PUSH2 0x1F26 JUMP JUMPDEST PUSH1 0x1F NOT DUP5 AND PUSH2 0x1ED4 DUP7 PUSH2 0x1CBA JUMP JUMPDEST PUSH1 0x0 JUMPDEST DUP3 DUP2 LT ISZERO PUSH2 0x1EFC JUMPI DUP5 DUP10 ADD MLOAD DUP3 SSTORE PUSH1 0x1 DUP3 ADD SWAP2 POP PUSH1 0x20 DUP6 ADD SWAP5 POP PUSH1 0x20 DUP2 ADD SWAP1 POP PUSH2 0x1ED7 JUMP JUMPDEST DUP7 DUP4 LT ISZERO PUSH2 0x1F19 JUMPI DUP5 DUP10 ADD MLOAD PUSH2 0x1F15 PUSH1 0x1F DUP10 AND DUP3 PUSH2 0x1E22 JUMP JUMPDEST DUP4 SSTORE POP JUMPDEST PUSH1 0x1 PUSH1 0x2 DUP9 MUL ADD DUP9 SSTORE POP POP POP JUMPDEST POP POP POP POP POP POP JUMP JUMPDEST PUSH32 0x4E487B7100000000000000000000000000000000000000000000000000000000 PUSH1 0x0 MSTORE PUSH1 0x11 PUSH1 0x4 MSTORE PUSH1 0x24 PUSH1 0x0 REVERT JUMPDEST PUSH1 0x0 PUSH2 0x1F68 DUP3 PUSH2 0x12F0 JUMP JUMPDEST SWAP2 POP PUSH2 0x1F73 DUP4 PUSH2 0x12F0 JUMP JUMPDEST SWAP3 POP DUP3 DUP3 SUB SWAP1 POP DUP2 DUP2 GT ISZERO PUSH2 0x1F8B JUMPI PUSH2 0x1F8A PUSH2 0x1F2E JUMP JUMPDEST JUMPDEST SWAP3 SWAP2 POP POP JUMP JUMPDEST PUSH1 0x0 PUSH1 0x60 DUP3 ADD SWAP1 POP DUP2 DUP2 SUB PUSH1 0x0 DUP4 ADD MSTORE PUSH2 0x1FAB DUP2 DUP7 PUSH2 0x1654 JUMP JUMPDEST SWAP1 POP DUP2 DUP2 SUB PUSH1 0x20 DUP4 ADD MSTORE PUSH2 0x1FBF DUP2 DUP6 PUSH2 0x1654 JUMP JUMPDEST SWAP1 POP PUSH2 0x1FCE PUSH1 0x40 DUP4 ADD DUP5 PUSH2 0x1246 JUMP JUMPDEST SWAP5 SWAP4 POP POP POP POP JUMP JUMPDEST PUSH32 0x416C7265616479206120706172746E6572000000000000000000000000000000 PUSH1 0x0 DUP3 ADD MSTORE POP JUMP JUMPDEST PUSH1 0x0 PUSH2 0x200C PUSH1 0x11 DUP4 PUSH2 0x1619 JUMP JUMPDEST SWAP2 POP PUSH2 0x2017 DUP3 PUSH2 0x1FD6 JUMP JUMPDEST PUSH1 0x20 DUP3 ADD SWAP1 POP SWAP2 SWAP1 POP JUMP JUMPDEST PUSH1 0x0 PUSH1 0x20 DUP3 ADD SWAP1 POP DUP2 DUP2 SUB PUSH1 0x0 DUP4 ADD MSTORE PUSH2 0x203B DUP2 PUSH2 0x1FFF JUMP JUMPDEST SWAP1 POP SWAP2 SWAP1 POP JUMP JUMPDEST PUSH1 0x0 PUSH1 0x40 DUP3 ADD SWAP1 POP PUSH2 0x2057 PUSH1 0x0 DUP4 ADD DUP6 PUSH2 0x16FB JUMP JUMPDEST PUSH2 0x2064 PUSH1 0x20 DUP4 ADD DUP5 PUSH2 0x16FB JUMP JUMPDEST SWAP4 SWAP3 POP POP POP JUMP INVALID LOG2 PUSH5 0x6970667358 0x22 SLT KECCAK256 0xB3 0xAF 0xDD 0x4C 0xD0 0xF RETURN 0xE5 0xA9 MSIZE 0xCB SWAP13 0xB9 0x29 PUSH10 0xAF9A3826AD6A8F71F318 SWAP2 SLOAD 0xC1 DUP2 PUSH13 0xD7D764736F6C634300081C0033 "
        },
        "methodIdentifiers": {
          "createInitiative(string,string)": "6e430ce6",
          "getInitiativesCount()": "91261b1d",
          "getPartners(uint256)": "a8cbf238",
          "initialize(address,address)": "485cc955",
          "initiatives(uint256)": "7dad0623",
          "isPartner(uint256,address)": "bdd1603a",
          "joinInitiative(uint256)": "8f2d9098",
          "launchOrganization(uint256,bytes)": "6503a867",
          "organizationImplementation()": "15eb78e3",
          "owner()": "8da5cb5b",
          "renounceOwnership()": "715018a6",
          "transferOwnership(address)": "f2fde38b"
        }
      }
    }
  }
}