{
  "_format": "hh-sol-artifact-1",
  "contractName": "HolacracyFactory",
  "sourceName": "contracts/HolacracyFactory.sol",
  "abi": [
    {
      "inputs": [],
      "name": "InvalidInitialization",
      "type": "error"
    },
    {
      "inputs": [],
      "name": "NotInitializing",
      "type": "error"
    },
    {
      "inputs": [
        {
          "internalType": "address",
          "name": "owner",
          "type": "address"
        }
      ],
      "name": "OwnableInvalidOwner",
      "type": "error"
    },
    {
      "inputs": [
        {
          "internalType": "address",
          "name": "account",
          "type": "address"
        }
      ],
      "name": "OwnableUnauthorizedAccount",
      "type": "error"
    },
    {
      "anonymous": false,
      "inputs": [
        {
          "indexed": true,
          "internalType": "uint256",
          "name": "initiativeId",
          "type": "uint256"
        },
        {
          "indexed": false,
          "internalType": "address",
          "name": "partner",
          "type": "address"
        }
      ],
      "name": "ConstitutionSigned",
      "type": "event"
    },
    {
      "anonymous": false,
      "inputs": [
        {
          "indexed": false,
          "internalType": "uint64",
          "name": "version",
          "type": "uint64"
        }
      ],
      "name": "Initialized",
      "type": "event"
    },
    {
      "anonymous": false,
      "inputs": [
        {
          "indexed": true,
          "internalType": "uint256",
          "name": "id",
          "type": "uint256"
        },
        {
          "indexed": false,
          "internalType": "string",
          "name": "name",
          "type": "string"
        },
        {
          "indexed": false,
          "internalType": "string",
          "name": "purpose",
          "type": "string"
        },
        {
          "indexed": false,
          "internalType": "address",
          "name": "creator",
          "type": "address"
        }
      ],
      "name": "InitiativeCreated",
      "type": "event"
    },
    {
      "anonymous": false,
      "inputs": [
        {
          "indexed": true,
          "internalType": "uint256",
          "name": "initiativeId",
          "type": "uint256"
        },
        {
          "indexed": false,
          "internalType": "address",
          "name": "org",
          "type": "address"
        },
        {
          "indexed": false,
          "internalType": "address[]",
          "name": "founders",
          "type": "address[]"
        }
      ],
      "name": "OrganizationDeployed",
      "type": "event"
    },
    {
      "anonymous": false,
      "inputs": [
        {
          "indexed": true,
          "internalType": "address",
          "name": "previousOwner",
          "type": "address"
        },
        {
          "indexed": true,
          "internalType": "address",
          "name": "newOwner",
          "type": "address"
        }
      ],
      "name": "OwnershipTransferred",
      "type": "event"
    },
    {
      "inputs": [],
      "name": "constitutionURI",
      "outputs": [
        {
          "internalType": "string",
          "name": "",
          "type": "string"
        }
      ],
      "stateMutability": "view",
      "type": "function"
    },
    {
      "inputs": [
        {
          "internalType": "string",
          "name": "name",
          "type": "string"
        },
        {
          "internalType": "string",
          "name": "purpose",
          "type": "string"
        }
      ],
      "name": "createInitiative",
      "outputs": [],
      "stateMutability": "nonpayable",
      "type": "function"
    },
    {
      "inputs": [
        {
          "internalType": "uint256",
          "name": "i",
          "type": "uint256"
        }
      ],
      "name": "getInitiative",
      "outputs": [
        {
          "internalType": "string",
          "name": "name",
          "type": "string"
        },
        {
          "internalType": "string",
          "name": "purpose",
          "type": "string"
        },
        {
          "internalType": "address",
          "name": "creator",
          "type": "address"
        },
        {
          "internalType": "address[]",
          "name": "partners",
          "type": "address[]"
        },
        {
          "internalType": "bool",
          "name": "launched",
          "type": "bool"
        },
        {
          "internalType": "address",
          "name": "orgAddress",
          "type": "address"
        }
      ],
      "stateMutability": "view",
      "type": "function"
    },
    {
      "inputs": [],
      "name": "getInitiativesCount",
      "outputs": [
        {
          "internalType": "uint256",
          "name": "",
          "type": "uint256"
        }
      ],
      "stateMutability": "view",
      "type": "function"
    },
    {
      "inputs": [
        {
          "internalType": "uint256",
          "name": "initiativeId",
          "type": "uint256"
        }
      ],
      "name": "getPartners",
      "outputs": [
        {
          "internalType": "address[]",
          "name": "",
          "type": "address[]"
        }
      ],
      "stateMutability": "view",
      "type": "function"
    },
    {
      "inputs": [
        {
          "internalType": "address",
          "name": "_organizationBeacon",
          "type": "address"
        },
        {
          "internalType": "address",
          "name": "_owner",
          "type": "address"
        }
      ],
      "name": "initialize",
      "outputs": [],
      "stateMutability": "nonpayable",
      "type": "function"
    },
    {
      "inputs": [
        {
          "internalType": "uint256",
          "name": "",
          "type": "uint256"
        }
      ],
      "name": "initiatives",
      "outputs": [
        {
          "internalType": "string",
          "name": "name",
          "type": "string"
        },
        {
          "internalType": "string",
          "name": "purpose",
          "type": "string"
        },
        {
          "internalType": "address",
          "name": "creator",
          "type": "address"
        },
        {
          "internalType": "bool",
          "name": "launched",
          "type": "bool"
        },
        {
          "internalType": "address",
          "name": "orgAddress",
          "type": "address"
        }
      ],
      "stateMutability": "view",
      "type": "function"
    },
    {
      "inputs": [
        {
          "internalType": "uint256",
          "name": "",
          "type": "uint256"
        },
        {
          "internalType": "address",
          "name": "",
          "type": "address"
        }
      ],
      "name": "isPartner",
      "outputs": [
        {
          "internalType": "bool",
          "name": "",
          "type": "bool"
        }
      ],
      "stateMutability": "view",
      "type": "function"
    },
    {
      "inputs": [
        {
          "internalType": "uint256",
          "name": "initiativeId",
          "type": "uint256"
        },
        {
          "internalType": "bytes",
          "name": "initData",
          "type": "bytes"
        }
      ],
      "name": "launchOrganization",
      "outputs": [
        {
          "internalType": "address",
          "name": "org",
          "type": "address"
        }
      ],
      "stateMutability": "nonpayable",
      "type": "function"
    },
    {
      "inputs": [],
      "name": "organizationBeacon",
      "outputs": [
        {
          "internalType": "address",
          "name": "",
          "type": "address"
        }
      ],
      "stateMutability": "view",
      "type": "function"
    },
    {
      "inputs": [],
      "name": "owner",
      "outputs": [
        {
          "internalType": "address",
          "name": "",
          "type": "address"
        }
      ],
      "stateMutability": "view",
      "type": "function"
    },
    {
      "inputs": [],
      "name": "renounceOwnership",
      "outputs": [],
      "stateMutability": "nonpayable",
      "type": "function"
    },
    {
      "inputs": [
        {
          "internalType": "address",
          "name": "newBeacon",
          "type": "address"
        }
      ],
      "name": "setOrganizationBeacon",
      "outputs": [],
      "stateMutability": "nonpayable",
      "type": "function"
    },
    {
      "inputs": [
        {
          "internalType": "uint256",
          "name": "initiativeId",
          "type": "uint256"
        }
      ],
      "name": "signConstitution",
      "outputs": [],
      "stateMutability": "nonpayable",
      "type": "function"
    },
    {
      "inputs": [
        {
          "internalType": "address",
          "name": "newOwner",
          "type": "address"
        }
      ],
      "name": "transferOwnership",
      "outputs": [],
      "stateMutability": "nonpayable",
      "type": "function"
    },
    {
      "inputs": [],
      "name": "version",
      "outputs": [
        {
          "internalType": "string",
          "name": "",
          "type": "string"
        }
      ],
      "stateMutability": "pure",
      "type": "function"
    }
  ],
  "bytecode": "0x6080604052348015600f57600080fd5b50612e338061001f6000396000f3fe608060405234801561001057600080fd5b50600436106101005760003560e01c80638ca7f51c11610097578063a497ebc311610066578063a497ebc314610279578063a8cbf238146102ae578063bdd1603a146102de578063f2fde38b1461030e57610100565b80638ca7f51c146102015780638da5cb5b1461021f57806391261b1d1461023d57806392ff68bd1461025b57610100565b80636503a867116100d35780636503a867146101775780636e430ce6146101a7578063715018a6146101c35780637dad0623146101cd57610100565b8063318f95a2146101055780634183c0a714610121578063485cc9551461013d57806354fd4d5014610159575b600080fd5b61011f600480360381019061011a9190611557565b61032a565b005b61013b600480360381019061013691906115ba565b6103e5565b005b610157600480360381019061015291906115e7565b61064a565b005b61016161081b565b60405161016e91906116b7565b60405180910390f35b610191600480360381019061018c919061180e565b610858565b60405161019e9190611879565b60405180910390f35b6101c160048036038101906101bc9190611935565b610afc565b005b6101cb610bd8565b005b6101e760048036038101906101e291906115ba565b610bec565b6040516101f89594939291906119c8565b60405180910390f35b610209610d8f565b60405161021691906116b7565b60405180910390f35b610227610dab565b6040516102349190611879565b60405180910390f35b610245610de3565b6040516102529190611a38565b60405180910390f35b610263610def565b6040516102709190611879565b60405180910390f35b610293600480360381019061028e91906115ba565b610e15565b6040516102a596959493929190611b11565b60405180910390f35b6102c860048036038101906102c391906115ba565b611062565b6040516102d59190611b87565b60405180910390f35b6102f860048036038101906102f39190611ba9565b61115c565b6040516103059190611be9565b60405180910390f35b61032860048036038101906103239190611557565b61118b565b005b610332611211565b600073ffffffffffffffffffffffffffffffffffffffff168173ffffffffffffffffffffffffffffffffffffffff16036103a1576040517f08c379a000000000000000000000000000000000000000000000000000000000815260040161039890611c50565b60405180910390fd5b80600260006101000a81548173ffffffffffffffffffffffffffffffffffffffff021916908373ffffffffffffffffffffffffffffffffffffffff16021790555050565b600080549050811061042c576040517f08c379a000000000000000000000000000000000000000000000000000000000815260040161042390611cbc565b60405180910390fd5b600080828154811061044157610440611cdc565b5b906000526020600020906005020190508060040160009054906101000a900460ff16156104a3576040517f08c379a000000000000000000000000000000000000000000000000000000000815260040161049a90611d57565b60405180910390fd5b6001600083815260200190815260200160002060003373ffffffffffffffffffffffffffffffffffffffff1673ffffffffffffffffffffffffffffffffffffffff16815260200190815260200160002060009054906101000a900460ff1615610541576040517f08c379a000000000000000000000000000000000000000000000000000000000815260040161053890611dc3565b60405180910390fd5b80600301339080600181540180825580915050600190039060005260206000200160009091909190916101000a81548173ffffffffffffffffffffffffffffffffffffffff021916908373ffffffffffffffffffffffffffffffffffffffff160217905550600180600084815260200190815260200160002060003373ffffffffffffffffffffffffffffffffffffffff1673ffffffffffffffffffffffffffffffffffffffff16815260200190815260200160002060006101000a81548160ff021916908315150217905550817f7edde7c8eed2a216d7a2e10d024c8f60db913f9b2cc3af2550c34405ea20dc233360405161063e9190611879565b60405180910390a25050565b6000610654611298565b905060008160000160089054906101000a900460ff1615905060008260000160009054906101000a900467ffffffffffffffff1690506000808267ffffffffffffffff161480156106a25750825b9050600060018367ffffffffffffffff161480156106d7575060003073ffffffffffffffffffffffffffffffffffffffff163b145b9050811580156106e5575080155b1561071c576040517ff92ee8a900000000000000000000000000000000000000000000000000000000815260040160405180910390fd5b60018560000160006101000a81548167ffffffffffffffff021916908367ffffffffffffffff160217905550831561076c5760018560000160086101000a81548160ff0219169083151502179055505b610775866112ac565b86600260006101000a81548173ffffffffffffffffffffffffffffffffffffffff021916908373ffffffffffffffffffffffffffffffffffffffff16021790555083156108125760008560000160086101000a81548160ff0219169083151502179055507fc7f505b2f371ae2175ee4913f4499e1f2633a7b5936321eed1cdaeb6115181d260016040516108099190611e3c565b60405180910390a15b50505050505050565b60606040518060400160405280601c81526020017f486f6c616372616379466163746f72792028426561636f6e2920763100000000815250905090565b6000808054905083106108a0576040517f08c379a000000000000000000000000000000000000000000000000000000000815260040161089790611cbc565b60405180910390fd5b60008084815481106108b5576108b4611cdc565b5b906000526020600020906005020190508060040160009054906101000a900460ff1615610917576040517f08c379a000000000000000000000000000000000000000000000000000000000815260040161090e90611d57565b60405180910390fd5b6001600085815260200190815260200160002060003373ffffffffffffffffffffffffffffffffffffffff1673ffffffffffffffffffffffffffffffffffffffff16815260200190815260200160002060009054906101000a900460ff166109b4576040517f08c379a00000000000000000000000000000000000000000000000000000000081526004016109ab90611ec9565b60405180910390fd5b60008160030180549050116109fe576040517f08c379a00000000000000000000000000000000000000000000000000000000081526004016109f590611f35565b60405180910390fd5b600260009054906101000a900473ffffffffffffffffffffffffffffffffffffffff1683604051610a2e906114d8565b610a39929190611faa565b604051809103906000f080158015610a55573d6000803e3d6000fd5b50915060018160040160006101000a81548160ff021916908315150217905550818160040160016101000a81548173ffffffffffffffffffffffffffffffffffffffff021916908373ffffffffffffffffffffffffffffffffffffffff160217905550837f1dd5dd4e2064699c3e52f3399bbdb0264c02025f65230384cbe87a82e5cac8b68383600301604051610aed9291906120c6565b60405180910390a25092915050565b600080600181600181540180825580915050039060005260206000209060050201905082816000019081610b3091906122f8565b5081816001019081610b4291906122f8565b50338160020160006101000a81548173ffffffffffffffffffffffffffffffffffffffff021916908373ffffffffffffffffffffffffffffffffffffffff1602179055506001600080549050610b9891906123f9565b7f49a872c741f3c4f9c193b8354aa8ece3949cfa2f32805280806bcb85fd3fc7d2848433604051610bcb9392919061242d565b60405180910390a2505050565b610be0611211565b610bea60006112c0565b565b60008181548110610bfc57600080fd5b9060005260206000209060050201600091509050806000018054610c1f90612125565b80601f0160208091040260200160405190810160405280929190818152602001828054610c4b90612125565b8015610c985780601f10610c6d57610100808354040283529160200191610c98565b820191906000526020600020905b815481529060010190602001808311610c7b57829003601f168201915b505050505090806001018054610cad90612125565b80601f0160208091040260200160405190810160405280929190818152602001828054610cd990612125565b8015610d265780601f10610cfb57610100808354040283529160200191610d26565b820191906000526020600020905b815481529060010190602001808311610d0957829003601f168201915b5050505050908060020160009054906101000a900473ffffffffffffffffffffffffffffffffffffffff16908060040160009054906101000a900460ff16908060040160019054906101000a900473ffffffffffffffffffffffffffffffffffffffff16905085565b6040518060600160405280602b8152602001612dd3602b913981565b600080610db6611397565b90508060000160009054906101000a900473ffffffffffffffffffffffffffffffffffffffff1691505090565b60008080549050905090565b600260009054906101000a900473ffffffffffffffffffffffffffffffffffffffff1681565b606080600060606000806000808881548110610e3457610e33611cdc565b5b9060005260206000209060050201905080600001816001018260020160009054906101000a900473ffffffffffffffffffffffffffffffffffffffff16836003018460040160009054906101000a900460ff168560040160019054906101000a900473ffffffffffffffffffffffffffffffffffffffff16858054610eb890612125565b80601f0160208091040260200160405190810160405280929190818152602001828054610ee490612125565b8015610f315780601f10610f0657610100808354040283529160200191610f31565b820191906000526020600020905b815481529060010190602001808311610f1457829003601f168201915b50505050509550848054610f4490612125565b80601f0160208091040260200160405190810160405280929190818152602001828054610f7090612125565b8015610fbd5780601f10610f9257610100808354040283529160200191610fbd565b820191906000526020600020905b815481529060010190602001808311610fa057829003601f168201915b505050505094508280548060200260200160405190810160405280929190818152602001828054801561104557602002820191906000526020600020905b8160009054906101000a900473ffffffffffffffffffffffffffffffffffffffff1673ffffffffffffffffffffffffffffffffffffffff1681526020019060010190808311610ffb575b505050505092509650965096509650965096505091939550919395565b606060008054905082106110ab576040517f08c379a00000000000000000000000000000000000000000000000000000000081526004016110a290611cbc565b60405180910390fd5b600082815481106110bf576110be611cdc565b5b906000526020600020906005020160030180548060200260200160405190810160405280929190818152602001828054801561115057602002820191906000526020600020905b8160009054906101000a900473ffffffffffffffffffffffffffffffffffffffff1673ffffffffffffffffffffffffffffffffffffffff1681526020019060010190808311611106575b50505050509050919050565b60016020528160005260406000206020528060005260406000206000915091509054906101000a900460ff1681565b611193611211565b600073ffffffffffffffffffffffffffffffffffffffff168173ffffffffffffffffffffffffffffffffffffffff16036112055760006040517f1e4fbdf70000000000000000000000000000000000000000000000000000000081526004016111fc9190611879565b60405180910390fd5b61120e816112c0565b50565b6112196113bf565b73ffffffffffffffffffffffffffffffffffffffff16611237610dab565b73ffffffffffffffffffffffffffffffffffffffff16146112965761125a6113bf565b6040517f118cdaa700000000000000000000000000000000000000000000000000000000815260040161128d9190611879565b60405180910390fd5b565b6000806112a36113c7565b90508091505090565b6112b46113f2565b6112bd81611432565b50565b60006112ca611397565b905060008160000160009054906101000a900473ffffffffffffffffffffffffffffffffffffffff169050828260000160006101000a81548173ffffffffffffffffffffffffffffffffffffffff021916908373ffffffffffffffffffffffffffffffffffffffff1602179055508273ffffffffffffffffffffffffffffffffffffffff168173ffffffffffffffffffffffffffffffffffffffff167f8be0079c531659141344cd1fd0a4f28419497f9722a3daafe3b4186f6b6457e060405160405180910390a3505050565b60007f9016d09d72d40fdae2fd8ceac6b6234c7706214fd39c1cd1e609a0528c199300905090565b600033905090565b60007ff0c57e16840df040f15088dc2f81fe391c3923bec73e23a9662efc9c229c6a0060001b905090565b6113fa6114b8565b611430576040517fd7e6bcf800000000000000000000000000000000000000000000000000000000815260040160405180910390fd5b565b61143a6113f2565b600073ffffffffffffffffffffffffffffffffffffffff168173ffffffffffffffffffffffffffffffffffffffff16036114ac5760006040517f1e4fbdf70000000000000000000000000000000000000000000000000000000081526004016114a39190611879565b60405180910390fd5b6114b5816112c0565b50565b60006114c2611298565b60000160089054906101000a900460ff16905090565b6109608061247383390190565b6000604051905090565b600080fd5b600080fd5b600073ffffffffffffffffffffffffffffffffffffffff82169050919050565b6000611524826114f9565b9050919050565b61153481611519565b811461153f57600080fd5b50565b6000813590506115518161152b565b92915050565b60006020828403121561156d5761156c6114ef565b5b600061157b84828501611542565b91505092915050565b6000819050919050565b61159781611584565b81146115a257600080fd5b50565b6000813590506115b48161158e565b92915050565b6000602082840312156115d0576115cf6114ef565b5b60006115de848285016115a5565b91505092915050565b600080604083850312156115fe576115fd6114ef565b5b600061160c85828601611542565b925050602061161d85828601611542565b9150509250929050565b600081519050919050565b600082825260208201905092915050565b60005b83811015611661578082015181840152602081019050611646565b60008484015250505050565b6000601f19601f8301169050919050565b600061168982611627565b6116938185611632565b93506116a3818560208601611643565b6116ac8161166d565b840191505092915050565b600060208201905081810360008301526116d1818461167e565b905092915050565b600080fd5b600080fd5b7f4e487b7100000000000000000000000000000000000000000000000000000000600052604160045260246000fd5b61171b8261166d565b810181811067ffffffffffffffff8211171561173a576117396116e3565b5b80604052505050565b600061174d6114e5565b90506117598282611712565b919050565b600067ffffffffffffffff821115611779576117786116e3565b5b6117828261166d565b9050602081019050919050565b82818337600083830152505050565b60006117b16117ac8461175e565b611743565b9050828152602081018484840111156117cd576117cc6116de565b5b6117d884828561178f565b509392505050565b600082601f8301126117f5576117f46116d9565b5b813561180584826020860161179e565b91505092915050565b60008060408385031215611825576118246114ef565b5b6000611833858286016115a5565b925050602083013567ffffffffffffffff811115611854576118536114f4565b5b611860858286016117e0565b9150509250929050565b61187381611519565b82525050565b600060208201905061188e600083018461186a565b92915050565b600067ffffffffffffffff8211156118af576118ae6116e3565b5b6118b88261166d565b9050602081019050919050565b60006118d86118d384611894565b611743565b9050828152602081018484840111156118f4576118f36116de565b5b6118ff84828561178f565b509392505050565b600082601f83011261191c5761191b6116d9565b5b813561192c8482602086016118c5565b91505092915050565b6000806040838503121561194c5761194b6114ef565b5b600083013567ffffffffffffffff81111561196a576119696114f4565b5b61197685828601611907565b925050602083013567ffffffffffffffff811115611997576119966114f4565b5b6119a385828601611907565b9150509250929050565b60008115159050919050565b6119c2816119ad565b82525050565b600060a08201905081810360008301526119e2818861167e565b905081810360208301526119f6818761167e565b9050611a05604083018661186a565b611a1260608301856119b9565b611a1f608083018461186a565b9695505050505050565b611a3281611584565b82525050565b6000602082019050611a4d6000830184611a29565b92915050565b600081519050919050565b600082825260208201905092915050565b6000819050602082019050919050565b611a8881611519565b82525050565b6000611a9a8383611a7f565b60208301905092915050565b6000602082019050919050565b6000611abe82611a53565b611ac88185611a5e565b9350611ad383611a6f565b8060005b83811015611b04578151611aeb8882611a8e565b9750611af683611aa6565b925050600181019050611ad7565b5085935050505092915050565b600060c0820190508181036000830152611b2b818961167e565b90508181036020830152611b3f818861167e565b9050611b4e604083018761186a565b8181036060830152611b608186611ab3565b9050611b6f60808301856119b9565b611b7c60a083018461186a565b979650505050505050565b60006020820190508181036000830152611ba18184611ab3565b905092915050565b60008060408385031215611bc057611bbf6114ef565b5b6000611bce858286016115a5565b9250506020611bdf85828601611542565b9150509250929050565b6000602082019050611bfe60008301846119b9565b92915050565b7f496e76616c696420616464726573730000000000000000000000000000000000600082015250565b6000611c3a600f83611632565b9150611c4582611c04565b602082019050919050565b60006020820190508181036000830152611c6981611c2d565b9050919050565b7f496e76616c696420696e69746961746976650000000000000000000000000000600082015250565b6000611ca6601283611632565b9150611cb182611c70565b602082019050919050565b60006020820190508181036000830152611cd581611c99565b9050919050565b7f4e487b7100000000000000000000000000000000000000000000000000000000600052603260045260246000fd5b7f416c7265616479206c61756e6368656400000000000000000000000000000000600082015250565b6000611d41601083611632565b9150611d4c82611d0b565b602082019050919050565b60006020820190508181036000830152611d7081611d34565b9050919050565b7f416c7265616479207369676e6564000000000000000000000000000000000000600082015250565b6000611dad600e83611632565b9150611db882611d77565b602082019050919050565b60006020820190508181036000830152611ddc81611da0565b9050919050565b6000819050919050565b600067ffffffffffffffff82169050919050565b6000819050919050565b6000611e26611e21611e1c84611de3565b611e01565b611ded565b9050919050565b611e3681611e0b565b82525050565b6000602082019050611e516000830184611e2d565b92915050565b7f596f75206d757374207369676e2074686520636f6e737469747574696f6e207460008201527f6f206c61756e6368000000000000000000000000000000000000000000000000602082015250565b6000611eb3602883611632565b9150611ebe82611e57565b604082019050919050565b60006020820190508181036000830152611ee281611ea6565b9050919050565b7f4e6f20706172746e657273207369676e65640000000000000000000000000000600082015250565b6000611f1f601283611632565b9150611f2a82611ee9565b602082019050919050565b60006020820190508181036000830152611f4e81611f12565b9050919050565b600081519050919050565b600082825260208201905092915050565b6000611f7c82611f55565b611f868185611f60565b9350611f96818560208601611643565b611f9f8161166d565b840191505092915050565b6000604082019050611fbf600083018561186a565b8181036020830152611fd18184611f71565b90509392505050565b600081549050919050565b60008190508160005260206000209050919050565b60008160001c9050919050565b600073ffffffffffffffffffffffffffffffffffffffff82169050919050565b600061203a61203583611ffa565b612007565b9050919050565b600061204d8254612027565b9050919050565b6000600182019050919050565b600061206c82611fda565b6120768185611a5e565b935061208183611fe5565b8060005b838110156120b95761209682612041565b6120a08882611a8e565b97506120ab83612054565b925050600181019050612085565b5085935050505092915050565b60006040820190506120db600083018561186a565b81810360208301526120ed8184612061565b90509392505050565b7f4e487b7100000000000000000000000000000000000000000000000000000000600052602260045260246000fd5b6000600282049050600182168061213d57607f821691505b6020821081036121505761214f6120f6565b5b50919050565b60008190508160005260206000209050919050565b60006020601f8301049050919050565b600082821b905092915050565b6000600883026121b87fffffffffffffffffffffffffffffffffffffffffffffffffffffffffffffffff8261217b565b6121c2868361217b565b95508019841693508086168417925050509392505050565b60006121f56121f06121eb84611584565b611e01565b611584565b9050919050565b6000819050919050565b61220f836121da565b61222361221b826121fc565b848454612188565b825550505050565b600090565b61223861222b565b612243818484612206565b505050565b5b818110156122675761225c600082612230565b600181019050612249565b5050565b601f8211156122ac5761227d81612156565b6122868461216b565b81016020851015612295578190505b6122a96122a18561216b565b830182612248565b50505b505050565b600082821c905092915050565b60006122cf600019846008026122b1565b1980831691505092915050565b60006122e883836122be565b9150826002028217905092915050565b61230182611627565b67ffffffffffffffff81111561231a576123196116e3565b5b6123248254612125565b61232f82828561226b565b600060209050601f8311600181146123625760008415612350578287015190505b61235a85826122dc565b8655506123c2565b601f19841661237086612156565b60005b8281101561239857848901518255600182019150602085019450602081019050612373565b868310156123b557848901516123b1601f8916826122be565b8355505b6001600288020188555050505b505050505050565b7f4e487b7100000000000000000000000000000000000000000000000000000000600052601160045260246000fd5b600061240482611584565b915061240f83611584565b9250828203905081811115612427576124266123ca565b5b92915050565b60006060820190508181036000830152612447818661167e565b9050818103602083015261245b818561167e565b905061246a604083018461186a565b94935050505056fe60a060405260405161096038038061096083398181016040528101906100259190610684565b610035828261007060201b60201c565b8173ffffffffffffffffffffffffffffffffffffffff1660808173ffffffffffffffffffffffffffffffffffffffff16815250505050610795565b61007f8261016360201b60201c565b8173ffffffffffffffffffffffffffffffffffffffff167f1cf3b03a6cf19fa2baba4df148e9dcabedea7f8a5c07840e207e5c089be95d3e60405160405180910390a26000815111156101505761014a8273ffffffffffffffffffffffffffffffffffffffff16635c60da1b6040518163ffffffff1660e01b8152600401602060405180830381865afa15801561011a573d6000803e3d6000fd5b505050506040513d601f19601f8201168201806040525081019061013e91906106e0565b8261030660201b60201c565b5061015f565b61015e61039060201b60201c565b5b5050565b60008173ffffffffffffffffffffffffffffffffffffffff163b036101bf57806040517f64ced0ec0000000000000000000000000000000000000000000000000000000081526004016101b6919061071c565b60405180910390fd5b806101f27fa3f0ad74e5423aebfd80d3ef4346578335a9a72aeaee59ff6cb3582b35133d5060001b6103cd60201b60201c565b60000160006101000a81548173ffffffffffffffffffffffffffffffffffffffff021916908373ffffffffffffffffffffffffffffffffffffffff16021790555060008173ffffffffffffffffffffffffffffffffffffffff16635c60da1b6040518163ffffffff1660e01b8152600401602060405180830381865afa158015610280573d6000803e3d6000fd5b505050506040513d601f19601f820116820180604052508101906102a491906106e0565b905060008173ffffffffffffffffffffffffffffffffffffffff163b0361030257806040517f4c9c8ce30000000000000000000000000000000000000000000000000000000081526004016102f9919061071c565b60405180910390fd5b5050565b60606000808473ffffffffffffffffffffffffffffffffffffffff1684604051610330919061077e565b600060405180830381855af49150503d806000811461036b576040519150601f19603f3d011682016040523d82523d6000602084013e610370565b606091505b50915091506103868583836103d760201b60201c565b9250505092915050565b60003411156103cb576040517fb398979f00000000000000000000000000000000000000000000000000000000815260040160405180910390fd5b565b6000819050919050565b6060826103f2576103ed8261046c60201b60201c565b610464565b6000825114801561041a575060008473ffffffffffffffffffffffffffffffffffffffff163b145b1561045c57836040517f9996b315000000000000000000000000000000000000000000000000000000008152600401610453919061071c565b60405180910390fd5b819050610465565b5b9392505050565b60008151111561047f5780518082602001fd5b6040517fd6bda27500000000000000000000000000000000000000000000000000000000815260040160405180910390fd5b6000604051905090565b600080fd5b600080fd5b600073ffffffffffffffffffffffffffffffffffffffff82169050919050565b60006104f0826104c5565b9050919050565b610500816104e5565b811461050b57600080fd5b50565b60008151905061051d816104f7565b92915050565b600080fd5b600080fd5b6000601f19601f8301169050919050565b7f4e487b7100000000000000000000000000000000000000000000000000000000600052604160045260246000fd5b6105768261052d565b810181811067ffffffffffffffff821117156105955761059461053e565b5b80604052505050565b60006105a86104b1565b90506105b4828261056d565b919050565b600067ffffffffffffffff8211156105d4576105d361053e565b5b6105dd8261052d565b9050602081019050919050565b60005b838110156106085780820151818401526020810190506105ed565b60008484015250505050565b6000610627610622846105b9565b61059e565b90508281526020810184848401111561064357610642610528565b5b61064e8482856105ea565b509392505050565b600082601f83011261066b5761066a610523565b5b815161067b848260208601610614565b91505092915050565b6000806040838503121561069b5761069a6104bb565b5b60006106a98582860161050e565b925050602083015167ffffffffffffffff8111156106ca576106c96104c0565b5b6106d685828601610656565b9150509250929050565b6000602082840312156106f6576106f56104bb565b5b60006107048482850161050e565b91505092915050565b610716816104e5565b82525050565b6000602082019050610731600083018461070d565b92915050565b600081519050919050565b600081905092915050565b600061075882610737565b6107628185610742565b93506107728185602086016105ea565b80840191505092915050565b600061078a828461074d565b915081905092915050565b6080516101b16107af600039600060c701526101b16000f3fe608060405261000c61000e565b005b61001e610019610020565b61009d565b565b600061002a6100c3565b73ffffffffffffffffffffffffffffffffffffffff16635c60da1b6040518163ffffffff1660e01b8152600401602060405180830381865afa158015610074573d6000803e3d6000fd5b505050506040513d601f19601f82011682018060405250810190610098919061014e565b905090565b3660008037600080366000845af43d6000803e80600081146100be573d6000f35b3d6000fd5b60007f0000000000000000000000000000000000000000000000000000000000000000905090565b600080fd5b600073ffffffffffffffffffffffffffffffffffffffff82169050919050565b600061011b826100f0565b9050919050565b61012b81610110565b811461013657600080fd5b50565b60008151905061014881610122565b92915050565b600060208284031215610164576101636100eb565b5b600061017284828501610139565b9150509291505056fea2646970667358221220237b08b82bfdd9e58ac7659658075725b1f659b7cbd1785c094cb67c3b15ac5f64736f6c634300081d003368747470733a2f2f7777772e686f6c6163726163792e6f72672f636f6e737469747574696f6e2f352d302fa26469706673582212201cf4d3315cdfe2bceb66bf78f514a6d3f1a65db4e9877447a06d02fdbc7456bc64736f6c634300081d0033",
  "linkReferences": {},
  "deployedLinkReferences": {}
}