{
  "_format": "hh-sol-artifact-1",
  "contractName": "HolacracyFactory",
  "sourceName": "contracts/HolacracyFactory.sol",
  "abi": [
    {
      "inputs": [],
      "name": "InvalidInitialization",
      "type": "error"
    },
    {
      "inputs": [],
      "name": "NotInitializing",
      "type": "error"
    },
    {
      "inputs": [
        {
          "internalType": "address",
          "name": "owner",
          "type": "address"
        }
      ],
      "name": "OwnableInvalidOwner",
      "type": "error"
    },
    {
      "inputs": [
        {
          "internalType": "address",
          "name": "account",
          "type": "address"
        }
      ],
      "name": "OwnableUnauthorizedAccount",
      "type": "error"
    },
    {
      "anonymous": false,
      "inputs": [
        {
          "indexed": true,
          "internalType": "uint256",
          "name": "initiativeId",
          "type": "uint256"
        },
        {
          "indexed": false,
          "internalType": "address",
          "name": "partner",
          "type": "address"
        }
      ],
      "name": "ConstitutionSigned",
      "type": "event"
    },
    {
      "anonymous": false,
      "inputs": [
        {
          "indexed": false,
          "internalType": "uint64",
          "name": "version",
          "type": "uint64"
        }
      ],
      "name": "Initialized",
      "type": "event"
    },
    {
      "anonymous": false,
      "inputs": [
        {
          "indexed": true,
          "internalType": "uint256",
          "name": "id",
          "type": "uint256"
        },
        {
          "indexed": false,
          "internalType": "string",
          "name": "name",
          "type": "string"
        },
        {
          "indexed": false,
          "internalType": "string",
          "name": "purpose",
          "type": "string"
        },
        {
          "indexed": false,
          "internalType": "address",
          "name": "creator",
          "type": "address"
        }
      ],
      "name": "InitiativeCreated",
      "type": "event"
    },
    {
      "anonymous": false,
      "inputs": [
        {
          "indexed": true,
          "internalType": "uint256",
          "name": "initiativeId",
          "type": "uint256"
        },
        {
          "indexed": false,
          "internalType": "address",
          "name": "org",
          "type": "address"
        },
        {
          "indexed": false,
          "internalType": "address[]",
          "name": "founders",
          "type": "address[]"
        }
      ],
      "name": "OrganizationDeployed",
      "type": "event"
    },
    {
      "anonymous": false,
      "inputs": [
        {
          "indexed": true,
          "internalType": "address",
          "name": "previousOwner",
          "type": "address"
        },
        {
          "indexed": true,
          "internalType": "address",
          "name": "newOwner",
          "type": "address"
        }
      ],
      "name": "OwnershipTransferred",
      "type": "event"
    },
    {
      "inputs": [],
      "name": "constitutionURI",
      "outputs": [
        {
          "internalType": "string",
          "name": "",
          "type": "string"
        }
      ],
      "stateMutability": "view",
      "type": "function"
    },
    {
      "inputs": [
        {
          "internalType": "string",
          "name": "name",
          "type": "string"
        },
        {
          "internalType": "string",
          "name": "purpose",
          "type": "string"
        }
      ],
      "name": "createInitiative",
      "outputs": [],
      "stateMutability": "nonpayable",
      "type": "function"
    },
    {
      "inputs": [
        {
          "internalType": "uint256",
          "name": "i",
          "type": "uint256"
        }
      ],
      "name": "getInitiative",
      "outputs": [
        {
          "internalType": "string",
          "name": "name",
          "type": "string"
        },
        {
          "internalType": "string",
          "name": "purpose",
          "type": "string"
        },
        {
          "internalType": "address",
          "name": "creator",
          "type": "address"
        },
        {
          "internalType": "address[]",
          "name": "partners",
          "type": "address[]"
        },
        {
          "internalType": "bool",
          "name": "launched",
          "type": "bool"
        },
        {
          "internalType": "address",
          "name": "orgAddress",
          "type": "address"
        }
      ],
      "stateMutability": "view",
      "type": "function"
    },
    {
      "inputs": [],
      "name": "getInitiativesCount",
      "outputs": [
        {
          "internalType": "uint256",
          "name": "",
          "type": "uint256"
        }
      ],
      "stateMutability": "view",
      "type": "function"
    },
    {
      "inputs": [
        {
          "internalType": "uint256",
          "name": "initiativeId",
          "type": "uint256"
        }
      ],
      "name": "getPartners",
      "outputs": [
        {
          "internalType": "address[]",
          "name": "",
          "type": "address[]"
        }
      ],
      "stateMutability": "view",
      "type": "function"
    },
    {
      "inputs": [
        {
          "internalType": "address",
          "name": "_organizationBeacon",
          "type": "address"
        },
        {
          "internalType": "address",
          "name": "_owner",
          "type": "address"
        }
      ],
      "name": "initialize",
      "outputs": [],
      "stateMutability": "nonpayable",
      "type": "function"
    },
    {
      "inputs": [
        {
          "internalType": "uint256",
          "name": "",
          "type": "uint256"
        }
      ],
      "name": "initiatives",
      "outputs": [
        {
          "internalType": "string",
          "name": "name",
          "type": "string"
        },
        {
          "internalType": "string",
          "name": "purpose",
          "type": "string"
        },
        {
          "internalType": "address",
          "name": "creator",
          "type": "address"
        },
        {
          "internalType": "bool",
          "name": "launched",
          "type": "bool"
        },
        {
          "internalType": "address",
          "name": "orgAddress",
          "type": "address"
        }
      ],
      "stateMutability": "view",
      "type": "function"
    },
    {
      "inputs": [
        {
          "internalType": "uint256",
          "name": "",
          "type": "uint256"
        },
        {
          "internalType": "address",
          "name": "",
          "type": "address"
        }
      ],
      "name": "isPartner",
      "outputs": [
        {
          "internalType": "bool",
          "name": "",
          "type": "bool"
        }
      ],
      "stateMutability": "view",
      "type": "function"
    },
    {
      "inputs": [
        {
          "internalType": "uint256",
          "name": "initiativeId",
          "type": "uint256"
        },
        {
          "internalType": "bytes",
          "name": "initData",
          "type": "bytes"
        }
      ],
      "name": "launchOrganization",
      "outputs": [
        {
          "internalType": "address",
          "name": "org",
          "type": "address"
        }
      ],
      "stateMutability": "nonpayable",
      "type": "function"
    },
    {
      "inputs": [],
      "name": "organizationBeacon",
      "outputs": [
        {
          "internalType": "address",
          "name": "",
          "type": "address"
        }
      ],
      "stateMutability": "view",
      "type": "function"
    },
    {
      "inputs": [],
      "name": "owner",
      "outputs": [
        {
          "internalType": "address",
          "name": "",
          "type": "address"
        }
      ],
      "stateMutability": "view",
      "type": "function"
    },
    {
      "inputs": [],
      "name": "renounceOwnership",
      "outputs": [],
      "stateMutability": "nonpayable",
      "type": "function"
    },
    {
      "inputs": [
        {
          "internalType": "address",
          "name": "newBeacon",
          "type": "address"
        }
      ],
      "name": "setOrganizationBeacon",
      "outputs": [],
      "stateMutability": "nonpayable",
      "type": "function"
    },
    {
      "inputs": [
        {
          "internalType": "string",
          "name": "message",
          "type": "string"
        }
      ],
      "name": "setUpgradeTestMessage",
      "outputs": [],
      "stateMutability": "nonpayable",
      "type": "function"
    },
    {
      "inputs": [
        {
          "internalType": "uint256",
          "name": "initiativeId",
          "type": "uint256"
        }
      ],
      "name": "signConstitution",
      "outputs": [],
      "stateMutability": "nonpayable",
      "type": "function"
    },
    {
      "inputs": [
        {
          "internalType": "address",
          "name": "newOwner",
          "type": "address"
        }
      ],
      "name": "transferOwnership",
      "outputs": [],
      "stateMutability": "nonpayable",
      "type": "function"
    },
    {
      "inputs": [],
      "name": "upgradeTestMessage",
      "outputs": [
        {
          "internalType": "string",
          "name": "",
          "type": "string"
        }
      ],
      "stateMutability": "view",
      "type": "function"
    },
    {
      "inputs": [],
      "name": "version",
      "outputs": [
        {
          "internalType": "string",
          "name": "",
          "type": "string"
        }
      ],
      "stateMutability": "pure",
      "type": "function"
    }
  ],
  "bytecode": "0x6080604052348015600f57600080fd5b506130af8061001f6000396000f3fe608060405234801561001057600080fd5b50600436106101165760003560e01c80638da5cb5b116100a2578063a497ebc311610071578063a497ebc3146102ab578063a8cbf238146102e0578063bdd1603a14610310578063f030b30e14610340578063f2fde38b1461035e57610116565b80638da5cb5b1461023557806391261b1d1461025357806392ff68bd14610271578063a304504e1461028f57610116565b80636503a867116100e95780636503a8671461018d5780636e430ce6146101bd578063715018a6146101d95780637dad0623146101e35780638ca7f51c1461021757610116565b8063318f95a21461011b5780634183c0a714610137578063485cc9551461015357806354fd4d501461016f575b600080fd5b6101356004803603810190610130919061164b565b61037a565b005b610151600480360381019061014c91906116ae565b610435565b005b61016d600480360381019061016891906116db565b61069a565b005b61017761086b565b60405161018491906117ab565b60405180910390f35b6101a760048036038101906101a29190611902565b6108a8565b6040516101b4919061196d565b60405180910390f35b6101d760048036038101906101d29190611a29565b610b4c565b005b6101e1610c28565b005b6101fd60048036038101906101f891906116ae565b610c3c565b60405161020e959493929190611abc565b60405180910390f35b61021f610ddf565b60405161022c91906117ab565b60405180910390f35b61023d610dfb565b60405161024a919061196d565b60405180910390f35b61025b610e33565b6040516102689190611b2c565b60405180910390f35b610279610e3f565b604051610286919061196d565b60405180910390f35b6102a960048036038101906102a49190611ba7565b610e65565b005b6102c560048036038101906102c091906116ae565b610e7b565b6040516102d796959493929190611cb2565b60405180910390f35b6102fa60048036038101906102f591906116ae565b6110c8565b6040516103079190611d28565b60405180910390f35b61032a60048036038101906103259190611d4a565b6111c2565b6040516103379190611d8a565b60405180910390f35b6103486111f1565b60405161035591906117ab565b60405180910390f35b6103786004803603810190610373919061164b565b61127f565b005b610382611305565b600073ffffffffffffffffffffffffffffffffffffffff168173ffffffffffffffffffffffffffffffffffffffff16036103f1576040517f08c379a00000000000000000000000000000000000000000000000000000000081526004016103e890611df1565b60405180910390fd5b80600260006101000a81548173ffffffffffffffffffffffffffffffffffffffff021916908373ffffffffffffffffffffffffffffffffffffffff16021790555050565b600080549050811061047c576040517f08c379a000000000000000000000000000000000000000000000000000000000815260040161047390611e5d565b60405180910390fd5b600080828154811061049157610490611e7d565b5b906000526020600020906005020190508060040160009054906101000a900460ff16156104f3576040517f08c379a00000000000000000000000000000000000000000000000000000000081526004016104ea90611ef8565b60405180910390fd5b6001600083815260200190815260200160002060003373ffffffffffffffffffffffffffffffffffffffff1673ffffffffffffffffffffffffffffffffffffffff16815260200190815260200160002060009054906101000a900460ff1615610591576040517f08c379a000000000000000000000000000000000000000000000000000000000815260040161058890611f64565b60405180910390fd5b80600301339080600181540180825580915050600190039060005260206000200160009091909190916101000a81548173ffffffffffffffffffffffffffffffffffffffff021916908373ffffffffffffffffffffffffffffffffffffffff160217905550600180600084815260200190815260200160002060003373ffffffffffffffffffffffffffffffffffffffff1673ffffffffffffffffffffffffffffffffffffffff16815260200190815260200160002060006101000a81548160ff021916908315150217905550817f7edde7c8eed2a216d7a2e10d024c8f60db913f9b2cc3af2550c34405ea20dc233360405161068e919061196d565b60405180910390a25050565b60006106a461138c565b905060008160000160089054906101000a900460ff1615905060008260000160009054906101000a900467ffffffffffffffff1690506000808267ffffffffffffffff161480156106f25750825b9050600060018367ffffffffffffffff16148015610727575060003073ffffffffffffffffffffffffffffffffffffffff163b145b905081158015610735575080155b1561076c576040517ff92ee8a900000000000000000000000000000000000000000000000000000000815260040160405180910390fd5b60018560000160006101000a81548167ffffffffffffffff021916908367ffffffffffffffff16021790555083156107bc5760018560000160086101000a81548160ff0219169083151502179055505b6107c5866113a0565b86600260006101000a81548173ffffffffffffffffffffffffffffffffffffffff021916908373ffffffffffffffffffffffffffffffffffffffff16021790555083156108625760008560000160086101000a81548160ff0219169083151502179055507fc7f505b2f371ae2175ee4913f4499e1f2633a7b5936321eed1cdaeb6115181d260016040516108599190611fdd565b60405180910390a15b50505050505050565b60606040518060400160405280601c81526020017f486f6c616372616379466163746f72792028426561636f6e2920763100000000815250905090565b6000808054905083106108f0576040517f08c379a00000000000000000000000000000000000000000000000000000000081526004016108e790611e5d565b60405180910390fd5b600080848154811061090557610904611e7d565b5b906000526020600020906005020190508060040160009054906101000a900460ff1615610967576040517f08c379a000000000000000000000000000000000000000000000000000000000815260040161095e90611ef8565b60405180910390fd5b6001600085815260200190815260200160002060003373ffffffffffffffffffffffffffffffffffffffff1673ffffffffffffffffffffffffffffffffffffffff16815260200190815260200160002060009054906101000a900460ff16610a04576040517f08c379a00000000000000000000000000000000000000000000000000000000081526004016109fb9061206a565b60405180910390fd5b6000816003018054905011610a4e576040517f08c379a0000000000000000000000000000000000000000000000000000000008152600401610a45906120d6565b60405180910390fd5b600260009054906101000a900473ffffffffffffffffffffffffffffffffffffffff1683604051610a7e906115cc565b610a8992919061214b565b604051809103906000f080158015610aa5573d6000803e3d6000fd5b50915060018160040160006101000a81548160ff021916908315150217905550818160040160016101000a81548173ffffffffffffffffffffffffffffffffffffffff021916908373ffffffffffffffffffffffffffffffffffffffff160217905550837f1dd5dd4e2064699c3e52f3399bbdb0264c02025f65230384cbe87a82e5cac8b68383600301604051610b3d929190612267565b60405180910390a25092915050565b600080600181600181540180825580915050039060005260206000209060050201905082816000019081610b809190612499565b5081816001019081610b929190612499565b50338160020160006101000a81548173ffffffffffffffffffffffffffffffffffffffff021916908373ffffffffffffffffffffffffffffffffffffffff1602179055506001600080549050610be8919061259a565b7f49a872c741f3c4f9c193b8354aa8ece3949cfa2f32805280806bcb85fd3fc7d2848433604051610c1b939291906125ce565b60405180910390a2505050565b610c30611305565b610c3a60006113b4565b565b60008181548110610c4c57600080fd5b9060005260206000209060050201600091509050806000018054610c6f906122c6565b80601f0160208091040260200160405190810160405280929190818152602001828054610c9b906122c6565b8015610ce85780601f10610cbd57610100808354040283529160200191610ce8565b820191906000526020600020905b815481529060010190602001808311610ccb57829003601f168201915b505050505090806001018054610cfd906122c6565b80601f0160208091040260200160405190810160405280929190818152602001828054610d29906122c6565b8015610d765780601f10610d4b57610100808354040283529160200191610d76565b820191906000526020600020905b815481529060010190602001808311610d5957829003601f168201915b5050505050908060020160009054906101000a900473ffffffffffffffffffffffffffffffffffffffff16908060040160009054906101000a900460ff16908060040160019054906101000a900473ffffffffffffffffffffffffffffffffffffffff16905085565b6040518060600160405280602b815260200161304f602b913981565b600080610e0661148b565b90508060000160009054906101000a900473ffffffffffffffffffffffffffffffffffffffff1691505090565b60008080549050905090565b600260009054906101000a900473ffffffffffffffffffffffffffffffffffffffff1681565b818160039182610e7692919061261e565b505050565b606080600060606000806000808881548110610e9a57610e99611e7d565b5b9060005260206000209060050201905080600001816001018260020160009054906101000a900473ffffffffffffffffffffffffffffffffffffffff16836003018460040160009054906101000a900460ff168560040160019054906101000a900473ffffffffffffffffffffffffffffffffffffffff16858054610f1e906122c6565b80601f0160208091040260200160405190810160405280929190818152602001828054610f4a906122c6565b8015610f975780601f10610f6c57610100808354040283529160200191610f97565b820191906000526020600020905b815481529060010190602001808311610f7a57829003601f168201915b50505050509550848054610faa906122c6565b80601f0160208091040260200160405190810160405280929190818152602001828054610fd6906122c6565b80156110235780601f10610ff857610100808354040283529160200191611023565b820191906000526020600020905b81548152906001019060200180831161100657829003601f168201915b50505050509450828054806020026020016040519081016040528092919081815260200182805480156110ab57602002820191906000526020600020905b8160009054906101000a900473ffffffffffffffffffffffffffffffffffffffff1673ffffffffffffffffffffffffffffffffffffffff1681526020019060010190808311611061575b505050505092509650965096509650965096505091939550919395565b60606000805490508210611111576040517f08c379a000000000000000000000000000000000000000000000000000000000815260040161110890611e5d565b60405180910390fd5b6000828154811061112557611124611e7d565b5b90600052602060002090600502016003018054806020026020016040519081016040528092919081815260200182805480156111b657602002820191906000526020600020905b8160009054906101000a900473ffffffffffffffffffffffffffffffffffffffff1673ffffffffffffffffffffffffffffffffffffffff168152602001906001019080831161116c575b50505050509050919050565b60016020528160005260406000206020528060005260406000206000915091509054906101000a900460ff1681565b600380546111fe906122c6565b80601f016020809104026020016040519081016040528092919081815260200182805461122a906122c6565b80156112775780601f1061124c57610100808354040283529160200191611277565b820191906000526020600020905b81548152906001019060200180831161125a57829003601f168201915b505050505081565b611287611305565b600073ffffffffffffffffffffffffffffffffffffffff168173ffffffffffffffffffffffffffffffffffffffff16036112f95760006040517f1e4fbdf70000000000000000000000000000000000000000000000000000000081526004016112f0919061196d565b60405180910390fd5b611302816113b4565b50565b61130d6114b3565b73ffffffffffffffffffffffffffffffffffffffff1661132b610dfb565b73ffffffffffffffffffffffffffffffffffffffff161461138a5761134e6114b3565b6040517f118cdaa7000000000000000000000000000000000000000000000000000000008152600401611381919061196d565b60405180910390fd5b565b6000806113976114bb565b90508091505090565b6113a86114e6565b6113b181611526565b50565b60006113be61148b565b905060008160000160009054906101000a900473ffffffffffffffffffffffffffffffffffffffff169050828260000160006101000a81548173ffffffffffffffffffffffffffffffffffffffff021916908373ffffffffffffffffffffffffffffffffffffffff1602179055508273ffffffffffffffffffffffffffffffffffffffff168173ffffffffffffffffffffffffffffffffffffffff167f8be0079c531659141344cd1fd0a4f28419497f9722a3daafe3b4186f6b6457e060405160405180910390a3505050565b60007f9016d09d72d40fdae2fd8ceac6b6234c7706214fd39c1cd1e609a0528c199300905090565b600033905090565b60007ff0c57e16840df040f15088dc2f81fe391c3923bec73e23a9662efc9c229c6a0060001b905090565b6114ee6115ac565b611524576040517fd7e6bcf800000000000000000000000000000000000000000000000000000000815260040160405180910390fd5b565b61152e6114e6565b600073ffffffffffffffffffffffffffffffffffffffff168173ffffffffffffffffffffffffffffffffffffffff16036115a05760006040517f1e4fbdf7000000000000000000000000000000000000000000000000000000008152600401611597919061196d565b60405180910390fd5b6115a9816113b4565b50565b60006115b661138c565b60000160089054906101000a900460ff16905090565b610960806126ef83390190565b6000604051905090565b600080fd5b600080fd5b600073ffffffffffffffffffffffffffffffffffffffff82169050919050565b6000611618826115ed565b9050919050565b6116288161160d565b811461163357600080fd5b50565b6000813590506116458161161f565b92915050565b600060208284031215611661576116606115e3565b5b600061166f84828501611636565b91505092915050565b6000819050919050565b61168b81611678565b811461169657600080fd5b50565b6000813590506116a881611682565b92915050565b6000602082840312156116c4576116c36115e3565b5b60006116d284828501611699565b91505092915050565b600080604083850312156116f2576116f16115e3565b5b600061170085828601611636565b925050602061171185828601611636565b9150509250929050565b600081519050919050565b600082825260208201905092915050565b60005b8381101561175557808201518184015260208101905061173a565b60008484015250505050565b6000601f19601f8301169050919050565b600061177d8261171b565b6117878185611726565b9350611797818560208601611737565b6117a081611761565b840191505092915050565b600060208201905081810360008301526117c58184611772565b905092915050565b600080fd5b600080fd5b7f4e487b7100000000000000000000000000000000000000000000000000000000600052604160045260246000fd5b61180f82611761565b810181811067ffffffffffffffff8211171561182e5761182d6117d7565b5b80604052505050565b60006118416115d9565b905061184d8282611806565b919050565b600067ffffffffffffffff82111561186d5761186c6117d7565b5b61187682611761565b9050602081019050919050565b82818337600083830152505050565b60006118a56118a084611852565b611837565b9050828152602081018484840111156118c1576118c06117d2565b5b6118cc848285611883565b509392505050565b600082601f8301126118e9576118e86117cd565b5b81356118f9848260208601611892565b91505092915050565b60008060408385031215611919576119186115e3565b5b600061192785828601611699565b925050602083013567ffffffffffffffff811115611948576119476115e8565b5b611954858286016118d4565b9150509250929050565b6119678161160d565b82525050565b6000602082019050611982600083018461195e565b92915050565b600067ffffffffffffffff8211156119a3576119a26117d7565b5b6119ac82611761565b9050602081019050919050565b60006119cc6119c784611988565b611837565b9050828152602081018484840111156119e8576119e76117d2565b5b6119f3848285611883565b509392505050565b600082601f830112611a1057611a0f6117cd565b5b8135611a208482602086016119b9565b91505092915050565b60008060408385031215611a4057611a3f6115e3565b5b600083013567ffffffffffffffff811115611a5e57611a5d6115e8565b5b611a6a858286016119fb565b925050602083013567ffffffffffffffff811115611a8b57611a8a6115e8565b5b611a97858286016119fb565b9150509250929050565b60008115159050919050565b611ab681611aa1565b82525050565b600060a0820190508181036000830152611ad68188611772565b90508181036020830152611aea8187611772565b9050611af9604083018661195e565b611b066060830185611aad565b611b13608083018461195e565b9695505050505050565b611b2681611678565b82525050565b6000602082019050611b416000830184611b1d565b92915050565b600080fd5b600080fd5b60008083601f840112611b6757611b666117cd565b5b8235905067ffffffffffffffff811115611b8457611b83611b47565b5b602083019150836001820283011115611ba057611b9f611b4c565b5b9250929050565b60008060208385031215611bbe57611bbd6115e3565b5b600083013567ffffffffffffffff811115611bdc57611bdb6115e8565b5b611be885828601611b51565b92509250509250929050565b600081519050919050565b600082825260208201905092915050565b6000819050602082019050919050565b611c298161160d565b82525050565b6000611c3b8383611c20565b60208301905092915050565b6000602082019050919050565b6000611c5f82611bf4565b611c698185611bff565b9350611c7483611c10565b8060005b83811015611ca5578151611c8c8882611c2f565b9750611c9783611c47565b925050600181019050611c78565b5085935050505092915050565b600060c0820190508181036000830152611ccc8189611772565b90508181036020830152611ce08188611772565b9050611cef604083018761195e565b8181036060830152611d018186611c54565b9050611d106080830185611aad565b611d1d60a083018461195e565b979650505050505050565b60006020820190508181036000830152611d428184611c54565b905092915050565b60008060408385031215611d6157611d606115e3565b5b6000611d6f85828601611699565b9250506020611d8085828601611636565b9150509250929050565b6000602082019050611d9f6000830184611aad565b92915050565b7f496e76616c696420616464726573730000000000000000000000000000000000600082015250565b6000611ddb600f83611726565b9150611de682611da5565b602082019050919050565b60006020820190508181036000830152611e0a81611dce565b9050919050565b7f496e76616c696420696e69746961746976650000000000000000000000000000600082015250565b6000611e47601283611726565b9150611e5282611e11565b602082019050919050565b60006020820190508181036000830152611e7681611e3a565b9050919050565b7f4e487b7100000000000000000000000000000000000000000000000000000000600052603260045260246000fd5b7f416c7265616479206c61756e6368656400000000000000000000000000000000600082015250565b6000611ee2601083611726565b9150611eed82611eac565b602082019050919050565b60006020820190508181036000830152611f1181611ed5565b9050919050565b7f416c7265616479207369676e6564000000000000000000000000000000000000600082015250565b6000611f4e600e83611726565b9150611f5982611f18565b602082019050919050565b60006020820190508181036000830152611f7d81611f41565b9050919050565b6000819050919050565b600067ffffffffffffffff82169050919050565b6000819050919050565b6000611fc7611fc2611fbd84611f84565b611fa2565b611f8e565b9050919050565b611fd781611fac565b82525050565b6000602082019050611ff26000830184611fce565b92915050565b7f596f75206d757374207369676e2074686520636f6e737469747574696f6e207460008201527f6f206c61756e6368000000000000000000000000000000000000000000000000602082015250565b6000612054602883611726565b915061205f82611ff8565b604082019050919050565b6000602082019050818103600083015261208381612047565b9050919050565b7f4e6f20706172746e657273207369676e65640000000000000000000000000000600082015250565b60006120c0601283611726565b91506120cb8261208a565b602082019050919050565b600060208201905081810360008301526120ef816120b3565b9050919050565b600081519050919050565b600082825260208201905092915050565b600061211d826120f6565b6121278185612101565b9350612137818560208601611737565b61214081611761565b840191505092915050565b6000604082019050612160600083018561195e565b81810360208301526121728184612112565b90509392505050565b600081549050919050565b60008190508160005260206000209050919050565b60008160001c9050919050565b600073ffffffffffffffffffffffffffffffffffffffff82169050919050565b60006121db6121d68361219b565b6121a8565b9050919050565b60006121ee82546121c8565b9050919050565b6000600182019050919050565b600061220d8261217b565b6122178185611bff565b935061222283612186565b8060005b8381101561225a57612237826121e2565b6122418882611c2f565b975061224c836121f5565b925050600181019050612226565b5085935050505092915050565b600060408201905061227c600083018561195e565b818103602083015261228e8184612202565b90509392505050565b7f4e487b7100000000000000000000000000000000000000000000000000000000600052602260045260246000fd5b600060028204905060018216806122de57607f821691505b6020821081036122f1576122f0612297565b5b50919050565b60008190508160005260206000209050919050565b60006020601f8301049050919050565b600082821b905092915050565b6000600883026123597fffffffffffffffffffffffffffffffffffffffffffffffffffffffffffffffff8261231c565b612363868361231c565b95508019841693508086168417925050509392505050565b600061239661239161238c84611678565b611fa2565b611678565b9050919050565b6000819050919050565b6123b08361237b565b6123c46123bc8261239d565b848454612329565b825550505050565b600090565b6123d96123cc565b6123e48184846123a7565b505050565b5b81811015612408576123fd6000826123d1565b6001810190506123ea565b5050565b601f82111561244d5761241e816122f7565b6124278461230c565b81016020851015612436578190505b61244a6124428561230c565b8301826123e9565b50505b505050565b600082821c905092915050565b600061247060001984600802612452565b1980831691505092915050565b6000612489838361245f565b9150826002028217905092915050565b6124a28261171b565b67ffffffffffffffff8111156124bb576124ba6117d7565b5b6124c582546122c6565b6124d082828561240c565b600060209050601f83116001811461250357600084156124f1578287015190505b6124fb858261247d565b865550612563565b601f198416612511866122f7565b60005b8281101561253957848901518255600182019150602085019450602081019050612514565b868310156125565784890151612552601f89168261245f565b8355505b6001600288020188555050505b505050505050565b7f4e487b7100000000000000000000000000000000000000000000000000000000600052601160045260246000fd5b60006125a582611678565b91506125b083611678565b92508282039050818111156125c8576125c761256b565b5b92915050565b600060608201905081810360008301526125e88186611772565b905081810360208301526125fc8185611772565b905061260b604083018461195e565b949350505050565b600082905092915050565b6126288383612613565b67ffffffffffffffff811115612641576126406117d7565b5b61264b82546122c6565b61265682828561240c565b6000601f8311600181146126855760008415612673578287013590505b61267d858261247d565b8655506126e5565b601f198416612693866122f7565b60005b828110156126bb57848901358255600182019150602085019450602081019050612696565b868310156126d857848901356126d4601f89168261245f565b8355505b6001600288020188555050505b5050505050505056fe60a060405260405161096038038061096083398181016040528101906100259190610684565b610035828261007060201b60201c565b8173ffffffffffffffffffffffffffffffffffffffff1660808173ffffffffffffffffffffffffffffffffffffffff16815250505050610795565b61007f8261016360201b60201c565b8173ffffffffffffffffffffffffffffffffffffffff167f1cf3b03a6cf19fa2baba4df148e9dcabedea7f8a5c07840e207e5c089be95d3e60405160405180910390a26000815111156101505761014a8273ffffffffffffffffffffffffffffffffffffffff16635c60da1b6040518163ffffffff1660e01b8152600401602060405180830381865afa15801561011a573d6000803e3d6000fd5b505050506040513d601f19601f8201168201806040525081019061013e91906106e0565b8261030660201b60201c565b5061015f565b61015e61039060201b60201c565b5b5050565b60008173ffffffffffffffffffffffffffffffffffffffff163b036101bf57806040517f64ced0ec0000000000000000000000000000000000000000000000000000000081526004016101b6919061071c565b60405180910390fd5b806101f27fa3f0ad74e5423aebfd80d3ef4346578335a9a72aeaee59ff6cb3582b35133d5060001b6103cd60201b60201c565b60000160006101000a81548173ffffffffffffffffffffffffffffffffffffffff021916908373ffffffffffffffffffffffffffffffffffffffff16021790555060008173ffffffffffffffffffffffffffffffffffffffff16635c60da1b6040518163ffffffff1660e01b8152600401602060405180830381865afa158015610280573d6000803e3d6000fd5b505050506040513d601f19601f820116820180604052508101906102a491906106e0565b905060008173ffffffffffffffffffffffffffffffffffffffff163b0361030257806040517f4c9c8ce30000000000000000000000000000000000000000000000000000000081526004016102f9919061071c565b60405180910390fd5b5050565b60606000808473ffffffffffffffffffffffffffffffffffffffff1684604051610330919061077e565b600060405180830381855af49150503d806000811461036b576040519150601f19603f3d011682016040523d82523d6000602084013e610370565b606091505b50915091506103868583836103d760201b60201c565b9250505092915050565b60003411156103cb576040517fb398979f00000000000000000000000000000000000000000000000000000000815260040160405180910390fd5b565b6000819050919050565b6060826103f2576103ed8261046c60201b60201c565b610464565b6000825114801561041a575060008473ffffffffffffffffffffffffffffffffffffffff163b145b1561045c57836040517f9996b315000000000000000000000000000000000000000000000000000000008152600401610453919061071c565b60405180910390fd5b819050610465565b5b9392505050565b60008151111561047f5780518082602001fd5b6040517fd6bda27500000000000000000000000000000000000000000000000000000000815260040160405180910390fd5b6000604051905090565b600080fd5b600080fd5b600073ffffffffffffffffffffffffffffffffffffffff82169050919050565b60006104f0826104c5565b9050919050565b610500816104e5565b811461050b57600080fd5b50565b60008151905061051d816104f7565b92915050565b600080fd5b600080fd5b6000601f19601f8301169050919050565b7f4e487b7100000000000000000000000000000000000000000000000000000000600052604160045260246000fd5b6105768261052d565b810181811067ffffffffffffffff821117156105955761059461053e565b5b80604052505050565b60006105a86104b1565b90506105b4828261056d565b919050565b600067ffffffffffffffff8211156105d4576105d361053e565b5b6105dd8261052d565b9050602081019050919050565b60005b838110156106085780820151818401526020810190506105ed565b60008484015250505050565b6000610627610622846105b9565b61059e565b90508281526020810184848401111561064357610642610528565b5b61064e8482856105ea565b509392505050565b600082601f83011261066b5761066a610523565b5b815161067b848260208601610614565b91505092915050565b6000806040838503121561069b5761069a6104bb565b5b60006106a98582860161050e565b925050602083015167ffffffffffffffff8111156106ca576106c96104c0565b5b6106d685828601610656565b9150509250929050565b6000602082840312156106f6576106f56104bb565b5b60006107048482850161050e565b91505092915050565b610716816104e5565b82525050565b6000602082019050610731600083018461070d565b92915050565b600081519050919050565b600081905092915050565b600061075882610737565b6107628185610742565b93506107728185602086016105ea565b80840191505092915050565b600061078a828461074d565b915081905092915050565b6080516101b16107af600039600060c701526101b16000f3fe608060405261000c61000e565b005b61001e610019610020565b61009d565b565b600061002a6100c3565b73ffffffffffffffffffffffffffffffffffffffff16635c60da1b6040518163ffffffff1660e01b8152600401602060405180830381865afa158015610074573d6000803e3d6000fd5b505050506040513d601f19601f82011682018060405250810190610098919061014e565b905090565b3660008037600080366000845af43d6000803e80600081146100be573d6000f35b3d6000fd5b60007f0000000000000000000000000000000000000000000000000000000000000000905090565b600080fd5b600073ffffffffffffffffffffffffffffffffffffffff82169050919050565b600061011b826100f0565b9050919050565b61012b81610110565b811461013657600080fd5b50565b60008151905061014881610122565b92915050565b600060208284031215610164576101636100eb565b5b600061017284828501610139565b9150509291505056fea2646970667358221220237b08b82bfdd9e58ac7659658075725b1f659b7cbd1785c094cb67c3b15ac5f64736f6c634300081d003368747470733a2f2f7777772e686f6c6163726163792e6f72672f636f6e737469747574696f6e2f352d302fa2646970667358221220eba9564af7bf17ba5c8b506137b7bd7848b69c8f8a1f118b923921e461503cd164736f6c634300081d0033",
  "linkReferences": {},
  "deployedLinkReferences": {}
}