{
  "_format": "hh-sol-artifact-1",
  "contractName": "Organization",
  "sourceName": "contracts/Organization.sol",
  "abi": [
    {
      "inputs": [],
      "name": "InvalidInitialization",
      "type": "error"
    },
    {
      "inputs": [],
      "name": "NotInitializing",
      "type": "error"
    },
    {
      "inputs": [
        {
          "internalType": "address",
          "name": "owner",
          "type": "address"
        }
      ],
      "name": "OwnableInvalidOwner",
      "type": "error"
    },
    {
      "inputs": [
        {
          "internalType": "address",
          "name": "account",
          "type": "address"
        }
      ],
      "name": "OwnableUnauthorizedAccount",
      "type": "error"
    },
    {
      "anonymous": false,
      "inputs": [
        {
          "indexed": true,
          "internalType": "address",
          "name": "partner",
          "type": "address"
        }
      ],
      "name": "ConstitutionSigned",
      "type": "event"
    },
    {
      "anonymous": false,
      "inputs": [
        {
          "indexed": false,
          "internalType": "uint64",
          "name": "version",
          "type": "uint64"
        }
      ],
      "name": "Initialized",
      "type": "event"
    },
    {
      "anonymous": false,
      "inputs": [
        {
          "indexed": false,
          "internalType": "address[]",
          "name": "founders",
          "type": "address[]"
        }
      ],
      "name": "Initialized",
      "type": "event"
    },
    {
      "anonymous": false,
      "inputs": [
        {
          "indexed": true,
          "internalType": "address",
          "name": "previousOwner",
          "type": "address"
        },
        {
          "indexed": true,
          "internalType": "address",
          "name": "newOwner",
          "type": "address"
        }
      ],
      "name": "OwnershipTransferred",
      "type": "event"
    },
    {
      "inputs": [],
      "name": "constitutionURI",
      "outputs": [
        {
          "internalType": "string",
          "name": "",
          "type": "string"
        }
      ],
      "stateMutability": "view",
      "type": "function"
    },
    {
      "inputs": [],
      "name": "getPartners",
      "outputs": [
        {
          "internalType": "address[]",
          "name": "",
          "type": "address[]"
        }
      ],
      "stateMutability": "view",
      "type": "function"
    },
    {
      "inputs": [
        {
          "internalType": "address",
          "name": "",
          "type": "address"
        }
      ],
      "name": "hasSignedConstitution",
      "outputs": [
        {
          "internalType": "bool",
          "name": "",
          "type": "bool"
        }
      ],
      "stateMutability": "view",
      "type": "function"
    },
    {
      "inputs": [
        {
          "internalType": "address[]",
          "name": "_founders",
          "type": "address[]"
        }
      ],
      "name": "initialize",
      "outputs": [],
      "stateMutability": "nonpayable",
      "type": "function"
    },
    {
      "inputs": [],
      "name": "owner",
      "outputs": [
        {
          "internalType": "address",
          "name": "",
          "type": "address"
        }
      ],
      "stateMutability": "view",
      "type": "function"
    },
    {
      "inputs": [
        {
          "internalType": "uint256",
          "name": "",
          "type": "uint256"
        }
      ],
      "name": "partners",
      "outputs": [
        {
          "internalType": "address",
          "name": "",
          "type": "address"
        }
      ],
      "stateMutability": "view",
      "type": "function"
    },
    {
      "inputs": [],
      "name": "renounceOwnership",
      "outputs": [],
      "stateMutability": "nonpayable",
      "type": "function"
    },
    {
      "inputs": [],
      "name": "signConstitution",
      "outputs": [],
      "stateMutability": "nonpayable",
      "type": "function"
    },
    {
      "inputs": [
        {
          "internalType": "address",
          "name": "newOwner",
          "type": "address"
        }
      ],
      "name": "transferOwnership",
      "outputs": [],
      "stateMutability": "nonpayable",
      "type": "function"
    }
  ],
  "bytecode": "0x6080604052348015600f57600080fd5b5061115a8061001f6000396000f3fe608060405234801561001057600080fd5b50600436106100935760003560e01c80638da5cb5b116100665780638da5cb5b146100e8578063a088d5e014610106578063a224cee714610136578063c3b49d0414610152578063f2fde38b1461018257610093565b806337a5151d14610098578063715018a6146100a257806373e29b0d146100ac5780638ca7f51c146100ca575b600080fd5b6100a061019e565b005b6100aa61032a565b005b6100b461033e565b6040516100c19190610be9565b60405180910390f35b6100d26103cc565b6040516100df9190610c9b565b60405180910390f35b6100f06103e8565b6040516100fd9190610ccc565b60405180910390f35b610120600480360381019061011b9190610d27565b610420565b60405161012d9190610d6f565b60405180910390f35b610150600480360381019061014b9190610ed2565b610440565b005b61016c60048036038101906101679190610f51565b61076d565b6040516101799190610ccc565b60405180910390f35b61019c60048036038101906101979190610d27565b6107ac565b005b600160003373ffffffffffffffffffffffffffffffffffffffff1673ffffffffffffffffffffffffffffffffffffffff16815260200190815260200160002060009054906101000a900460ff161561022b576040517f08c379a000000000000000000000000000000000000000000000000000000000815260040161022290610fca565b60405180910390fd5b6000339080600181540180825580915050600190039060005260206000200160009091909190916101000a81548173ffffffffffffffffffffffffffffffffffffffff021916908373ffffffffffffffffffffffffffffffffffffffff16021790555060018060003373ffffffffffffffffffffffffffffffffffffffff1673ffffffffffffffffffffffffffffffffffffffff16815260200190815260200160002060006101000a81548160ff0219169083151502179055503373ffffffffffffffffffffffffffffffffffffffff167fb90fb482735d7b26a1b044c13f1cf3ab5cb3a7a07c2b79e764c34e3f027e1e3660405160405180910390a2565b610332610832565b61033c60006108b9565b565b606060008054806020026020016040519081016040528092919081815260200182805480156103c257602002820191906000526020600020905b8160009054906101000a900473ffffffffffffffffffffffffffffffffffffffff1673ffffffffffffffffffffffffffffffffffffffff1681526020019060010190808311610378575b5050505050905090565b6040518060600160405280602b81526020016110fa602b913981565b6000806103f3610990565b90508060000160009054906101000a900473ffffffffffffffffffffffffffffffffffffffff1691505090565b60016020528060005260406000206000915054906101000a900460ff1681565b600061044a6109b8565b905060008160000160089054906101000a900460ff1615905060008260000160009054906101000a900467ffffffffffffffff1690506000808267ffffffffffffffff161480156104985750825b9050600060018367ffffffffffffffff161480156104cd575060003073ffffffffffffffffffffffffffffffffffffffff163b145b9050811580156104db575080155b15610512576040517ff92ee8a900000000000000000000000000000000000000000000000000000000815260040160405180910390fd5b60018560000160006101000a81548167ffffffffffffffff021916908367ffffffffffffffff16021790555083156105625760018560000160086101000a81548160ff0219169083151502179055505b60008651116105a6576040517f08c379a000000000000000000000000000000000000000000000000000000000815260040161059d90611036565b60405180910390fd5b60005b86518110156106ad5760008782815181106105c7576105c6611056565b5b60200260200101519080600181540180825580915050600190039060005260206000200160009091909190916101000a81548173ffffffffffffffffffffffffffffffffffffffff021916908373ffffffffffffffffffffffffffffffffffffffff160217905550600180600089848151811061064757610646611056565b5b602002602001015173ffffffffffffffffffffffffffffffffffffffff1673ffffffffffffffffffffffffffffffffffffffff16815260200190815260200160002060006101000a81548160ff02191690831515021790555080806001019150506105a9565b506106d2866000815181106106c5576106c4611056565b5b60200260200101516109cc565b7fe58d4b3592c74e580b584cc31679cad3eefea91577f47aabd1764352d4b4901b866040516107019190610be9565b60405180910390a183156107655760008560000160086101000a81548160ff0219169083151502179055507fc7f505b2f371ae2175ee4913f4499e1f2633a7b5936321eed1cdaeb6115181d2600160405161075c91906110de565b60405180910390a15b505050505050565b6000818154811061077d57600080fd5b906000526020600020016000915054906101000a900473ffffffffffffffffffffffffffffffffffffffff1681565b6107b4610832565b600073ffffffffffffffffffffffffffffffffffffffff168173ffffffffffffffffffffffffffffffffffffffff16036108265760006040517f1e4fbdf700000000000000000000000000000000000000000000000000000000815260040161081d9190610ccc565b60405180910390fd5b61082f816108b9565b50565b61083a6109e0565b73ffffffffffffffffffffffffffffffffffffffff166108586103e8565b73ffffffffffffffffffffffffffffffffffffffff16146108b75761087b6109e0565b6040517f118cdaa70000000000000000000000000000000000000000000000000000000081526004016108ae9190610ccc565b60405180910390fd5b565b60006108c3610990565b905060008160000160009054906101000a900473ffffffffffffffffffffffffffffffffffffffff169050828260000160006101000a81548173ffffffffffffffffffffffffffffffffffffffff021916908373ffffffffffffffffffffffffffffffffffffffff1602179055508273ffffffffffffffffffffffffffffffffffffffff168173ffffffffffffffffffffffffffffffffffffffff167f8be0079c531659141344cd1fd0a4f28419497f9722a3daafe3b4186f6b6457e060405160405180910390a3505050565b60007f9016d09d72d40fdae2fd8ceac6b6234c7706214fd39c1cd1e609a0528c199300905090565b6000806109c36109e8565b90508091505090565b6109d4610a13565b6109dd81610a53565b50565b600033905090565b60007ff0c57e16840df040f15088dc2f81fe391c3923bec73e23a9662efc9c229c6a0060001b905090565b610a1b610ad9565b610a51576040517fd7e6bcf800000000000000000000000000000000000000000000000000000000815260040160405180910390fd5b565b610a5b610a13565b600073ffffffffffffffffffffffffffffffffffffffff168173ffffffffffffffffffffffffffffffffffffffff1603610acd5760006040517f1e4fbdf7000000000000000000000000000000000000000000000000000000008152600401610ac49190610ccc565b60405180910390fd5b610ad6816108b9565b50565b6000610ae36109b8565b60000160089054906101000a900460ff16905090565b600081519050919050565b600082825260208201905092915050565b6000819050602082019050919050565b600073ffffffffffffffffffffffffffffffffffffffff82169050919050565b6000610b5082610b25565b9050919050565b610b6081610b45565b82525050565b6000610b728383610b57565b60208301905092915050565b6000602082019050919050565b6000610b9682610af9565b610ba08185610b04565b9350610bab83610b15565b8060005b83811015610bdc578151610bc38882610b66565b9750610bce83610b7e565b925050600181019050610baf565b5085935050505092915050565b60006020820190508181036000830152610c038184610b8b565b905092915050565b600081519050919050565b600082825260208201905092915050565b60005b83811015610c45578082015181840152602081019050610c2a565b60008484015250505050565b6000601f19601f8301169050919050565b6000610c6d82610c0b565b610c778185610c16565b9350610c87818560208601610c27565b610c9081610c51565b840191505092915050565b60006020820190508181036000830152610cb58184610c62565b905092915050565b610cc681610b45565b82525050565b6000602082019050610ce16000830184610cbd565b92915050565b6000604051905090565b600080fd5b600080fd5b610d0481610b45565b8114610d0f57600080fd5b50565b600081359050610d2181610cfb565b92915050565b600060208284031215610d3d57610d3c610cf1565b5b6000610d4b84828501610d12565b91505092915050565b60008115159050919050565b610d6981610d54565b82525050565b6000602082019050610d846000830184610d60565b92915050565b600080fd5b7f4e487b7100000000000000000000000000000000000000000000000000000000600052604160045260246000fd5b610dc782610c51565b810181811067ffffffffffffffff82111715610de657610de5610d8f565b5b80604052505050565b6000610df9610ce7565b9050610e058282610dbe565b919050565b600067ffffffffffffffff821115610e2557610e24610d8f565b5b602082029050602081019050919050565b600080fd5b6000610e4e610e4984610e0a565b610def565b90508083825260208201905060208402830185811115610e7157610e70610e36565b5b835b81811015610e9a5780610e868882610d12565b845260208401935050602081019050610e73565b5050509392505050565b600082601f830112610eb957610eb8610d8a565b5b8135610ec9848260208601610e3b565b91505092915050565b600060208284031215610ee857610ee7610cf1565b5b600082013567ffffffffffffffff811115610f0657610f05610cf6565b5b610f1284828501610ea4565b91505092915050565b6000819050919050565b610f2e81610f1b565b8114610f3957600080fd5b50565b600081359050610f4b81610f25565b92915050565b600060208284031215610f6757610f66610cf1565b5b6000610f7584828501610f3c565b91505092915050565b7f416c7265616479207369676e6564000000000000000000000000000000000000600082015250565b6000610fb4600e83610c16565b9150610fbf82610f7e565b602082019050919050565b60006020820190508181036000830152610fe381610fa7565b9050919050565b7f4e6f20666f756e64657273000000000000000000000000000000000000000000600082015250565b6000611020600b83610c16565b915061102b82610fea565b602082019050919050565b6000602082019050818103600083015261104f81611013565b9050919050565b7f4e487b7100000000000000000000000000000000000000000000000000000000600052603260045260246000fd5b6000819050919050565b600067ffffffffffffffff82169050919050565b6000819050919050565b60006110c86110c36110be84611085565b6110a3565b61108f565b9050919050565b6110d8816110ad565b82525050565b60006020820190506110f360008301846110cf565b9291505056fe68747470733a2f2f7777772e686f6c6163726163792e6f72672f636f6e737469747574696f6e2f352d302fa26469706673582212202bdc25bb906c03a06ef5e3207ad083f58427806711ef1b70365d03681ef65cd264736f6c634300081d0033",
  "linkReferences": {},
  "deployedLinkReferences": {}
}