{
  "_format": "hh-sol-artifact-1",
  "contractName": "Organization",
  "sourceName": "contracts/Organization.sol",
  "abi": [
    {
      "inputs": [],
      "stateMutability": "nonpayable",
      "type": "constructor"
    },
    {
      "inputs": [],
      "name": "InvalidInitialization",
      "type": "error"
    },
    {
      "inputs": [],
      "name": "NotInitializing",
      "type": "error"
    },
    {
      "anonymous": false,
      "inputs": [
        {
          "indexed": true,
          "internalType": "address",
          "name": "signer",
          "type": "address"
        },
        {
          "indexed": false,
          "internalType": "string",
          "name": "documentHash",
          "type": "string"
        },
        {
          "indexed": false,
          "internalType": "string",
          "name": "signatureHash",
          "type": "string"
        },
        {
          "indexed": false,
          "internalType": "uint256",
          "name": "timestamp",
          "type": "uint256"
        }
      ],
      "name": "ConstitutionSigned",
      "type": "event"
    },
    {
      "anonymous": false,
      "inputs": [
        {
          "indexed": false,
          "internalType": "uint64",
          "name": "version",
          "type": "uint64"
        }
      ],
      "name": "Initialized",
      "type": "event"
    },
    {
      "anonymous": false,
      "inputs": [
        {
          "indexed": false,
          "internalType": "string",
          "name": "newName",
          "type": "string"
        },
        {
          "indexed": false,
          "internalType": "string",
          "name": "newPurpose",
          "type": "string"
        }
      ],
      "name": "NameAndPurposeUpdated",
      "type": "event"
    },
    {
      "anonymous": false,
      "inputs": [
        {
          "indexed": false,
          "internalType": "string",
          "name": "newName",
          "type": "string"
        }
      ],
      "name": "NameUpdated",
      "type": "event"
    },
    {
      "anonymous": false,
      "inputs": [
        {
          "indexed": true,
          "internalType": "address",
          "name": "partner",
          "type": "address"
        }
      ],
      "name": "PartnerAdded",
      "type": "event"
    },
    {
      "anonymous": false,
      "inputs": [
        {
          "indexed": true,
          "internalType": "address",
          "name": "partner",
          "type": "address"
        }
      ],
      "name": "PartnerRemoved",
      "type": "event"
    },
    {
      "anonymous": false,
      "inputs": [
        {
          "indexed": false,
          "internalType": "string",
          "name": "newPurpose",
          "type": "string"
        }
      ],
      "name": "PurposeUpdated",
      "type": "event"
    },
    {
      "inputs": [
        {
          "internalType": "address",
          "name": "",
          "type": "address"
        }
      ],
      "name": "constitutionSignatures",
      "outputs": [
        {
          "internalType": "string",
          "name": "documentHash",
          "type": "string"
        },
        {
          "internalType": "string",
          "name": "signatureHash",
          "type": "string"
        },
        {
          "internalType": "uint256",
          "name": "timestamp",
          "type": "uint256"
        },
        {
          "internalType": "string",
          "name": "constitutionVersion",
          "type": "string"
        },
        {
          "internalType": "string",
          "name": "consentStatement",
          "type": "string"
        },
        {
          "internalType": "address",
          "name": "signer",
          "type": "address"
        }
      ],
      "stateMutability": "view",
      "type": "function"
    },
    {
      "inputs": [
        {
          "internalType": "uint256",
          "name": "",
          "type": "uint256"
        }
      ],
      "name": "constitutionSigners",
      "outputs": [
        {
          "internalType": "address",
          "name": "",
          "type": "address"
        }
      ],
      "stateMutability": "view",
      "type": "function"
    },
    {
      "inputs": [
        {
          "internalType": "address",
          "name": "signer",
          "type": "address"
        }
      ],
      "name": "getConstitutionSignature",
      "outputs": [
        {
          "internalType": "string",
          "name": "documentHash",
          "type": "string"
        },
        {
          "internalType": "string",
          "name": "signatureHash",
          "type": "string"
        },
        {
          "internalType": "uint256",
          "name": "timestamp",
          "type": "uint256"
        },
        {
          "internalType": "string",
          "name": "constitutionVersion",
          "type": "string"
        },
        {
          "internalType": "string",
          "name": "consentStatement",
          "type": "string"
        },
        {
          "internalType": "address",
          "name": "signerAddress",
          "type": "address"
        }
      ],
      "stateMutability": "view",
      "type": "function"
    },
    {
      "inputs": [],
      "name": "getConstitutionSigners",
      "outputs": [
        {
          "internalType": "address[]",
          "name": "",
          "type": "address[]"
        }
      ],
      "stateMutability": "view",
      "type": "function"
    },
    {
      "inputs": [],
      "name": "getPartners",
      "outputs": [
        {
          "internalType": "address[]",
          "name": "",
          "type": "address[]"
        }
      ],
      "stateMutability": "view",
      "type": "function"
    },
    {
      "inputs": [
        {
          "internalType": "address",
          "name": "",
          "type": "address"
        }
      ],
      "name": "hasSignedConstitution",
      "outputs": [
        {
          "internalType": "bool",
          "name": "",
          "type": "bool"
        }
      ],
      "stateMutability": "view",
      "type": "function"
    },
    {
      "inputs": [
        {
          "internalType": "string",
          "name": "_name",
          "type": "string"
        },
        {
          "internalType": "string",
          "name": "_purpose",
          "type": "string"
        }
      ],
      "name": "initialize",
      "outputs": [],
      "stateMutability": "nonpayable",
      "type": "function"
    },
    {
      "inputs": [],
      "name": "name",
      "outputs": [
        {
          "internalType": "string",
          "name": "",
          "type": "string"
        }
      ],
      "stateMutability": "view",
      "type": "function"
    },
    {
      "inputs": [
        {
          "internalType": "uint256",
          "name": "",
          "type": "uint256"
        }
      ],
      "name": "partners",
      "outputs": [
        {
          "internalType": "address",
          "name": "",
          "type": "address"
        }
      ],
      "stateMutability": "view",
      "type": "function"
    },
    {
      "inputs": [],
      "name": "purpose",
      "outputs": [
        {
          "internalType": "string",
          "name": "",
          "type": "string"
        }
      ],
      "stateMutability": "view",
      "type": "function"
    },
    {
      "inputs": [],
      "name": "signConstitution",
      "outputs": [],
      "stateMutability": "nonpayable",
      "type": "function"
    },
    {
      "inputs": [
        {
          "internalType": "string",
          "name": "documentHash",
          "type": "string"
        },
        {
          "internalType": "string",
          "name": "signatureHash",
          "type": "string"
        },
        {
          "internalType": "string",
          "name": "constitutionVersion",
          "type": "string"
        },
        {
          "internalType": "string",
          "name": "consentStatement",
          "type": "string"
        }
      ],
      "name": "signConstitutionWithDocument",
      "outputs": [],
      "stateMutability": "nonpayable",
      "type": "function"
    },
    {
      "inputs": [
        {
          "internalType": "string",
          "name": "newName",
          "type": "string"
        }
      ],
      "name": "updateName",
      "outputs": [],
      "stateMutability": "nonpayable",
      "type": "function"
    },
    {
      "inputs": [
        {
          "internalType": "string",
          "name": "newName",
          "type": "string"
        },
        {
          "internalType": "string",
          "name": "newPurpose",
          "type": "string"
        }
      ],
      "name": "updateNameAndPurpose",
      "outputs": [],
      "stateMutability": "nonpayable",
      "type": "function"
    },
    {
      "inputs": [
        {
          "internalType": "string",
          "name": "newPurpose",
          "type": "string"
        }
      ],
      "name": "updatePurpose",
      "outputs": [],
      "stateMutability": "nonpayable",
      "type": "function"
    }
  ],
  "bytecode": "0x608060405234801561001057600080fd5b5061001f61002460201b60201c565b6101ab565b600061003461012860201b60201c565b90508060000160089054906101000a900460ff161561007f576040517ff92ee8a900000000000000000000000000000000000000000000000000000000815260040160405180910390fd5b67ffffffffffffffff80168160000160009054906101000a900467ffffffffffffffff1667ffffffffffffffff16146101255767ffffffffffffffff8160000160006101000a81548167ffffffffffffffff021916908367ffffffffffffffff1602179055507fc7f505b2f371ae2175ee4913f4499e1f2633a7b5936321eed1cdaeb6115181d267ffffffffffffffff60405161011c9190610190565b60405180910390a15b50565b60008061013961014260201b60201c565b90508091505090565b60007ff0c57e16840df040f15088dc2f81fe391c3923bec73e23a9662efc9c229c6a0060001b905090565b600067ffffffffffffffff82169050919050565b61018a8161016d565b82525050565b60006020820190506101a56000830184610181565b92915050565b612985806101ba6000396000f3fe608060405234801561001057600080fd5b50600436106100f55760003560e01c806374d9e1f511610097578063b996457d11610066578063b996457d1461024a578063c3b49d041461027f578063c57e2218146102af578063e84d4424146102cd576100f5565b806374d9e1f5146101b257806384da92a7146101e257806396b1cf28146101fe578063a088d5e01461021a576100f5565b80634cd88b76116100d35780634cd88b761461013e57806354488a4e1461015a57806370740aab1461017657806373e29b0d14610194576100f5565b806306fdde03146100fa5780631df948c51461011857806337a5151d14610134575b600080fd5b610102610302565b60405161010f9190611afe565b60405180910390f35b610132600480360381019061012d9190611c69565b610390565b005b61013c610814565b005b61015860048036038101906101539190611d40565b610c64565b005b610174600480360381019061016f9190611d40565b610e93565b005b61017e611004565b60405161018b9190611afe565b60405180910390f35b61019c611092565b6040516101a99190611ea8565b60405180910390f35b6101cc60048036038101906101c79190611f00565b611120565b6040516101d99190611f3c565b60405180910390f35b6101fc60048036038101906101f79190611f57565b61115f565b005b61021860048036038101906102139190611f57565b611279565b005b610234600480360381019061022f9190611fcc565b611393565b6040516102419190612014565b60405180910390f35b610264600480360381019061025f9190611fcc565b6113b3565b6040516102769695949392919061203e565b60405180910390f35b61029960048036038101906102949190611f00565b61162f565b6040516102a69190611f3c565b60405180910390f35b6102b761166e565b6040516102c49190611ea8565b60405180910390f35b6102e760048036038101906102e29190611fcc565b6116fc565b6040516102f99695949392919061203e565b60405180910390f35b6000805461030f906120ea565b80601f016020809104026020016040519081016040528092919081815260200182805461033b906120ea565b80156103885780601f1061035d57610100808354040283529160200191610388565b820191906000526020600020905b81548152906001019060200180831161036b57829003601f168201915b505050505081565b600360003373ffffffffffffffffffffffffffffffffffffffff1673ffffffffffffffffffffffffffffffffffffffff16815260200190815260200160002060009054906101000a900460ff161561041d576040517f08c379a000000000000000000000000000000000000000000000000000000000815260040161041490612167565b60405180910390fd5b6000845111610461576040517f08c379a0000000000000000000000000000000000000000000000000000000008152600401610458906121d3565b60405180910390fd5b60008351116104a5576040517f08c379a000000000000000000000000000000000000000000000000000000000815260040161049c9061223f565b60405180910390fd5b60008251116104e9576040517f08c379a00000000000000000000000000000000000000000000000000000000081526004016104e0906122d1565b60405180910390fd5b600081511161052d576040517f08c379a000000000000000000000000000000000000000000000000000000000815260040161052490612363565b60405180910390fd5b6040518060c001604052808581526020018481526020014281526020018381526020018281526020013373ffffffffffffffffffffffffffffffffffffffff16815250600460003373ffffffffffffffffffffffffffffffffffffffff1673ffffffffffffffffffffffffffffffffffffffff16815260200190815260200160002060008201518160000190816105c4919061252f565b5060208201518160010190816105da919061252f565b506040820151816002015560608201518160030190816105fa919061252f565b506080820151816004019081610610919061252f565b5060a08201518160050160006101000a81548173ffffffffffffffffffffffffffffffffffffffff021916908373ffffffffffffffffffffffffffffffffffffffff1602179055509050506005339080600181540180825580915050600190039060005260206000200160009091909190916101000a81548173ffffffffffffffffffffffffffffffffffffffff021916908373ffffffffffffffffffffffffffffffffffffffff1602179055506001600360003373ffffffffffffffffffffffffffffffffffffffff1673ffffffffffffffffffffffffffffffffffffffff16815260200190815260200160002060006101000a81548160ff0219169083151502179055506002339080600181540180825580915050600190039060005260206000200160009091909190916101000a81548173ffffffffffffffffffffffffffffffffffffffff021916908373ffffffffffffffffffffffffffffffffffffffff1602179055503373ffffffffffffffffffffffffffffffffffffffff167ff5c689e820056bd7214a707793f7e57265194027aa7b37fe7484a548ff33c2398585426040516107c393929190612601565b60405180910390a23373ffffffffffffffffffffffffffffffffffffffff167fe763ed71afbf8f598659a4d8ac8178df2e3d08a2f869fd42f47dd53fc552052760405160405180910390a250505050565b600360003373ffffffffffffffffffffffffffffffffffffffff1673ffffffffffffffffffffffffffffffffffffffff16815260200190815260200160002060009054906101000a900460ff16156108a1576040517f08c379a000000000000000000000000000000000000000000000000000000000815260040161089890612167565b60405180910390fd5b60006040518060400160405280601081526020017f6c65676163792d7369676e617475726500000000000000000000000000000000815250905060006040518060400160405280601581526020017f6c65676163792d7369676e61747572652d68617368000000000000000000000081525090506040518060c001604052808381526020018281526020014281526020016040518060400160405280600381526020017f352e30000000000000000000000000000000000000000000000000000000000081525081526020016040518060400160405280601b81526020017f4c656761637920636f6e737469747574696f6e207369676e696e67000000000081525081526020013373ffffffffffffffffffffffffffffffffffffffff16815250600460003373ffffffffffffffffffffffffffffffffffffffff1673ffffffffffffffffffffffffffffffffffffffff1681526020019081526020016000206000820151816000019081610a16919061252f565b506020820151816001019081610a2c919061252f565b50604082015181600201556060820151816003019081610a4c919061252f565b506080820151816004019081610a62919061252f565b5060a08201518160050160006101000a81548173ffffffffffffffffffffffffffffffffffffffff021916908373ffffffffffffffffffffffffffffffffffffffff1602179055509050506005339080600181540180825580915050600190039060005260206000200160009091909190916101000a81548173ffffffffffffffffffffffffffffffffffffffff021916908373ffffffffffffffffffffffffffffffffffffffff1602179055506001600360003373ffffffffffffffffffffffffffffffffffffffff1673ffffffffffffffffffffffffffffffffffffffff16815260200190815260200160002060006101000a81548160ff0219169083151502179055506002339080600181540180825580915050600190039060005260206000200160009091909190916101000a81548173ffffffffffffffffffffffffffffffffffffffff021916908373ffffffffffffffffffffffffffffffffffffffff1602179055503373ffffffffffffffffffffffffffffffffffffffff167ff5c689e820056bd7214a707793f7e57265194027aa7b37fe7484a548ff33c239838342604051610c1593929190612601565b60405180910390a23373ffffffffffffffffffffffffffffffffffffffff167fe763ed71afbf8f598659a4d8ac8178df2e3d08a2f869fd42f47dd53fc552052760405160405180910390a25050565b6000610c6e611a2f565b905060008160000160089054906101000a900460ff1615905060008260000160009054906101000a900467ffffffffffffffff1690506000808267ffffffffffffffff16148015610cbc5750825b9050600060018367ffffffffffffffff16148015610cf1575060003073ffffffffffffffffffffffffffffffffffffffff163b145b905081158015610cff575080155b15610d36576040517ff92ee8a900000000000000000000000000000000000000000000000000000000815260040160405180910390fd5b60018560000160006101000a81548167ffffffffffffffff021916908367ffffffffffffffff1602179055508315610d865760018560000160086101000a81548160ff0219169083151502179055505b6000875111610dca576040517f08c379a0000000000000000000000000000000000000000000000000000000008152600401610dc190612692565b60405180910390fd5b6000865111610e0e576040517f08c379a0000000000000000000000000000000000000000000000000000000008152600401610e05906126fe565b60405180910390fd5b8660009081610e1d919061252f565b508560019081610e2d919061252f565b508315610e8a5760008560000160086101000a81548160ff0219169083151502179055507fc7f505b2f371ae2175ee4913f4499e1f2633a7b5936321eed1cdaeb6115181d26001604051610e81919061276d565b60405180910390a15b50505050505050565b600360003373ffffffffffffffffffffffffffffffffffffffff1673ffffffffffffffffffffffffffffffffffffffff16815260200190815260200160002060009054906101000a900460ff16610f1f576040517f08c379a0000000000000000000000000000000000000000000000000000000008152600401610f16906127fa565b60405180910390fd5b6000825111610f63576040517f08c379a0000000000000000000000000000000000000000000000000000000008152600401610f5a90612692565b60405180910390fd5b6000815111610fa7576040517f08c379a0000000000000000000000000000000000000000000000000000000008152600401610f9e906126fe565b60405180910390fd5b8160009081610fb6919061252f565b508060019081610fc6919061252f565b507facfc945dc582ec022a487f0adf3c4903158bc6506aa37ba92f10bc8c56340cab8282604051610ff892919061281a565b60405180910390a15050565b60018054611011906120ea565b80601f016020809104026020016040519081016040528092919081815260200182805461103d906120ea565b801561108a5780601f1061105f5761010080835404028352916020019161108a565b820191906000526020600020905b81548152906001019060200180831161106d57829003601f168201915b505050505081565b6060600280548060200260200160405190810160405280929190818152602001828054801561111657602002820191906000526020600020905b8160009054906101000a900473ffffffffffffffffffffffffffffffffffffffff1673ffffffffffffffffffffffffffffffffffffffff16815260200190600101908083116110cc575b5050505050905090565b6005818154811061113057600080fd5b906000526020600020016000915054906101000a900473ffffffffffffffffffffffffffffffffffffffff1681565b600360003373ffffffffffffffffffffffffffffffffffffffff1673ffffffffffffffffffffffffffffffffffffffff16815260200190815260200160002060009054906101000a900460ff166111eb576040517f08c379a00000000000000000000000000000000000000000000000000000000081526004016111e29061289d565b60405180910390fd5b600081511161122f576040517f08c379a000000000000000000000000000000000000000000000000000000000815260040161122690612692565b60405180910390fd5b806000908161123e919061252f565b507f9f7688a97f1ac51fe03bac18af18d6810f9f11f0db08c59b1938a9ac825ef7448160405161126e9190611afe565b60405180910390a150565b600360003373ffffffffffffffffffffffffffffffffffffffff1673ffffffffffffffffffffffffffffffffffffffff16815260200190815260200160002060009054906101000a900460ff16611305576040517f08c379a00000000000000000000000000000000000000000000000000000000081526004016112fc9061292f565b60405180910390fd5b6000815111611349576040517f08c379a0000000000000000000000000000000000000000000000000000000008152600401611340906126fe565b60405180910390fd5b8060019081611358919061252f565b507f780a50935e552bbb4121484821a2d661ad401d0428934b0b3b388acf07d58034816040516113889190611afe565b60405180910390a150565b60036020528060005260406000206000915054906101000a900460ff1681565b60046020528060005260406000206000915090508060000180546113d6906120ea565b80601f0160208091040260200160405190810160405280929190818152602001828054611402906120ea565b801561144f5780601f106114245761010080835404028352916020019161144f565b820191906000526020600020905b81548152906001019060200180831161143257829003601f168201915b505050505090806001018054611464906120ea565b80601f0160208091040260200160405190810160405280929190818152602001828054611490906120ea565b80156114dd5780601f106114b2576101008083540402835291602001916114dd565b820191906000526020600020905b8154815290600101906020018083116114c057829003601f168201915b5050505050908060020154908060030180546114f8906120ea565b80601f0160208091040260200160405190810160405280929190818152602001828054611524906120ea565b80156115715780601f1061154657610100808354040283529160200191611571565b820191906000526020600020905b81548152906001019060200180831161155457829003601f168201915b505050505090806004018054611586906120ea565b80601f01602080910402602001604051908101604052809291908181526020018280546115b2906120ea565b80156115ff5780601f106115d4576101008083540402835291602001916115ff565b820191906000526020600020905b8154815290600101906020018083116115e257829003601f168201915b5050505050908060050160009054906101000a900473ffffffffffffffffffffffffffffffffffffffff16905086565b6002818154811061163f57600080fd5b906000526020600020016000915054906101000a900473ffffffffffffffffffffffffffffffffffffffff1681565b606060058054806020026020016040519081016040528092919081815260200182805480156116f257602002820191906000526020600020905b8160009054906101000a900473ffffffffffffffffffffffffffffffffffffffff1673ffffffffffffffffffffffffffffffffffffffff16815260200190600101908083116116a8575b5050505050905090565b6060806000606080600080600460008973ffffffffffffffffffffffffffffffffffffffff1673ffffffffffffffffffffffffffffffffffffffff1681526020019081526020016000206040518060c0016040529081600082018054611761906120ea565b80601f016020809104026020016040519081016040528092919081815260200182805461178d906120ea565b80156117da5780601f106117af576101008083540402835291602001916117da565b820191906000526020600020905b8154815290600101906020018083116117bd57829003601f168201915b505050505081526020016001820180546117f3906120ea565b80601f016020809104026020016040519081016040528092919081815260200182805461181f906120ea565b801561186c5780601f106118415761010080835404028352916020019161186c565b820191906000526020600020905b81548152906001019060200180831161184f57829003601f168201915b505050505081526020016002820154815260200160038201805461188f906120ea565b80601f01602080910402602001604051908101604052809291908181526020018280546118bb906120ea565b80156119085780601f106118dd57610100808354040283529160200191611908565b820191906000526020600020905b8154815290600101906020018083116118eb57829003601f168201915b50505050508152602001600482018054611921906120ea565b80601f016020809104026020016040519081016040528092919081815260200182805461194d906120ea565b801561199a5780601f1061196f5761010080835404028352916020019161199a565b820191906000526020600020905b81548152906001019060200180831161197d57829003601f168201915b505050505081526020016005820160009054906101000a900473ffffffffffffffffffffffffffffffffffffffff1673ffffffffffffffffffffffffffffffffffffffff1673ffffffffffffffffffffffffffffffffffffffff16815250509050806000015181602001518260400151836060015184608001518560a001519650965096509650965096505091939550919395565b600080611a3a611a43565b90508091505090565b60007ff0c57e16840df040f15088dc2f81fe391c3923bec73e23a9662efc9c229c6a0060001b905090565b600081519050919050565b600082825260208201905092915050565b60005b83811015611aa8578082015181840152602081019050611a8d565b60008484015250505050565b6000601f19601f8301169050919050565b6000611ad082611a6e565b611ada8185611a79565b9350611aea818560208601611a8a565b611af381611ab4565b840191505092915050565b60006020820190508181036000830152611b188184611ac5565b905092915050565b6000604051905090565b600080fd5b600080fd5b600080fd5b600080fd5b7f4e487b7100000000000000000000000000000000000000000000000000000000600052604160045260246000fd5b611b7682611ab4565b810181811067ffffffffffffffff82111715611b9557611b94611b3e565b5b80604052505050565b6000611ba8611b20565b9050611bb48282611b6d565b919050565b600067ffffffffffffffff821115611bd457611bd3611b3e565b5b611bdd82611ab4565b9050602081019050919050565b82818337600083830152505050565b6000611c0c611c0784611bb9565b611b9e565b905082815260208101848484011115611c2857611c27611b39565b5b611c33848285611bea565b509392505050565b600082601f830112611c5057611c4f611b34565b5b8135611c60848260208601611bf9565b91505092915050565b60008060008060808587031215611c8357611c82611b2a565b5b600085013567ffffffffffffffff811115611ca157611ca0611b2f565b5b611cad87828801611c3b565b945050602085013567ffffffffffffffff811115611cce57611ccd611b2f565b5b611cda87828801611c3b565b935050604085013567ffffffffffffffff811115611cfb57611cfa611b2f565b5b611d0787828801611c3b565b925050606085013567ffffffffffffffff811115611d2857611d27611b2f565b5b611d3487828801611c3b565b91505092959194509250565b60008060408385031215611d5757611d56611b2a565b5b600083013567ffffffffffffffff811115611d7557611d74611b2f565b5b611d8185828601611c3b565b925050602083013567ffffffffffffffff811115611da257611da1611b2f565b5b611dae85828601611c3b565b9150509250929050565b600081519050919050565b600082825260208201905092915050565b6000819050602082019050919050565b600073ffffffffffffffffffffffffffffffffffffffff82169050919050565b6000611e0f82611de4565b9050919050565b611e1f81611e04565b82525050565b6000611e318383611e16565b60208301905092915050565b6000602082019050919050565b6000611e5582611db8565b611e5f8185611dc3565b9350611e6a83611dd4565b8060005b83811015611e9b578151611e828882611e25565b9750611e8d83611e3d565b925050600181019050611e6e565b5085935050505092915050565b60006020820190508181036000830152611ec28184611e4a565b905092915050565b6000819050919050565b611edd81611eca565b8114611ee857600080fd5b50565b600081359050611efa81611ed4565b92915050565b600060208284031215611f1657611f15611b2a565b5b6000611f2484828501611eeb565b91505092915050565b611f3681611e04565b82525050565b6000602082019050611f516000830184611f2d565b92915050565b600060208284031215611f6d57611f6c611b2a565b5b600082013567ffffffffffffffff811115611f8b57611f8a611b2f565b5b611f9784828501611c3b565b91505092915050565b611fa981611e04565b8114611fb457600080fd5b50565b600081359050611fc681611fa0565b92915050565b600060208284031215611fe257611fe1611b2a565b5b6000611ff084828501611fb7565b91505092915050565b60008115159050919050565b61200e81611ff9565b82525050565b60006020820190506120296000830184612005565b92915050565b61203881611eca565b82525050565b600060c08201905081810360008301526120588189611ac5565b9050818103602083015261206c8188611ac5565b905061207b604083018761202f565b818103606083015261208d8186611ac5565b905081810360808301526120a18185611ac5565b90506120b060a0830184611f2d565b979650505050505050565b7f4e487b7100000000000000000000000000000000000000000000000000000000600052602260045260246000fd5b6000600282049050600182168061210257607f821691505b602082108103612115576121146120bb565b5b50919050565b7f416c7265616479207369676e656420636f6e737469747574696f6e0000000000600082015250565b6000612151601b83611a79565b915061215c8261211b565b602082019050919050565b6000602082019050818103600083015261218081612144565b9050919050565b7f446f63756d656e7420686173682063616e6e6f7420626520656d707479000000600082015250565b60006121bd601d83611a79565b91506121c882612187565b602082019050919050565b600060208201905081810360008301526121ec816121b0565b9050919050565b7f5369676e617475726520686173682063616e6e6f7420626520656d7074790000600082015250565b6000612229601e83611a79565b9150612234826121f3565b602082019050919050565b600060208201905081810360008301526122588161221c565b9050919050565b7f436f6e737469747574696f6e2076657273696f6e2063616e6e6f74206265206560008201527f6d70747900000000000000000000000000000000000000000000000000000000602082015250565b60006122bb602483611a79565b91506122c68261225f565b604082019050919050565b600060208201905081810360008301526122ea816122ae565b9050919050565b7f436f6e73656e742073746174656d656e742063616e6e6f7420626520656d707460008201527f7900000000000000000000000000000000000000000000000000000000000000602082015250565b600061234d602183611a79565b9150612358826122f1565b604082019050919050565b6000602082019050818103600083015261237c81612340565b9050919050565b60008190508160005260206000209050919050565b60006020601f8301049050919050565b600082821b905092915050565b6000600883026123e57fffffffffffffffffffffffffffffffffffffffffffffffffffffffffffffffff826123a8565b6123ef86836123a8565b95508019841693508086168417925050509392505050565b6000819050919050565b600061242c61242761242284611eca565b612407565b611eca565b9050919050565b6000819050919050565b61244683612411565b61245a61245282612433565b8484546123b5565b825550505050565b600090565b61246f612462565b61247a81848461243d565b505050565b5b8181101561249e57612493600082612467565b600181019050612480565b5050565b601f8211156124e3576124b481612383565b6124bd84612398565b810160208510156124cc578190505b6124e06124d885612398565b83018261247f565b50505b505050565b600082821c905092915050565b6000612506600019846008026124e8565b1980831691505092915050565b600061251f83836124f5565b9150826002028217905092915050565b61253882611a6e565b67ffffffffffffffff81111561255157612550611b3e565b5b61255b82546120ea565b6125668282856124a2565b600060209050601f8311600181146125995760008415612587578287015190505b6125918582612513565b8655506125f9565b601f1984166125a786612383565b60005b828110156125cf578489015182556001820191506020850194506020810190506125aa565b868310156125ec57848901516125e8601f8916826124f5565b8355505b6001600288020188555050505b505050505050565b6000606082019050818103600083015261261b8186611ac5565b9050818103602083015261262f8185611ac5565b905061263e604083018461202f565b949350505050565b7f4e616d652063616e6e6f7420626520656d707479000000000000000000000000600082015250565b600061267c601483611a79565b915061268782612646565b602082019050919050565b600060208201905081810360008301526126ab8161266f565b9050919050565b7f507572706f73652063616e6e6f7420626520656d707479000000000000000000600082015250565b60006126e8601783611a79565b91506126f3826126b2565b602082019050919050565b60006020820190508181036000830152612717816126db565b9050919050565b6000819050919050565b600067ffffffffffffffff82169050919050565b600061275761275261274d8461271e565b612407565b612728565b9050919050565b6127678161273c565b82525050565b6000602082019050612782600083018461275e565b92915050565b7f4d757374206265206120706172746e657220746f20757064617465206465746160008201527f696c730000000000000000000000000000000000000000000000000000000000602082015250565b60006127e4602383611a79565b91506127ef82612788565b604082019050919050565b60006020820190508181036000830152612813816127d7565b9050919050565b600060408201905081810360008301526128348185611ac5565b905081810360208301526128488184611ac5565b90509392505050565b7f4d757374206265206120706172746e657220746f20757064617465206e616d65600082015250565b6000612887602083611a79565b915061289282612851565b602082019050919050565b600060208201905081810360008301526128b68161287a565b9050919050565b7f4d757374206265206120706172746e657220746f20757064617465207075727060008201527f6f73650000000000000000000000000000000000000000000000000000000000602082015250565b6000612919602383611a79565b9150612924826128bd565b604082019050919050565b600060208201905081810360008301526129488161290c565b905091905056fea26469706673582212209319eb63904ff7cf150976a40edeba4e3247633fb54432a6e541449bd039929264736f6c634300081d0033",
  "linkReferences": {},
  "deployedLinkReferences": {}
}