{
  "_format": "hh-sol-artifact-1",
  "contractName": "Organization",
  "sourceName": "contracts/Organization.sol",
  "abi": [
    {
      "inputs": [],
      "name": "InvalidInitialization",
      "type": "error"
    },
    {
      "inputs": [],
      "name": "NotInitializing",
      "type": "error"
    },
    {
      "inputs": [
        {
          "internalType": "address",
          "name": "owner",
          "type": "address"
        }
      ],
      "name": "OwnableInvalidOwner",
      "type": "error"
    },
    {
      "inputs": [
        {
          "internalType": "address",
          "name": "account",
          "type": "address"
        }
      ],
      "name": "OwnableUnauthorizedAccount",
      "type": "error"
    },
    {
      "anonymous": false,
      "inputs": [
        {
          "indexed": true,
          "internalType": "address",
          "name": "partner",
          "type": "address"
        }
      ],
      "name": "ConstitutionSigned",
      "type": "event"
    },
    {
      "anonymous": false,
      "inputs": [
        {
          "indexed": false,
          "internalType": "uint64",
          "name": "version",
          "type": "uint64"
        }
      ],
      "name": "Initialized",
      "type": "event"
    },
    {
      "anonymous": false,
      "inputs": [
        {
          "indexed": false,
          "internalType": "string",
          "name": "name",
          "type": "string"
        },
        {
          "indexed": false,
          "internalType": "string",
          "name": "purpose",
          "type": "string"
        }
      ],
      "name": "Initialized",
      "type": "event"
    },
    {
      "anonymous": false,
      "inputs": [
        {
          "indexed": false,
          "internalType": "string",
          "name": "oldName",
          "type": "string"
        },
        {
          "indexed": false,
          "internalType": "string",
          "name": "newName",
          "type": "string"
        }
      ],
      "name": "NameUpdated",
      "type": "event"
    },
    {
      "anonymous": false,
      "inputs": [
        {
          "indexed": true,
          "internalType": "address",
          "name": "previousOwner",
          "type": "address"
        },
        {
          "indexed": true,
          "internalType": "address",
          "name": "newOwner",
          "type": "address"
        }
      ],
      "name": "OwnershipTransferred",
      "type": "event"
    },
    {
      "anonymous": false,
      "inputs": [
        {
          "indexed": false,
          "internalType": "string",
          "name": "oldPurpose",
          "type": "string"
        },
        {
          "indexed": false,
          "internalType": "string",
          "name": "newPurpose",
          "type": "string"
        }
      ],
      "name": "PurposeUpdated",
      "type": "event"
    },
    {
      "inputs": [],
      "name": "getPartners",
      "outputs": [
        {
          "internalType": "address[]",
          "name": "",
          "type": "address[]"
        }
      ],
      "stateMutability": "view",
      "type": "function"
    },
    {
      "inputs": [
        {
          "internalType": "address",
          "name": "",
          "type": "address"
        }
      ],
      "name": "hasSignedConstitution",
      "outputs": [
        {
          "internalType": "bool",
          "name": "",
          "type": "bool"
        }
      ],
      "stateMutability": "view",
      "type": "function"
    },
    {
      "inputs": [
        {
          "internalType": "string",
          "name": "_name",
          "type": "string"
        },
        {
          "internalType": "string",
          "name": "_purpose",
          "type": "string"
        },
        {
          "internalType": "address",
          "name": "_creator",
          "type": "address"
        }
      ],
      "name": "initialize",
      "outputs": [],
      "stateMutability": "nonpayable",
      "type": "function"
    },
    {
      "inputs": [],
      "name": "name",
      "outputs": [
        {
          "internalType": "string",
          "name": "",
          "type": "string"
        }
      ],
      "stateMutability": "view",
      "type": "function"
    },
    {
      "inputs": [],
      "name": "owner",
      "outputs": [
        {
          "internalType": "address",
          "name": "",
          "type": "address"
        }
      ],
      "stateMutability": "view",
      "type": "function"
    },
    {
      "inputs": [
        {
          "internalType": "uint256",
          "name": "",
          "type": "uint256"
        }
      ],
      "name": "partners",
      "outputs": [
        {
          "internalType": "address",
          "name": "",
          "type": "address"
        }
      ],
      "stateMutability": "view",
      "type": "function"
    },
    {
      "inputs": [],
      "name": "purpose",
      "outputs": [
        {
          "internalType": "string",
          "name": "",
          "type": "string"
        }
      ],
      "stateMutability": "view",
      "type": "function"
    },
    {
      "inputs": [],
      "name": "renounceOwnership",
      "outputs": [],
      "stateMutability": "nonpayable",
      "type": "function"
    },
    {
      "inputs": [],
      "name": "signConstitution",
      "outputs": [],
      "stateMutability": "nonpayable",
      "type": "function"
    },
    {
      "inputs": [
        {
          "internalType": "address",
          "name": "newOwner",
          "type": "address"
        }
      ],
      "name": "transferOwnership",
      "outputs": [],
      "stateMutability": "nonpayable",
      "type": "function"
    },
    {
      "inputs": [
        {
          "internalType": "string",
          "name": "_newName",
          "type": "string"
        }
      ],
      "name": "updateName",
      "outputs": [],
      "stateMutability": "nonpayable",
      "type": "function"
    },
    {
      "inputs": [
        {
          "internalType": "string",
          "name": "_newName",
          "type": "string"
        },
        {
          "internalType": "string",
          "name": "_newPurpose",
          "type": "string"
        }
      ],
      "name": "updateNameAndPurpose",
      "outputs": [],
      "stateMutability": "nonpayable",
      "type": "function"
    },
    {
      "inputs": [
        {
          "internalType": "string",
          "name": "_newPurpose",
          "type": "string"
        }
      ],
      "name": "updatePurpose",
      "outputs": [],
      "stateMutability": "nonpayable",
      "type": "function"
    }
  ],
  "bytecode": "0x6080604052348015600f57600080fd5b50611ec08061001f6000396000f3fe608060405234801561001057600080fd5b50600436106100cf5760003560e01c806373e29b0d1161008c57806396b1cf281161006657806396b1cf28146101b4578063a088d5e0146101d0578063c3b49d0414610200578063f2fde38b14610230576100cf565b806373e29b0d1461015c57806384da92a71461017a5780638da5cb5b14610196576100cf565b806306fdde03146100d4578063077f224a146100f257806337a5151d1461010e57806354488a4e1461011857806370740aab14610134578063715018a614610152575b600080fd5b6100dc61024c565b6040516100e9919061130c565b60405180910390f35b61010c600480360381019061010791906114d5565b6102da565b005b6101166105bb565b005b610132600480360381019061012d9190611560565b610748565b005b61013c610a11565b604051610149919061130c565b60405180910390f35b61015a610a9f565b005b610164610ab3565b6040516101719190611696565b60405180910390f35b610194600480360381019061018f91906116b8565b610b41565b005b61019e610cec565b6040516101ab9190611710565b60405180910390f35b6101ce60048036038101906101c991906116b8565b610d24565b005b6101ea60048036038101906101e5919061172b565b610ed0565b6040516101f79190611773565b60405180910390f35b61021a600480360381019061021591906117c4565b610ef0565b6040516102279190611710565b60405180910390f35b61024a6004803603810190610245919061172b565b610f2f565b005b6000805461025990611820565b80601f016020809104026020016040519081016040528092919081815260200182805461028590611820565b80156102d25780601f106102a7576101008083540402835291602001916102d2565b820191906000526020600020905b8154815290600101906020018083116102b557829003601f168201915b505050505081565b60006102e4610fb5565b905060008160000160089054906101000a900460ff1615905060008260000160009054906101000a900467ffffffffffffffff1690506000808267ffffffffffffffff161480156103325750825b9050600060018367ffffffffffffffff16148015610367575060003073ffffffffffffffffffffffffffffffffffffffff163b145b905081158015610375575080155b156103ac576040517ff92ee8a900000000000000000000000000000000000000000000000000000000815260040160405180910390fd5b60018560000160006101000a81548167ffffffffffffffff021916908367ffffffffffffffff16021790555083156103fc5760018560000160086101000a81548160ff0219169083151502179055505b6000885111610440576040517f08c379a00000000000000000000000000000000000000000000000000000000081526004016104379061189d565b60405180910390fd5b6000875111610484576040517f08c379a000000000000000000000000000000000000000000000000000000000815260040161047b90611909565b60405180910390fd5b600073ffffffffffffffffffffffffffffffffffffffff168673ffffffffffffffffffffffffffffffffffffffff16036104f3576040517f08c379a00000000000000000000000000000000000000000000000000000000081526004016104ea90611975565b60405180910390fd5b87600090816105029190611b41565b5086600190816105129190611b41565b5061051c86610fc9565b7fa070f05b16f4eb7ffaa9444c7d3e435633333ff89cc255bd7e648e7dab636f33888860405161054d929190611c13565b60405180910390a183156105b15760008560000160086101000a81548160ff0219169083151502179055507fc7f505b2f371ae2175ee4913f4499e1f2633a7b5936321eed1cdaeb6115181d260016040516105a89190611c99565b60405180910390a15b5050505050505050565b600360003373ffffffffffffffffffffffffffffffffffffffff1673ffffffffffffffffffffffffffffffffffffffff16815260200190815260200160002060009054906101000a900460ff1615610648576040517f08c379a000000000000000000000000000000000000000000000000000000000815260040161063f90611d00565b60405180910390fd5b6002339080600181540180825580915050600190039060005260206000200160009091909190916101000a81548173ffffffffffffffffffffffffffffffffffffffff021916908373ffffffffffffffffffffffffffffffffffffffff1602179055506001600360003373ffffffffffffffffffffffffffffffffffffffff1673ffffffffffffffffffffffffffffffffffffffff16815260200190815260200160002060006101000a81548160ff0219169083151502179055503373ffffffffffffffffffffffffffffffffffffffff167fb90fb482735d7b26a1b044c13f1cf3ab5cb3a7a07c2b79e764c34e3f027e1e3660405160405180910390a2565b600360003373ffffffffffffffffffffffffffffffffffffffff1673ffffffffffffffffffffffffffffffffffffffff16815260200190815260200160002060009054906101000a900460ff166107d4576040517f08c379a00000000000000000000000000000000000000000000000000000000081526004016107cb90611d92565b60405180910390fd5b6000825111610818576040517f08c379a000000000000000000000000000000000000000000000000000000000815260040161080f9061189d565b60405180910390fd5b600081511161085c576040517f08c379a000000000000000000000000000000000000000000000000000000000815260040161085390611909565b60405180910390fd5b600080805461086a90611820565b80601f016020809104026020016040519081016040528092919081815260200182805461089690611820565b80156108e35780601f106108b8576101008083540402835291602001916108e3565b820191906000526020600020905b8154815290600101906020018083116108c657829003601f168201915b505050505090506000600180546108f990611820565b80601f016020809104026020016040519081016040528092919081815260200182805461092590611820565b80156109725780601f1061094757610100808354040283529160200191610972565b820191906000526020600020905b81548152906001019060200180831161095557829003601f168201915b5050505050905083600090816109889190611b41565b5082600190816109989190611b41565b507ff19e969be7affb98a1d812094e0f24ecca36f1eabd6dd592c97020d47c64a00e82856040516109ca929190611c13565b60405180910390a17f0e9edfcade50e1c8d62585853d6e620ccce498512264d8cd19794653c7d03b7b8184604051610a03929190611c13565b60405180910390a150505050565b60018054610a1e90611820565b80601f0160208091040260200160405190810160405280929190818152602001828054610a4a90611820565b8015610a975780601f10610a6c57610100808354040283529160200191610a97565b820191906000526020600020905b815481529060010190602001808311610a7a57829003601f168201915b505050505081565b610aa7610fdd565b610ab16000611064565b565b60606002805480602002602001604051908101604052809291908181526020018280548015610b3757602002820191906000526020600020905b8160009054906101000a900473ffffffffffffffffffffffffffffffffffffffff1673ffffffffffffffffffffffffffffffffffffffff1681526020019060010190808311610aed575b5050505050905090565b600360003373ffffffffffffffffffffffffffffffffffffffff1673ffffffffffffffffffffffffffffffffffffffff16815260200190815260200160002060009054906101000a900460ff16610bcd576040517f08c379a0000000000000000000000000000000000000000000000000000000008152600401610bc490611dfe565b60405180910390fd5b6000815111610c11576040517f08c379a0000000000000000000000000000000000000000000000000000000008152600401610c089061189d565b60405180910390fd5b6000808054610c1f90611820565b80601f0160208091040260200160405190810160405280929190818152602001828054610c4b90611820565b8015610c985780601f10610c6d57610100808354040283529160200191610c98565b820191906000526020600020905b815481529060010190602001808311610c7b57829003601f168201915b505050505090508160009081610cae9190611b41565b507ff19e969be7affb98a1d812094e0f24ecca36f1eabd6dd592c97020d47c64a00e8183604051610ce0929190611c13565b60405180910390a15050565b600080610cf761113b565b90508060000160009054906101000a900473ffffffffffffffffffffffffffffffffffffffff1691505090565b600360003373ffffffffffffffffffffffffffffffffffffffff1673ffffffffffffffffffffffffffffffffffffffff16815260200190815260200160002060009054906101000a900460ff16610db0576040517f08c379a0000000000000000000000000000000000000000000000000000000008152600401610da790611e6a565b60405180910390fd5b6000815111610df4576040517f08c379a0000000000000000000000000000000000000000000000000000000008152600401610deb90611909565b60405180910390fd5b600060018054610e0390611820565b80601f0160208091040260200160405190810160405280929190818152602001828054610e2f90611820565b8015610e7c5780601f10610e5157610100808354040283529160200191610e7c565b820191906000526020600020905b815481529060010190602001808311610e5f57829003601f168201915b505050505090508160019081610e929190611b41565b507f0e9edfcade50e1c8d62585853d6e620ccce498512264d8cd19794653c7d03b7b8183604051610ec4929190611c13565b60405180910390a15050565b60036020528060005260406000206000915054906101000a900460ff1681565b60028181548110610f0057600080fd5b906000526020600020016000915054906101000a900473ffffffffffffffffffffffffffffffffffffffff1681565b610f37610fdd565b600073ffffffffffffffffffffffffffffffffffffffff168173ffffffffffffffffffffffffffffffffffffffff1603610fa95760006040517f1e4fbdf7000000000000000000000000000000000000000000000000000000008152600401610fa09190611710565b60405180910390fd5b610fb281611064565b50565b600080610fc0611163565b90508091505090565b610fd161118e565b610fda816111ce565b50565b610fe5611254565b73ffffffffffffffffffffffffffffffffffffffff16611003610cec565b73ffffffffffffffffffffffffffffffffffffffff161461106257611026611254565b6040517f118cdaa70000000000000000000000000000000000000000000000000000000081526004016110599190611710565b60405180910390fd5b565b600061106e61113b565b905060008160000160009054906101000a900473ffffffffffffffffffffffffffffffffffffffff169050828260000160006101000a81548173ffffffffffffffffffffffffffffffffffffffff021916908373ffffffffffffffffffffffffffffffffffffffff1602179055508273ffffffffffffffffffffffffffffffffffffffff168173ffffffffffffffffffffffffffffffffffffffff167f8be0079c531659141344cd1fd0a4f28419497f9722a3daafe3b4186f6b6457e060405160405180910390a3505050565b60007f9016d09d72d40fdae2fd8ceac6b6234c7706214fd39c1cd1e609a0528c199300905090565b60007ff0c57e16840df040f15088dc2f81fe391c3923bec73e23a9662efc9c229c6a0060001b905090565b61119661125c565b6111cc576040517fd7e6bcf800000000000000000000000000000000000000000000000000000000815260040160405180910390fd5b565b6111d661118e565b600073ffffffffffffffffffffffffffffffffffffffff168173ffffffffffffffffffffffffffffffffffffffff16036112485760006040517f1e4fbdf700000000000000000000000000000000000000000000000000000000815260040161123f9190611710565b60405180910390fd5b61125181611064565b50565b600033905090565b6000611266610fb5565b60000160089054906101000a900460ff16905090565b600081519050919050565b600082825260208201905092915050565b60005b838110156112b657808201518184015260208101905061129b565b60008484015250505050565b6000601f19601f8301169050919050565b60006112de8261127c565b6112e88185611287565b93506112f8818560208601611298565b611301816112c2565b840191505092915050565b6000602082019050818103600083015261132681846112d3565b905092915050565b6000604051905090565b600080fd5b600080fd5b600080fd5b600080fd5b7f4e487b7100000000000000000000000000000000000000000000000000000000600052604160045260246000fd5b611384826112c2565b810181811067ffffffffffffffff821117156113a3576113a261134c565b5b80604052505050565b60006113b661132e565b90506113c2828261137b565b919050565b600067ffffffffffffffff8211156113e2576113e161134c565b5b6113eb826112c2565b9050602081019050919050565b82818337600083830152505050565b600061141a611415846113c7565b6113ac565b90508281526020810184848401111561143657611435611347565b5b6114418482856113f8565b509392505050565b600082601f83011261145e5761145d611342565b5b813561146e848260208601611407565b91505092915050565b600073ffffffffffffffffffffffffffffffffffffffff82169050919050565b60006114a282611477565b9050919050565b6114b281611497565b81146114bd57600080fd5b50565b6000813590506114cf816114a9565b92915050565b6000806000606084860312156114ee576114ed611338565b5b600084013567ffffffffffffffff81111561150c5761150b61133d565b5b61151886828701611449565b935050602084013567ffffffffffffffff8111156115395761153861133d565b5b61154586828701611449565b9250506040611556868287016114c0565b9150509250925092565b6000806040838503121561157757611576611338565b5b600083013567ffffffffffffffff8111156115955761159461133d565b5b6115a185828601611449565b925050602083013567ffffffffffffffff8111156115c2576115c161133d565b5b6115ce85828601611449565b9150509250929050565b600081519050919050565b600082825260208201905092915050565b6000819050602082019050919050565b61160d81611497565b82525050565b600061161f8383611604565b60208301905092915050565b6000602082019050919050565b6000611643826115d8565b61164d81856115e3565b9350611658836115f4565b8060005b838110156116895781516116708882611613565b975061167b8361162b565b92505060018101905061165c565b5085935050505092915050565b600060208201905081810360008301526116b08184611638565b905092915050565b6000602082840312156116ce576116cd611338565b5b600082013567ffffffffffffffff8111156116ec576116eb61133d565b5b6116f884828501611449565b91505092915050565b61170a81611497565b82525050565b60006020820190506117256000830184611701565b92915050565b60006020828403121561174157611740611338565b5b600061174f848285016114c0565b91505092915050565b60008115159050919050565b61176d81611758565b82525050565b60006020820190506117886000830184611764565b92915050565b6000819050919050565b6117a18161178e565b81146117ac57600080fd5b50565b6000813590506117be81611798565b92915050565b6000602082840312156117da576117d9611338565b5b60006117e8848285016117af565b91505092915050565b7f4e487b7100000000000000000000000000000000000000000000000000000000600052602260045260246000fd5b6000600282049050600182168061183857607f821691505b60208210810361184b5761184a6117f1565b5b50919050565b7f456d707479206e616d6500000000000000000000000000000000000000000000600082015250565b6000611887600a83611287565b915061189282611851565b602082019050919050565b600060208201905081810360008301526118b68161187a565b9050919050565b7f456d70747920707572706f736500000000000000000000000000000000000000600082015250565b60006118f3600d83611287565b91506118fe826118bd565b602082019050919050565b60006020820190508181036000830152611922816118e6565b9050919050565b7f496e76616c69642063726561746f722061646472657373000000000000000000600082015250565b600061195f601783611287565b915061196a82611929565b602082019050919050565b6000602082019050818103600083015261198e81611952565b9050919050565b60008190508160005260206000209050919050565b60006020601f8301049050919050565b600082821b905092915050565b6000600883026119f77fffffffffffffffffffffffffffffffffffffffffffffffffffffffffffffffff826119ba565b611a0186836119ba565b95508019841693508086168417925050509392505050565b6000819050919050565b6000611a3e611a39611a348461178e565b611a19565b61178e565b9050919050565b6000819050919050565b611a5883611a23565b611a6c611a6482611a45565b8484546119c7565b825550505050565b600090565b611a81611a74565b611a8c818484611a4f565b505050565b5b81811015611ab057611aa5600082611a79565b600181019050611a92565b5050565b601f821115611af557611ac681611995565b611acf846119aa565b81016020851015611ade578190505b611af2611aea856119aa565b830182611a91565b50505b505050565b600082821c905092915050565b6000611b1860001984600802611afa565b1980831691505092915050565b6000611b318383611b07565b9150826002028217905092915050565b611b4a8261127c565b67ffffffffffffffff811115611b6357611b6261134c565b5b611b6d8254611820565b611b78828285611ab4565b600060209050601f831160018114611bab5760008415611b99578287015190505b611ba38582611b25565b865550611c0b565b601f198416611bb986611995565b60005b82811015611be157848901518255600182019150602085019450602081019050611bbc565b86831015611bfe5784890151611bfa601f891682611b07565b8355505b6001600288020188555050505b505050505050565b60006040820190508181036000830152611c2d81856112d3565b90508181036020830152611c4181846112d3565b90509392505050565b6000819050919050565b600067ffffffffffffffff82169050919050565b6000611c83611c7e611c7984611c4a565b611a19565b611c54565b9050919050565b611c9381611c68565b82525050565b6000602082019050611cae6000830184611c8a565b92915050565b7f416c7265616479207369676e6564000000000000000000000000000000000000600082015250565b6000611cea600e83611287565b9150611cf582611cb4565b602082019050919050565b60006020820190508181036000830152611d1981611cdd565b9050919050565b7f4f6e6c7920706172746e6572732063616e20757064617465206e616d6520616e60008201527f6420707572706f73650000000000000000000000000000000000000000000000602082015250565b6000611d7c602983611287565b9150611d8782611d20565b604082019050919050565b60006020820190508181036000830152611dab81611d6f565b9050919050565b7f4f6e6c7920706172746e6572732063616e20757064617465206e616d65000000600082015250565b6000611de8601d83611287565b9150611df382611db2565b602082019050919050565b60006020820190508181036000830152611e1781611ddb565b9050919050565b7f4f6e6c7920706172746e6572732063616e2075706461746520707572706f7365600082015250565b6000611e54602083611287565b9150611e5f82611e1e565b602082019050919050565b60006020820190508181036000830152611e8381611e47565b905091905056fea2646970667358221220dde74efbd3b180db94d9aad60b567fe1a88e1566f0e2a4635a833f5519ac9b1764736f6c634300081d0033",
  "linkReferences": {},
  "deployedLinkReferences": {}
}